:040000007FEF00F09E
:100008003382FACF21F0FBCF22F0E9CF23F0EACFF9
:1000180024F0E1CF25F0E2CF26F0D9CF27F0DACFD0
:1000280028F0F3CF29F0F4CF2AF0F6CF2BF0F7CF52
:100038002CF0F8CF2DF0F5CF2EF09EA63ED0C7BA03
:1000480013D0000E316EC7B0C9CF2FF0C7A431D07E
:10005800C69E3250010D010EF324D96E000EF42015
:10006800DA6EDF50C96E24D0312AC7B0C9CF2FF05D
:10007800C7A40ED0C69E3250010D010EF324D96ECE
:10008800000EF420DA6EDF50C96E322A8C8C11D043
:100098003104D8A403D02FC032F00BD03250010D58
:1000A800010EF324D96E000EF420DA6E2FC0DFFFA4
:1000B800322A1F0E32169E96C6882EC0F5FF2DC016
:1000C800F8FF2CC0F7FF2BC0F6FF2AC0F4FF29C0A9
:1000D800F3FF28C0DAFF27C0D9FF26C0E2FF25C0FA
:1000E800E1FF24C0EAFF23C0E9FF22C0FBFF21C0D3
:1000F800FAFF33921100A2EF00F0600ED36E9B9CC2
:100108003F0E956E8C9E8C9C180E946E180E8B6EFE
:10011800420EC86E360EC66E000EC76E010EC56E54
:100128009E969D86F28EF28C680E306EE40EE82E56
:10013800FED7302EFCD700F000F0F6D7326A316ACD
:10014800720EF66E010EF76E000EF86E00EE01F0FC
:1001580010EE20F00900F5CFEEFFE550E150FAE18E
:1001680033903392000181EF00F0AAEEDDCCBBAAF8
:10017800998877665544332211FAEADACABAFBFC41
:0A018800FDFE01020304050607084E
:020000040020DA
:08000000FFFFFFFFFFFFFFFF00
:020000040030CA
:0E000000FF08071EFF0B81FF0FC00FE00F402F
:00000001FF
