:04000000FAEF04F01F
:10060000006772616E746564206163636573732152
:1006100000596F752068617665206265656E0053CC
:10062000747564656E74204E723A0000DBEC04F061
:1006300020EC04F001EC05F0000E126E000E116EBD
:1006400011501210D8A41AD001EC05F0340E0B6E24
:10065000F20EE82EFED70B2EFCD7010E036E010E14
:100660005CEC04F01F0E056E060E066E84EC04F0C2
:10067000020E036E020E5CEC04F03ED0080E111860
:100680001210D8A439D001EC05F0340E0B6EF20E26
:10069000E82EFED70B2EFCD7010E036E010E5CEC8C
:1006A00004F0110E056E060E066E84EC04F0010EC9
:1006B000036E020E5CEC04F0010E056E060E066E73
:1006C00084EC04F0000E0D6E000E0C6E0DBE06D014
:1006D000E80E0C5C030E0D58D8B00AD0340E0B6E29
:1006E000F20EE82EFED70B2EFCD70C4A0D2AEED7C1
:1006F000000E126E000E116ECCEC03F0106E5F0E49
:100700001018D8B41BD01050A9EC04F0114A122ACA
:10071000000E0F6E000E0E6E0FBE06D00F500EE1D3
:10072000050E0E5CD8B00AD0340E0B6EF20EE82E19
:10073000FED70B2EFCD70E4A0F2AEED7680E0B6E93
:10074000E40EE82EFED70B2EFCD700F000F0680E6A
:100750000B6EE40EE82EFED70B2EFCD700F000F057
:10076000680E0B6EE40EE82EFED70B2EFCD700F0C1
:1007700000F0680E0B6EE40EE82EFED70B2EFCD7B1
:1007800000F000F0680E0B6EE40EE82EFED70B2E84
:10079000FCD700F000F054D71E0E936E000E946E3E
:1007A000010E836E81A204D0000E826E310E120003
:1007B00081A404D0000E826E340E120081A604D0F3
:1007C000000E826E370E120081A804D0000E826ED9
:1007D0002A0E1200020E836E81A204D0000E826ED9
:1007E000320E120081A404D0000E826E350E12006B
:1007F00081A604D0000E826E380E120081A804D0AB
:10080000000E826E300E1200040E836E81A204D0A0
:10081000000E826E330E120081A404D0000E826E90
:10082000360E120081A604D0000E826E390E120020
:1008300081A804D0000E826E230E12005F0E1200FB
:10084000000EC5EC04F0680E036EE40EE82EFED731
:10085000032EFCD700F000F0030EEEEC04F01A0EAD
:10086000036EF80EE82EFED7032EFCD700F000F042
:10087000030EEEEC04F03A0E036E230EE82EFED7C4
:10088000032EFCD700F0030EEEEC04F0020EEEECAB
:1008900004F0020EEEEC04F0080EEEEC04F0000E94
:1008A000EEEC04F00C0EEEEC04F0000EEEEC04F0B6
:1008B000060EEEEC04F01200046E0404D8A410D06E
:1008C00003507F0F076E07380F0B056E07500F0B95
:1008D000066E0550EEEC04F00650EEEC04F012004B
:1008E000020E0418D8A412000350BF0F076E073879
:1008F0000F0B056E07500F0B066E0550EEEC04F063
:100900000650EEEC04F01200000E0A6E000E096EA6
:1009100010D009500524076E0A500620086E07C043
:10092000F6FF08C0F7FF0800F550A9EC04F0094AEB
:100930000A2A09500524076E0A500620086E07C0CF
:10094000F6FF08C0F7FF0800F5500009D8B4120000
:10095000E0D7046E04500F0B026E0450F00B036ED0
:10096000838A03380F0BC5EC04F08388350EE82E1C
:10097000FED700F083980250C5EC04F08388350E52
:10098000E82EFED700F083981200016E01A002D07D
:10099000838001D0839001A202D0838201D0839210
:1009A00001A402D0838401D0839401A602D083865F
:1009B0001200839612007B0ED36E000E926E000E14
:1009C000936E000E946E000E956E000E806E000EFB
:1009D000816E000E826E000E836E1200026E839A8C
:1009E0000250C5EC04F08388C80E00F0E82EFDD755
:1009F00083981200000EF86E060EF76E000116EFD7
:100A000003F0000EEEEC04F0010EEEEC04F0120028
:020000040020DA
:08000000FFFFFFFFFFFFFFFF00
:020000040030CA
:0E000000FF081F1FFF8985FF0FC00FE00F4094
:00000001FF
