:040000007FEF00F09E
:100008005082FACF01F0FBCF02F0E9CF03F0EACF3C
:1000180004F0E1CF05F0E2CF06F0D9CF07F0DACF50
:1000280008F0F3CF09F0F4CF0AF0F6CF0BF0F7CFD2
:100038000CF0F8CF0DF0F5CF0EF09EA63ED0C7BA63
:1000480013D0000E4E6EC7B0C9CF0FF0C7A431D081
:10005800C69E4F50010D000EF324D96E010EF420F8
:10006800DA6EDF50C96E24D04E2AC7B0C9CF0FF060
:10007800C7A40ED0C69E4F50010D000EF324D96EB2
:10008800010EF420DA6EDF50C96E4F2A8C8C11D025
:100098004E04D8A403D00FC04FF00BD04F50010D21
:1000A800200EF324D96E010EF420DA6E0FC0DFFFA4
:1000B8004F2A1F0E4F169E96C6880EC0F5FF0DC01C
:1000C800F8FF0CC0F7FF0BC0F6FF0AC0F4FF09C029
:1000D800F3FF08C0DAFF07C0D9FF06C0E2FF05C07A
:1000E800E1FF04C0EAFF03C0E9FF02C0FBFF01C053
:1000F800FAFF50921100F0EF0BF0000E01016A6F49
:10010800000E0101696F5F0E01016B6FDCEC0CF0F2
:100118002FEC0CF0A8EC04F0839E000E0101626F36
:10012800000E616F010162BF0BD00101625107E14E
:10013800200E0101615DD8B0A2EF04F001D0FED31A
:10014800200E01016125D96E010E01016221DA6ECE
:100158002D0EDF6E000E01016125D96E010E010121
:100168006221DA6E2D0EDF6E0101614B622B0101F7
:1001780062BFE6D70101625101E1DAD7DFD3000E91
:100188000101686F000E676F010168BF08D00101A7
:10019800685127E1090E0101675DD8B022D0D30E5E
:1001A80001016725D96E000E01016821DA6E300E53
:1001B800DF6ECA0E01016725D96E000E01016821A4
:1001C800DA6E300EDF6E4A0E01016725D96E010E18
:1001D80001016821DA6E300EDF6E0101674B682B72
:1001E800D3D7000E01016A6F010E126E010E30ECBA
:1001F8000DF0ED0E146E7E0E156E6BEC0CF0010E0C
:10020800126E020E30EC0DF0980E146E7E0E156E06
:100218006BEC0CF0010E126E020E30EC0DF0B0D04B
:10022800090E01016A19D8B4AFD0020E126E020E7F
:1002380030EC0DF001016A51276E286A271E281E2E
:10024800274A282A090E2726000E2822920E27243C
:10025800D96E000E2820DA6EDF5094EC0DF0B4EC65
:100268000AF001016B6F5F0E01016B19D8B488D0D9
:10027800DD0E276EFF0E286E01016B51296E2A6A6A
:100288002750292628502A2229502A10D8A434D0A9
:1002980001016A510101D8B42FD001016A51010D41
:1002A8004A0EF324D96E010EF420DA6E3F0EDF6E8B
:1002B80001016A51070F126E020E30EC0DF05F0E4D
:1002C80094EC0DF06B0E106E010E116E78EC0DF0C3
:1002D80001016A51080F126E020E30EC0DF0200E6B
:1002E80094EC0DF001016A51070F126E020E30EC0A
:1002F8000DF001016A0744D0DD0E276EFF0E286E4F
:1003080001016B51296E2A6A2750292628502A2272
:1003180029502A10D8B434D02A0E01016B19D8B448
:1003280033D0090E01016A19D8B42ED001016A2B05
:10033800FF0E276EFF0E286E01016A51296E2A6A88
:100348002750292628502A224A0E2924D96E010E20
:100358002A20DA6E6BC1DFFF01016A51070F126EA6
:10036800020E30EC0DF001016B5194EC0DF05F0EB4
:1003780094EC0DF06B0E106E010E116E78EC0DF012
:10038800090E01016A654CD7000E0101646F000E69
:10039800636F55D0FF0E276EFF0E286E63C129F0DC
:1003A80064C12AF0291E2A1E294A2A2A01016A51F3
:1003B8002B6E2C6A29502B262A502C2227502B26AC
:1003C80028502C224A0E2B24D96E010E2C20DA6ECE
:1003D80063C12DF064C12EF02D1E2E1E2D4A2E2A2B
:1003E800080E2D26000E2E22D30E2D24E16E000EAF
:1003F8002E20E26EDFCFE7FFFF0E276EFF0E286E7E
:1004080063C129F064C12AF0291E2A1E294A2A2A12
:1004180001016A512B6E2C6A29502B262A502C2256
:1004280027502B2628502C224A0E2B24D96E010E39
:100438002C20DA6E300EDF6E0101634B642B010154
:100448006A51276E286A27500101635D01016451D2
:10045800800A296E2850800A2958D8A09BD7000EF8
:100468001E6E190E1D6EE3EC09F0000E0101696F96
:10047800010E126E010E30EC0DF0420E146E7F0E5E
:10048800156E6BEC0CF0010E126E020E30EC0DF0D6
:10049800980E146E7E0E156E6BEC0CF0010E126E3B
:1004A800020E30EC0DF0B8D0090E01016919D8B46C
:1004B800B7D020EE9CF011EE40F0090EDBCFE3FF41
:1004C800E806FCE2020E126E020E30EC0DF001019D
:1004D8006951276E286A271E281E274A282A090ECE
:1004E8002726000E2822400E2724D96E010E282028
:1004F800DA6EDF5094EC0DF0B4EC0AF001016B6F8A
:100508005F0E01016B19D8B487D0DD0E276EFF0E80
:10051800286E01016B51296E2A6A27502926285016
:100528002A2229502A10D8A434D001016951010186
:10053800D8B42FD001016951010D4A0EF324D96EA8
:10054800010EF420DA6E3F0EDF6E01016951070FCC
:10055800126E020E30EC0DF05F0E94EC0DF06B0E87
:10056800106E010E116E78EC0DF001016951080F43
:10057800126E020E30EC0DF0200E94EC0DF001011D
:100588006951070F126E020E30EC0DF00101690778
:1005980043D0DD0E276EFF0E286E01016B51296EC8
:1005A8002A6A2750292628502A2229502A10D8B4E6
:1005B80033D02A0E01016B19D8B432D0090E0101CB
:1005C8006919D8B42DD00101692BFF0E276EFF0ED3
:1005D800286E01016951296E2A6A27502926285058
:1005E8002A224A0E2924D96E010E2A20DA6E6BC1FE
:1005F800DFFF01016951070F126E020E30EC0DF09A
:100608002A0E94EC0DF05F0E94EC0DF06B0E106E4C
:10061800010E116E78EC0DF0090E0101696544D7E1
:10062800000E01015C6F000E5B6F35D0FF0E276E68
:10063800FF0E286E5BC129F05CC12AF0291E2A1E14
:10064800294A2A2A010169512B6E2C6A29502B2626
:100658002A502C2227502B2628502C224A0E2B2495
:10066800D96E010E2C20DA6E5BC12DF05CC12EF024
:100678002D1E2E1E2D4A2E2A080E2D26000E2E2245
:10068800CA0E2D24E16E000E2E20E26EDFCFE7FFAA
:1006980001015B4B5C2B01016951276E286A2750C9
:1006A80001015B5D01015C51800A296E2850800AB6
:1006B8002958D8A0BBD7000E1E6E190E1D6EE3EC8C
:1006C80009F0010E126E010E30EC0DF0200E146EC2
:1006D8007F0E156E6BEC0CF0010E126E020E30ECF4
:1006E8000DF0A90E146E7E0E156E6BEC0CF038EC46
:1006F8000BF0000E01015A6F000E01015E6F000E33
:100708005D6F01015EBF08D001015E5113E1200E4B
:1007180001015D5DD8B00ED0200E01015D25D96EB6
:10072800010E01015E21DA6E2D0EDF6E01015D4BB7
:100738005E2BE7D7000E0101536F000E0101606FB9
:10074800000E5F6F010160BF08D00101605118E120
:10075800200E01015F5DD8B013D0200E01015F2586
:10076800D96E010E01016021DA6E2D0EDE18D8A4B3
:1007780003D0010E0101536F01015F4B602BE2D7DB
:10078800010153510101D8A4D5D72D0E0101006FE5
:1007980020C15AF1000E0101666F000E656F01015C
:1007A80066BF08D00101665121E1100E0101655DA7
:1007B800D8B01CD0010E01016525276E000E01017D
:1007C8006621286E200E2724D96E010E2820DA6EA5
:1007D800BA0E01016525E16E000E01016621E26E87
:1007E800DFCFE7FF0101654B662BD9D7A10E0101C9
:1007F8005A19D8A43AD0010E126E010E30EC0DF041
:10080800CA0E146E7F0E156E6BEC0CF0000E1E6E89
:10081800640E1D6EE3EC09F0010E126E010E30EC51
:100828000DF00F0E146E7F0E156E6BEC0CF0000EB3
:100838000101556F000E546F010155BF08D0010129
:10084800555110E1140E0101545DD8B00BD0340E8F
:10085800276EF20EE82EFED7272EFCD70101544B47
:10086800552BEAD768EC08F069D0A00E01015A1997
:10087800D8A432D0839E010E126E010E30EC0DF01A
:10088800B90E146E7F0E156E6BEC0CF0010E126E25
:10089800020E30EC0DF0CB0E146E7E0E156E6BEC66
:1008A8000CF0000E0101576F000E566F010157BF83
:1008B80008D00101575142E1640E0101565DD8B0DC
:1008C8003DD0340E276EF20EE82EFED7272EFCD729
:1008D8000101564B572BEAD7839E010E126E010E6B
:1008E80030EC0DF0970E146E7F0E156E6BEC0CF05D
:1008F800010E126E020E30EC0DF0CB0E146E7E0E51
:10090800156E6BEC0CF0000E0101596F000E586F5C
:10091800010159BF08D00101595110E1640E0101CC
:10092800585DD8B00BD0340E276EF20EE82EFED7E5
:10093800272EFCD70101584B592BEAD70001DD516E
:10094800D8A490EF00F01BD4FFEC0DF0010E126E4E
:10095800010E30EC0DF0BA0E146E7E0E156E6BECB7
:100968000CF0000E0001756F000E746F000175BF6A
:1009780008D00001755112E1140E0001745DD8B061
:100988000DD0680E236EE40EE82EFED7232EFCD77A
:1009980000F000F00001744B752BE8D7010E126EC1
:1009A800020E30EC0DF0F20E146E7F0E156E6BEC2D
:1009B8000CF0E60E146E7F0E156E6BEC0CF0000E4C
:1009C8000001776F000E766F000177BF08D0000135
:1009D800775112E1320E0001765DD8B00DD0680E65
:1009E800236EE40EE82EFED7232EFCD700F000F08D
:1009F8000001764B772BE8D7010E126E020E30EC11
:100A08000DF0DB0E146E7F0E156E6BEC0CF0000112
:100A1800DE51D8B404D00001DE51F10F01D0000E30
:100A280000018A6F8AC010F0116A000E136E640EFE
:100A3800126EAEEC0BF0105000018E6F00018E515B
:100A4800640DF31EF41EF34AF42A00018A51F324BC
:100A5800106E000EF420116E000E136E0A0E126E48
:100A6800AEEC0BF0105000018B6F00018B510A0D9A
:100A7800F3CF23F000018E51640DF35023240008B6
:100A880000018A250001726F00018E51010D920E3E
:100A9800F324D96E000EF420DA6EDF5094EC0DF0DA
:100AA80000018B51010D920EF324D96E000EF42033
:100AB800DA6EDF5094EC0DF000017251010D920EC8
:100AC800F324D96E000EF420DA6EDF5094EC0DF0AA
:100AD8007C0E94EC0DF0DEC010F0116A000E136E5F
:100AE800100E126EAEEC0BF02F0E1024D96E000E05
:100AF8001120DA6EDF5094EC0DF0DEC010F0116AB0
:100B0800000E136E100E126EAEEC0BF0103A113A86
:100B1800F00E111610500F0B1112F00E1016101EB9
:100B2800111E104A112A0001DE51236E246A10504A
:100B38002326115024222F0E2324D96E000E2420A0
:100B4800DA6EDF5094EC0DF0000E0001796F000EA4
:100B5800786F000179BF08D00001795112E1280EA1
:100B68000001785DD8B00DD0680E236EE40EE82E33
:100B7800FED7232EFCD700F000F00001784B792B2C
:100B8800E8D7FFEC0DF0010E126E010E30EC0DF0FF
:100B9800FE0E146E7E0E156E6BEC0CF0020E1E6EC1
:100BA800BC0E1D6EE3EC09F0000E0001906F000111
:100BB800DE51D8A485D2000E0001736F010E126EAB
:100BC800010E30EC0DF0640E146E7F0E156E6BEC9A
:100BD8000CF0010E1E6E2C0E1D6EE3EC09F0B5C074
:100BE80087F0B6C088F0B7C089F065D2010E126EE2
:100BF800010E30EC0DF0310E146E7F0E156E6BEC9D
:100C08000CF0010E126E020E30EC0DF0A80E146EF0
:100C18007F0E156E6BEC0CF0010E126E020E30ECAE
:100C28000DF05F0E94EC0DF081D0B4EC0AF00001E9
:100C38008F6F5F0E00018F19D8B478D0DD0E236E48
:100C4800FF0E246E00018F51256E266A235025263B
:100C58002450262225502610D8A42FD000019051C8
:100C68000001D8B42AD000019051010D870EF32459
:100C7800D96E000EF420DA6E000EDF6E90C012F00E
:100C8800020E30EC0DF05F0E94EC0DF08F0E106E2E
:100C9800000E116E78EC0DF000019029126E020E14
:100CA80030EC0DF0200E94EC0DF090C012F0020E16
:100CB80030EC0DF00001900739D0DD0E236EFF0EE9
:100CC800246E00018F51256E266A23502526245054
:100CD800262225502610D8B429D02A0E00018F19B3
:100CE800D8B428D0030E00019019D8B423D000013D
:100CF8009051010D870EF324D96E000EF420DA6EA0
:100D08008FC0DFFF0001902B90C012F0020E30EC74
:100D18000DF000018F5194EC0DF05F0E94EC0DF086
:100D28008F0E106E000E116E78EC0DF0020E0001A1
:100D380090657BD7000E0001916F000E00018D6F4A
:100D4800000E8C6F00018DBF08D000018D511CE191
:100D5800030E00018C5DD8B017D0800E00018C25E1
:100D6800D96E000E00018D21DA6E870E00018C25E8
:100D7800E16E000E00018D21E26EE750D00FDF6EAC
:100D880000018C4B8D2BDED700018751D00F640DED
:100D9800F3500001912700018851D00F0A0DF3503C
:100DA8000001912700018951D00F0001912791C0BE
:100DB800DFF00F0E00019127000180510001D8A437
:100DC80008D000018151D8A410D000018251D8A4C4
:100DD8000CD000018005D8A412D100018151D8A4FB
:100DE8000ED100018251D8A40AD191C010F0116A25
:100DF800000E136E640E126EAEEC0BF01050000174
:100E08008E6F00018E51640DF31EF41EF34AF42A0E
:100E180000019151F324106E000EF420116E000EA3
:100E2800136E0A0E126EAEEC0BF0105000018B6FB1
:100E380000018B510A0DF3CF23F000018E51640D90
:100E4800F35023240008000191250001726F91C01E
:100E580010F0116A000E136E100E126EAEEC0BF04D
:100E6800105000016E6F91C010F0116A000E136EE1
:100E7800100E126EAEEC0BF01038F00B00080001EB
:100E8800912500016F6FFFEC0DF0010E126E010E3F
:100E980030EC0DF0310E146E7F0E156E6BEC0CF00D
:100EA800010E126E020E30EC0DF0000E0001846F80
:100EB800000E836F000184BF08D00001845114E143
:100EC800030E0001835DD8B00FD0870E0001832583
:100ED800D96E000E00018421DA6EDF5094EC0DF01B
:100EE8000001834B842BE6D7070E126E020E30ECFE
:100EF8000DF0F70E146E7F0E156E6BEC0CF00E0EE7
:100F0800126E020E30EC0DF0FC0E146E7F0E156E94
:100F18006BEC0CF000016E51010D2F0EF324D96E0D
:100F2800000EF420DA6EDF5094EC0DF000016F51E2
:100F3800010D2F0EF324D96E000EF420DA6EDF5067
:100F480094EC0DF0000E00017B6F000E7A6F00012B
:100F58007BBF08D000017B5118E1320E00017A5D99
:100F6800D8B013D0680E236EE40EE82EFED7232ED9
:100F7800FCD700F000F000017A4B7B2B00017BBF0F
:100F8800F1D700017B5101E1E8D791C0DEF0DEC066
:100F980010F00001DC51EDEC0DF0FFEC0DF0010E4E
:100FA800126E010E30EC0DF0860E146E7F0E156E6B
:100FB8006BEC0CF0000E00017D6F000E7C6F0001E1
:100FC8007DBF08D000017D5112E10A0E00017C5D51
:100FD800D8B00DD0680E236EE40EE82EFED7232E6F
:100FE800FCD700F000F000017C4B7D2BE8D7010E08
:100FF8001E6EF40E1D6EE3EC09F0FF005CD00001DC
:1010080091510001D8A405D0530E0001706F7F0ED6
:1010180004D0DC0E0001706F7E0E0001716F010EAE
:10102800126E020E30EC0DF070C014F071C015F0A5
:101038006BEC0CF0000E00017F6F000E7E6F00015C
:101048007FBF08D000017F5112E1320E00017E5DA2
:10105800D8B00DD0680E236EE40EE82EFED7232EEE
:10106800FCD700F000F000017E4B7F2BE8D7000E84
:101078000001866F000E856F000186BF08D0000151
:10108800865113E1030E0001855DD8B00ED0870E9E
:1010980000018525D96E000E00018621DA6E300E1A
:1010A800DF6E0001854B862BE7D7000E0001736FBA
:1010B800000E0001906F00017305D8B4120096D598
:1010C800010E0001736F1200838E000E00017F6F06
:1010D800FFEC0DF0010E126E010E30EC0DF0010E5A
:1010E8000001826F000E0001836F000E00018D6FFA
:1010F800000E8C6F00018DBF08D000018D512AE1D0
:10110800090E00018C5DD8B025D0D30E00018C25C6
:10111800D96E000E00018D21DA6E300EDE18D8A4CB
:1011280005D0000182510001D8A410D0000E0001A2
:10113800826F0001832BD30E00018C25D96E000E1F
:1011480000018D21DA6EDF5094EC0DF000018C4B1C
:101158008D2BD0D7000E0001816F000E806F06D056
:10116800200E94EC0DF00001804B812B000183517F
:10117800236E246A231E241E234A242A0D0E2326A6
:10118800000E242223500001805D00018151800A55
:10119800256E2450800A2558D8A0E2D7010E126E79
:1011A800020E30EC0DF0000E0001896F000E886F02
:1011B800000189BF08D00001895114E1100E000117
:1011C800885DD8B00FD0BA0E00018825D96E000E00
:1011D80000018921DA6EDF5094EC0DF00001884B94
:1011E800892BE6D70C0E126E010E30EC0DF0EC0ECA
:1011F800146E7F0E156E6BEC0CF0B8C08AF0B9C097
:101208008BF0000E0001856F000E846F20EEB0F0A9
:1012180010EE6EF0040EDBCFE3FFE806FCE2B5D07B
:1012280000018A5100018B11D8B4B4D0D40E00F05B
:1012380000F0E82EFCD70001844B852BE80E000156
:10124800841904E1030E00018519D8A49ED0000179
:101258008A07D8A08B07000E0001856F000E846FE7
:1012680020EEA6F010EE75F0090EDBCFE3FFE806DE
:10127800FCE28AC010F08BC011F00E0E136E100E37
:10128800126EAEEC0BF010C073F011C074F08AC08F
:1012980010F08BC011F00E0E136E100E126EA4EC2F
:1012A8000CF010C08EF011C08FF08EC010F08FC0FF
:1012B80011F0000E136E3C0E126EAEEC0BF010C067
:1012C80086F011C087F08EC010F08FC011F0000EAC
:1012D800136E3C0E126EA4EC0CF010C08EF011C010
:1012E8008FF00C0E126E010E30EC0DF086C010F06F
:1012F80087C011F0000E136E0A0E126EAEEC0BF0E2
:10130800750E1024D96E000E1120DA6EDF5094ECA1
:101318000DF086C010F087C011F0000E136E0A0E93
:10132800126EA4EC0CF0750E1024D96E000E11206C
:10133800DA6EDF5094EC0DF03A0E94EC0DF08EC09E
:1013480010F08FC011F0000E136E0A0E126EAEEC84
:101358000BF0750E1024D96E000E1120DA6EDF50D6
:1013680094EC0DF08EC010F08FC011F0000E136ECB
:101378000A0E126EA4EC0CF0750E1024D96E000E35
:101388001120DA6EDF5094EC0DF0B4EC0AF0230A69
:10139800D8A446D7FFEC0DF0010E126E010E30EC0A
:1013A8000DF0750E146E7F0E156E6BEC0CF0000EC2
:1013B8001E6EC80E1D6EE3EC09F0839E1200010E2E
:1013C800126E020E30EC0DF0000E136E140E126E3B
:1013D8001DC01FF01EC020F0040E216ED8902032D0
:1013E8001F32212EFBD71FC010F020C011F007ECD0
:1013F8000DF010C017F011C018F0000E1A6E140E80
:10140800196EDAEC0DF017C060F018C061F0000139
:10141800626B636B000E0001676F000E666F000160
:1014280067BF08D00001675137E1100E0001665D03
:10143800D8B032D0FF0E94EC0DF0000E0001656FAD
:10144800000E646F0ED0680E1F6EE40EE82EFED7F5
:101458001F2EFCD700F000F0140E00016427000EC8
:10146800652364C01FF065C020F0000E20BEFF0E8B
:10147800216E226E000160511F5C000161512058ED
:10148800000162512158000163512258D8A0DBD7CE
:101498000001664B672BC3D7010E126E020E30ECAB
:1014A8000DF0870E146E7E0E156E6BEC0CF0000EB0
:1014B8000001696F000E686F000169BF08D0000164
:1014C800695112E1050E0001685DD8B00DD0680EB3
:1014D8001F6EE40EE82EFED71F2EFCD700F000F09A
:1014E8000001684B692BE8D7010E126E020E30EC32
:1014F8000DF0000E00016B6F000E6A6F00016BBFEC
:1015080008D000016B510CE1100E00016A5DD8B0E3
:1015180007D0FF0E94EC0DF000016A4B6B2BEED751
:10152800000E00016D6F000E6C6F00016DBF08D0DA
:1015380000016D5112E1050E00016C5DD8B00DD0AF
:10154800680E1F6EE40EE82EFED71F2EFCD700F0A3
:1015580000F000016C4B6D2BE8D7FFEC0DF012008A
:10156800EA0E936E040E816E81B281BC07D081AA07
:1015780081B604D0000E816E310E120081A281ACBA
:1015880007D081AA81B604D0000E816E340E1200F5
:1015980081A281BC07D081BA81B604D0000E816EC9
:1015A800370E120081A281BC07D081AA81A604D07F
:1015B800000E816E2A0E1200010E816E81B281BC6E
:1015C80007D081AA81B604D0000E816E320E1200B7
:1015D80081A281AC07D081AA81B604D0000E816EA9
:1015E800350E120081A281BC07D081BA81B604D021
:1015F800000E816E380E120081A281BC07D081AA2C
:1016080081A604D0000E816E300E1200100E816E7D
:1016180081B281BC07D081AA81B604D0000E816E48
:10162800330E120081A281AC07D081AA81B604D002
:10163800000E816E360E120081A281BC07D081BADD
:1016480081B604D0000E816E390E120081A281BCD1
:1016580007D081AA81A604D0000E816E230E120045
:10166800000E816E5F0E1200000E216E000E206EBD
:1016780021BE06D0215015E1090E205CD8B011D04A
:10168800D30E2024D96E000E2120DA6E000E2024FD
:10169800E16E010E2120E26EDFCFE7FF204A212A0A
:1016A800E7D7000E236E090E226E23BE06D0235004
:1016B80021E1120E225CD8B01DD0F70E186EFF0E75
:1016C800196E22C01AF023C01BF018501A261950A0
:1016D8001B22CA0E1A24D96E000E1B20DA6E000EC9
:1016E8002224E16E010E2320E26EDFCFE7FF224ABB
:1016F800232ADBD7000E1D6E000E1C6E000E1F6E17
:10170800000E1E6E1FBE06D01F5013E11F0E1E5C7A
:10171800D8B00FD0000E1E24D96E010E1F20DA6E2D
:10172800DF50186E18501C26000E1D221E4A1F2A54
:10173800E9D71CC010F01DC011F0000E136E200E6A
:10174800126EAEEC0BF010C01CF011C01DF01CC0E6
:101758001FF11200000E156E13AE06D0126C131E88
:10176800D8B0132A010E156E11AE06D0106C111EDA
:10177800D8B0112A010E151A000E176E000E166E3B
:1017880012501310D8B41CD0010E146E04D0D89087
:1017980012361336142A13AEFAD7D89016361736DF
:1017A8001250105C13501158D8A005D01250105E7A
:1017B8001350115A1680D89013321232142EEDD7C6
:1017C8001550D8B404D0166C171ED8B0172A16C0F6
:1017D80010F017C011F0120000EEBAF0240EEE6AF5
:1017E800E806FDE14F6A4E6AB00EF66E1A0EF76E05
:1017F800000EF86E01EE00F010EE40F00900F5CF93
:10180800EEFFE550E150FAE18C0EF66E1B0EF76E16
:10181800000EF86E00EE92F010EE28F00900F5CFF9
:10182800EEFFE550E150FAE11E0EF66E1C0EF76E63
:10183800000EF86E00EE2FF010EE1FF00900F5CF45
:10184800EEFFE550E150FAE150905092000EF86E2C
:10185800000181EF00F0000EB0EC0DF0680E126E82
:10186800E40EE82EFED7122EFCD700F000F0030E8F
:101878001FEC0EF01A0E126EF80EE82EFED7122E7E
:10188800FCD700F000F0030E1FEC0EF03A0E126EBB
:10189800230EE82EFED7122EFCD700F0030E1FEC05
:1018A8000EF0020E1FEC0EF0020E1FEC0EF0080EEA
:1018B8001FEC0EF0000E1FEC0EF00C0E1FEC0EF0DD
:1018C800000E1FEC0EF0060E1FEC0EF01200000EBC
:1018D800196E000E186E1AD018501424166E19506E
:1018E8001520176E16C0F6FF17C0F7FFF86A050E29
:1018F800F76403D00800F55005D0F6CFE9FFF7CF1D
:10190800EAFFEF5094EC0DF0184A192A18501424E5
:10191800166E19501520176E16C0F6FF17C0F7FF80
:10192800F86A050EF76403D00800F55005D0F6CF25
:10193800E9FFF7CFEAFFEF500009D8B41200CCD77F
:10194800000E156E11AE06D0106C111ED8B0112AFB
:10195800010E156E13AE04D0126C131ED8B0132AE4
:1019680012501310D8B418D0010E146E04D0D890A9
:1019780012361336142A13AEFAD71250105C1350CD
:101988001158D8A004D01250105E1350115AD89094
:1019980013321232142EF1D71550D8B404D0106C6B
:1019A800111ED8B0112A10C010F011C011F0120089
:1019B8000001DC512BEC0EF00001DE6F0001DE515E
:1019C800F10F0001DF6F600ED36E9B9C000E926ECC
:1019D800000E936E180E946E000E956E000E836EB8
:1019E800180E8B6E0001DE51020DF3CFC8FF360EC4
:1019F800C66E000EC76E010EC56E9E969D86F28E4F
:101A0800F28CF2961200000E166E000E156E125031
:101A18001310D8B41CD0010E146E04D0D89012360E
:101A28001336142A13AEFAD7D89015361636125034
:101A3800105C13501158D8A005D01250105E1350E6
:101A4800115A1580D89013321232142EEDD715C0C2
:101A580010F016C011F01200136E1304D8A410D0A1
:101A680012507F0F166E16380F0B146E16500F0B90
:101A7800156E14501FEC0EF015501FEC0EF01200EE
:101A8800020E1318D8A412001250BF0F166E163883
:101A98000F0B146E16500F0B156E14501FEC0EF032
:101AA80015501FEC0EF012002D2D2D2D2D2D2D2D46
:101AB8002D2D2D2D2D2D2D2D2D2D2D2D2D2D2D2D4E
:101AC8002D2D2D2D2D2D2D2D2D2D2D2D2D2D2D2D3E
:101AD8002D2D2D2D2D2D2D2D2D2D2D2D2D2D2D2D2E
:101AE8002D2D2D2D2D2D2D2D09D0680E126EE40EC5
:101AF800E82EFED7122EFCD700F000F010C0D9FF58
:101B080011C0DAFFB4EC0AF0136EDE501318D8B423
:101B1800ECD710C0D9FF11C0DAFF5F0EDF6E1200DC
:101B2800136E13500F0B116E1350F00B126E838A45
:101B380012380F0BB0EC0DF08388350EE82EFED767
:101B480000F083981150B0EC0DF08388350EE82E24
:101B5800FED700F083981200106E10A002D0838088
:101B680001D0839010A202D0838201D0839210A466
:101B780002D0838401D0839410A602D083861200F9
:101B880083961200303132333435363738393031B4
:101B980032333435363738393031323334353637F5
:101BA800383930303A3030303030080717501902A1
:101BB800F3CF1BF0F4CF1CF017501A02F3501C2679
:101BC80018501902F3501C261BC017F01CC018F03F
:101BD8001200116E11C0A9FF10C0A8FFA69EA69CF6
:101BE800A684550EA76EAA0EA76EA682A1A8FED738
:101BF800A198A6941200000E1FEC0EF0010E1FEC27
:101C08000EF01A0E126EF80EE82EFED7122EFCD722
:101C180000F000F0120030313233343536373839BD
:101C2800414243444546303132333435363738390A
:051C380030303A3030AD
:101C3E00116E839A1150B0EC0DF08388C80E00F02F
:101C4E00E82EFDD783981200106E10C0A9FFA69E35
:0C1C5E00A69CA680A6B0FED7A8501200DD
:107E8600002020202020202020202020202020200C
:107E960020005B205D202020202020202020202084
:107EA600202000526573706F6E73652E2E2E202073
:107EB600202020002020205B2041646974756D20FD
:107EC6005D20202000202020205B205265747279DE
:107ED600205D202020004F7574206F6620626F752C
:107EE6006E647321202000456E74657220796F756B
:107EF600722049443A20200020205B2020416469FA
:107F060074756D20205D2020002020205B205765A1
:107F16006C636F6D65205D20200057616974696E22
:107F2600672053797374656D2020004E6577204D68
:107F3600616368696E652049443A2000456E746540
:107F46007220796F75722050494E3A20004D617942
:107F5600206E6F74206265207A65726F21004C6F07
:107F66006164204932432073657475702E2E004C6F
:107F76006F6767696E6720796F75206F75742E005D
:107F86004932435F414444523E3E454550524F4D6F
:107F9600005B2053797374656D204572726F722091
:107FA6005D00202020202020205B3030312D313014
:107FB600305D005B416363657373202044656E69C1
:107FC60065645D005B416363657373204772616E30
:107FD6007465645D004465766963652049442000E4
:107FE600312E302E300030303A3030005265762057
:097FF600005B4F4B5D00780000B8
:020000040020DA
:08000000FFFFFFFFFFFFFFFF00
:020000040030CA
:0E000000FF08071EFF0181FF0FC00FE00F4039
:0200000400F00A
:080000001000000000000000E8
:00000001FF
