:040000007FEF00F09E
:100008005082FACF01F0FBCF02F0E9CF03F0EACF3C
:1000180004F0E1CF05F0E2CF06F0D9CF07F0DACF50
:1000280008F0F3CF09F0F4CF0AF0F6CF0BF0F7CFD2
:100038000CF0F8CF0DF0F5CF0EF09EA63ED0C7BA63
:1000480013D0000E4E6EC7B0C9CF0FF0C7A431D081
:10005800C69E4F50010D000EF324D96E010EF420F8
:10006800DA6EDF50C96E24D04E2AC7B0C9CF0FF060
:10007800C7A40ED0C69E4F50010D000EF324D96EB2
:10008800010EF420DA6EDF50C96E4F2A8C8C11D025
:100098004E04D8A403D00FC04FF00BD04F50010D21
:1000A800200EF324D96E010EF420DA6E0FC0DFFFA4
:1000B8004F2A1F0E4F169E96C6880EC0F5FF0DC01C
:1000C800F8FF0CC0F7FF0BC0F6FF0AC0F4FF09C029
:1000D800F3FF08C0DAFF07C0D9FF06C0E2FF05C07A
:1000E800E1FF04C0EAFF03C0E9FF02C0FBFF01C053
:1000F800FAFF509211009BEF0BF0000E0101676FA1
:10010800000E0101666F5F0E0101686F87EC0CF04D
:10011800DAEC0BF085EC04F0839E000E01015F6FB2
:10012800000E5E6F01015FBF0AD001015F5106E159
:10013800200E01015E5DD8B0DFD301D0DDD3200EE3
:1001480001015E25D96E010E01015F21DA6E2D0EC7
:10015800DF6E000E01015E25D96E010E01015F21DF
:10016800DA6E2D0EDF6E01015E4B5F2B01015FBF62
:10017800E6D701015F5101E1DBD7BED3000E0101D3
:10018800656F000E646F010165BF08D001016551FC
:1001980027E1090E0101645DD8B022D0D30E010118
:1001A8006425D96E000E01016521DA6E300EDF6E0E
:1001B800CA0E01016425D96E000E01016521DA6EAF
:1001C800300EDF6E4A0E01016425D96E010E010161
:1001D8006521DA6E300EDF6E0101644B652BD3D7D3
:1001E800000E0101676F010E126E010EDBEC0CF0C0
:1001F800ED0E146E7E0E156E16EC0CF0010E126EDE
:10020800020EDBEC0CF0980E146E7E0E156E16ECDA
:100218000CF0010E126E020EDBEC0CF0B0D0090EE1
:1002280001016719D8B4AFD0020E126E020EDBECD2
:100238000CF001016751276E286A271E281E274ADD
:10024800282A090E2726000E2822920E2724D96E66
:10025800000E2820DA6EDF503FEC0DF007EC0BF0B3
:100268000101686F5F0E01016819D8B488D0DD0EEE
:10027800276EFF0E286E01016851296E2A6A2750E1
:10028800292628502A2229502A10D8A434D001011E
:1002980067510101D8B42FD001016751010D4A0EF1
:1002A800F324D96E010EF420DA6E3F0EDF6E0101E1
:1002B8006751070F126E020EDBEC0CF05F0E3FEC7D
:1002C8000DF0680E106E010E116E23EC0DF0010199
:1002D8006751080F126E020EDBEC0CF0200E3FEC9B
:1002E8000DF001016751070F126E020EDBEC0CF0E6
:1002F8000101670744D0DD0E276EFF0E286E01014D
:100308006851296E2A6A2750292628502A222950FE
:100318002A10D8B434D02A0E01016819D8B433D0C1
:10032800090E01016719D8B42ED00101672BFF0E01
:10033800276EFF0E286E01016751296E2A6A275021
:10034800292628502A224A0E2924D96E010E2A204D
:10035800DA6E68C1DFFF01016751070F126E020EE6
:10036800DBEC0CF0010168513FEC0DF05F0E3FEC47
:100378000DF0680E106E010E116E23EC0DF0090ED3
:10038800010167654CD7000E0101616F000E606FB7
:1003980055D0FF0E276EFF0E286E60C129F061C18F
:1003A8002AF0291E2A1E294A2A2A010167512B6E82
:1003B8002C6A29502B262A502C2227502B262850CD
:1003C8002C224A0E2B24D96E010E2C20DA6E60C125
:1003D8002DF061C12EF02D1E2E1E2D4A2E2A080E3C
:1003E8002D26000E2E22D30E2D24E16E000E2E2077
:1003F800E26EDFCFE7FFFF0E276EFF0E286E60C1AB
:1004080029F061C12AF0291E2A1E294A2A2A010137
:1004180067512B6E2C6A29502B262A502C222750E4
:100428002B2628502C224A0E2B24D96E010E2C2064
:10043800DA6E300EDF6E0101604B612B01016751EE
:10044800276E286A27500101605D01016151800A09
:10045800296E2850800A2958D8A09BD7000E1E6EF6
:10046800190E1D6EC0EC09F0000E0101666F010E39
:10047800126E010EDBEC0CF0420E146E7F0E156E40
:1004880016EC0CF0010E126E020EDBEC0CF0980E5E
:10049800146E7E0E156E16EC0CF0010E126E020E26
:1004A800DBEC0CF0B8D0090E01016619D8B4B7D04E
:1004B80020EE9CF011EE40F0090EDBCFE3FFE806DA
:1004C800FCE2020E126E020EDBEC0CF0010166512A
:1004D800276E286A271E281E274A282A090E27263B
:1004E800000E2822400E2724D96E010E2820DA6E2D
:1004F800DF503FEC0DF007EC0BF00101686F5F0E69
:1005080001016819D8B487D0DD0E276EFF0E286E5A
:1005180001016851296E2A6A2750292628502A2263
:1005280029502A10D8A434D0010166510101D8B449
:100538002FD001016651010D4A0EF324D96E010E28
:10054800F420DA6E3F0EDF6E01016651070F126E5E
:10055800020EDBEC0CF05F0E3FEC0DF0680E106E37
:10056800010E116E23EC0DF001016651080F126E99
:10057800020EDBEC0CF0200E3FEC0DF00101665191
:10058800070F126E020EDBEC0CF00101660743D078
:10059800DD0E276EFF0E286E01016851296E2A6A4A
:1005A8002750292628502A2229502A10D8B433D077
:1005B8002A0E01016819D8B432D0090E0101661952
:1005C800D8B42DD00101662BFF0E276EFF0E286EC2
:1005D80001016651296E2A6A2750292628502A22A5
:1005E8004A0E2924D96E010E2A20DA6E68C1DFFF6F
:1005F80001016651070F126E020EDBEC0CF02A0E99
:100608003FEC0DF05F0E3FEC0DF0680E106E010E22
:10061800116E23EC0DF0090E0101666544D7000E3A
:1006280001015B6F000E5A6F35D0FF0E276EFF0E6B
:10063800286E5AC129F05BC12AF0291E2A1E294AB0
:100648002A2A010166512B6E2C6A29502B262A5022
:100658002C2227502B2628502C224A0E2B24D96EC8
:10066800010E2C20DA6E5AC12DF05BC12EF02D1E22
:100678002E1E2D4A2E2A080E2D26000E2E22CA0EB8
:100688002D24E16E000E2E20E26EDFCFE7FF010180
:100698005A4B5B2B01016651276E286A27500101CE
:1006A8005A5D01015B51800A296E2850800A295839
:1006B800D8A0BBD7000E1E6E190E1D6EC0EC09F037
:1006C800010E126E010EDBEC0CF0200E146E7F0E84
:1006D800156E16EC0CF0010E126E020EDBEC0CF02F
:1006E800A90E146E7E0E156E16EC0CF091EC0AF045
:1006F800000E0101596F000E01015D6F000E5C6F65
:1007080001015DBF08D001015D5113E1200E010117
:100718005C5DD8B00ED0200E01015C25D96E010EAB
:1007280001015D21DA6E2D0EDF6E01015C4B5D2B40
:10073800E7D72D0E01012019D8B4FBD72D0E0101E2
:100748003F19D8B4F6D72D0E0101006F20C159F119
:10075800000E0101636F000E626F010163BF08D0D4
:100768000101635121E1100E0101625DD8B01CD076
:10077800010E01016225276E000E01016321286E1A
:10078800200E2724D96E010E2820DA6EBA0E010138
:100798006225E16E000E01016321E26EDFCFE7FF03
:1007A8000101624B632BD9D7A10E01015919D8A4B5
:1007B8003AD0010E126E010EDBEC0CF0CA0E146E6C
:1007C8007F0E156E16EC0CF0000E1E6E640E1D6E7C
:1007D800C0EC09F0010E126E010EDBEC0CF00F0EEE
:1007E800146E7F0E156E16EC0CF0000E0101546F9E
:1007F800000E536F010154BF08D00101545110E19C
:10080800140E0101535DD8B00BD0340E276EF20ED2
:10081800E82EFED7272EFCD70101534B542BEAD7DD
:1008280045EC08F069D0A00E01015919D8A432D0BE
:10083800839E010E126E010EDBEC0CF0B90E146EE5
:100848007F0E156E16EC0CF0010E126E020EDBEC2C
:100858000CF0CB0E146E7E0E156E16EC0CF0000E1E
:100868000101566F000E556F010156BF08D00101F6
:10087800565142E1640E0101555DD8B03DD0340EA9
:10088800276EF20EE82EFED7272EFCD70101554B16
:10089800562BEAD7839E010E126E010EDBEC0CF08C
:1008A800970E146E7F0E156E16EC0CF0010E126E7C
:1008B800020EDBEC0CF0CB0E146E7E0E156E16ECF1
:1008C8000CF0000E0101586F000E576F010158BF60
:1008D80008D00101585110E1640E0101575DD8B0EC
:1008E8000BD0340E276EF20EE82EFED7272EFCD73B
:1008F8000101574B582BEAD70001DD51D8A40CD47D
:100908003DD4AAEC0DF0010E126E010EDBEC0CF0DA
:10091800BA0E146E7E0E156E16EC0CF0000E000169
:10092800756F000E746F000175BF08D00001755116
:1009380012E1140E0001745DD8B00DD0680E236E5C
:10094800E40EE82EFED7232EFCD700F000F00001BD
:10095800744B752BE8D7010E126E020EDBEC0CF00F
:10096800F20E146E7F0E156E16EC0CF0E60E146E79
:100978007F0E156E16EC0CF0000E0001776F000E5E
:10098800766F000177BF08D00001775112E1320E6F
:100998000001765DD8B00DD0680E236EE40EE82E07
:1009A800FED7232EFCD700F000F00001764B772B02
:1009B800E8D7010E126E020EDBEC0CF0DB0E146EA3
:1009C8007F0E156E16EC0CF00001DE51D8B404D081
:1009D8000001DE51F10F01D0000E00018A6F8AC0BC
:1009E80010F0116A000E136E640E126E59EC0BF0C3
:1009F800105000018E6F00018E51640DF31EF41E1D
:100A0800F34AF42A00018A51F324106E000EF420F0
:100A1800116E000E136E0A0E126E59EC0BF0105088
:100A280000018B6F00018B510A0DF3CF23F00001F9
:100A38008E51640DF3502324000800018A2500011B
:100A4800726F00018E51010D920EF324D96E000EC3
:100A5800F420DA6EDF503FEC0DF000018B51010DF0
:100A6800920EF324D96E000EF420DA6EDF503FECBC
:100A78000DF000017251010D920EF324D96E000E93
:100A8800F420DA6EDF503FEC0DF07C0E3FEC0DF0F9
:100A9800DEC010F0116A000E136E100E126E59ECC3
:100AA8000BF02F0E1024D96E000E1120DA6EDF50D5
:100AB8003FEC0DF0DEC010F0116A000E136E100E40
:100AC800126E59EC0BF0103A113AF00E1116105044
:100AD8000F0B1112F00E1016101E111E104A112ABB
:100AE8000001DE51236E246A10502326115024225F
:100AF8002F0E2324D96E000E2420DA6EDF503FEC2F
:100B08000DF0000E0001796F000E786F000179BFBB
:100B180008D00001795112E1280E0001785DD8B0A3
:100B28000DD0680E236EE40EE82EFED7232EFCD7D8
:100B380000F000F00001784B792BE8D7AAEC0DF013
:100B4800010E126E010EDBEC0CF0FE0E146E7E0E22
:100B5800156E16EC0CF0020E1E6EBC0E1D6EC0EC6F
:100B680009F0000E0001906F0001DE51D8A485D273
:100B7800000E0001736F010E126E010EDBEC0CF01B
:100B8800640E146E7F0E156E16EC0CF0010E1E6EC0
:100B98002C0E1D6EC0EC09F0B5C087F0B6C088F009
:100BA800B7C089F065D2010E126E010EDBEC0CF0B5
:100BB800310E146E7F0E156E16EC0CF0010E126ECF
:100BC800020EDBEC0CF0A80E146E7F0E156E16EC00
:100BD8000CF0010E126E020EDBEC0CF05F0E3FEC17
:100BE8000DF081D007EC0BF000018F6F5F0E000154
:100BF8008F19D8B478D0DD0E236EFF0E246E000155
:100C08008F51256E266A23502526245026222550EA
:100C18002610D8A42FD0000190510001D8B42AD0B2
:100C280000019051010D870EF324D96E000EF420B7
:100C3800DA6E000EDF6E90C012F0020EDBEC0CF0E4
:100C48005F0E3FEC0DF08F0E106E000E116E23EC50
:100C58000DF000019029126E020EDBEC0CF0200E54
:100C68003FEC0DF090C012F0020EDBEC0CF000012E
:100C7800900739D0DD0E236EFF0E246E00018F51D0
:100C8800256E266A23502526245026222550261014
:100C9800D8B429D02A0E00018F19D8B428D0030E51
:100CA80000019019D8B423D000019051010D870E8E
:100CB800F324D96E000EF420DA6E8FC0DFFF000136
:100CC800902B90C012F0020EDBEC0CF000018F515B
:100CD8003FEC0DF05F0E3FEC0DF08F0E106E000E26
:100CE800116E23EC0DF0020E000190657BD7000E0B
:100CF8000001916F000E00018D6F000E8C6F0001D6
:100D08008DBF08D000018D511CE1030E00018C5DE0
:100D1800D8B017D0800E00018C25D96E000E0001C6
:100D28008D21DA6E870E00018C25E16E000E000120
:100D38008D21E26EE750D00FDF6E00018C4B8D2BBA
:100D4800DED700018751D00F640DF35000019127C1
:100D580000018851D00F0A0DF350000191270001BE
:100D68008951D00F0001912791C0DFF00F0E0001CB
:100D78009127000180510001D8A408D000018151B9
:100D8800D8A410D000018251D8A40CD0000180054D
:100D9800D8A412D100018151D8A40ED100018251EA
:100DA800D8A40AD191C010F0116A000E136E640E17
:100DB800126E59EC0BF0105000018E6F00018E512D
:100DC800640DF31EF41EF34AF42A00019151F32432
:100DD800106E000EF420116E000E136E0A0E126EC5
:100DE80059EC0BF0105000018B6F00018B510A0D6C
:100DF800F3CF23F000018E51640DF3502324000833
:100E0800000191250001726F91C010F0116A000E67
:100E1800136E100E126E59EC0BF0105000016E6F2D
:100E280091C010F0116A000E136E100E126E59EC7C
:100E38000BF01038F00B00080001912500016F6FCE
:100E4800AAEC0DF0010E126E010EDBEC0CF0310E67
:100E5800146E7F0E156E16EC0CF0010E126E020E5B
:100E6800DBEC0CF0000E0001846F000E836F0001B4
:100E780084BF08D00001845114E1030E0001835D92
:100E8800D8B00FD0870E00018325D96E000E00015F
:100E98008421DA6EDF503FEC0DF00001834B842B88
:100EA800E6D7070E126E020EDBEC0CF0F70E146E8E
:100EB8007F0E156E16EC0CF00E0E126E020EDBECA9
:100EC8000CF0FC0E146E7F0E156E16EC0CF0000183
:100ED8006E51010D2F0EF324D96E000EF420DA6E38
:100EE800DF503FEC0DF000016F51010D2F0EF32480
:100EF800D96E000EF420DA6EDF503FEC0DF0000ED4
:100F080000017B6F000E7A6F00017BBF08D00001E3
:100F18007B5118E1320E00017A5DD8B013D0680E0B
:100F2800236EE40EE82EFED7232EFCD700F000F047
:100F380000017A4B7B2B00017BBFF1D700017B516D
:100F480001E1E8D791C0DEF0DEC010F00001DC510D
:100F580098EC0DF0AAEC0DF0010E126E010EDBEC10
:100F68000CF0860E146E7F0E156E16EC0CF0000E4B
:100F780000017D6F000E7C6F00017DBF08D000016D
:100F88007D5112E10A0E00017C5DD8B00DD0680ECB
:100F9800236EE40EE82EFED7232EFCD700F000F0D7
:100FA80000017C4B7D2BE8D7010E1E6EF40E1D6EE2
:100FB800C0EC09F0FF005CD0000191510001D8A4F9
:100FC80005D0530E0001706F7F0E04D0DC0E0001B7
:100FD800706F7E0E0001716F010E126E020EDBEC57
:100FE8000CF070C014F071C015F016EC0CF0000E87
:100FF80000017F6F000E7E6F00017FBF08D00001E7
:101008007F5112E1320E00017E5DD8B00DD0680E1E
:10101800236EE40EE82EFED7232EFCD700F000F056
:1010280000017E4B7F2BE8D7000E0001866F000E73
:10103800856F000186BF08D00001865113E1030EB9
:101048000001855DD8B00ED0870E00018525D96EC8
:10105800000E00018621DA6E300EDF6E0001854B2E
:10106800862BE7D7000E0001736F000E0001906F0A
:1010780000017305D8B4120096D5010E0001736FF4
:101088001200838E000E00017F6FAAEC0DF0010E96
:10109800126E010EDBEC0CF0010E0001826F000EE7
:1010A8000001836F000E00018D6F000E8C6F000130
:1010B8008DBF08D000018D512AE1090E00018C5D19
:1010C800D8B025D0D30E00018C25D96E000E0001B2
:1010D8008D21DA6E300EDE18D8A405D000018251B9
:1010E8000001D8A410D0000E0001826F0001832BEC
:1010F800D30E00018C25D96E000E00018D21DA6E09
:10110800DF503FEC0DF000018C4B8D2BD0D7000E3B
:101118000001816F000E806F06D0200E3FEC0DF0AD
:101128000001804B812B00018351236E246A231E0A
:10113800241E234A242A0D0E2326000E242223507F
:101148000001805D00018151800A256E2450800ACB
:101158002558D8A0E2D7010E126E020EDBEC0CF077
:10116800000E0001896F000E886F000189BF08D04A
:101178000001895114E1100E0001885DD8B00FD02C
:10118800BA0E00018825D96E000E00018921DA6E99
:10119800DF503FEC0DF00001884B892BE6D70C0E91
:1011A800126E010EDBEC0CF0EC0E146E7F0E156E59
:1011B80016EC0CF0B8C08AF0B9C08BF0000E000134
:1011C800856F000E846F20EEB0F010EE6EF0040E06
:1011D800DBCFE3FFE806FCE2B5D000018A5100014D
:1011E8008B11D8B4B4D0D40E00F000F0E82EFCD7A0
:1011F8000001844B852BE80E0001841904E1030EDD
:1012080000018519D8A49ED000018A07D8A08B07B1
:10121800000E0001856F000E846F20EEA6F010EE20
:1012280075F0090EDBCFE3FFE806FCE28AC010F098
:101238008BC011F00E0E136E100E126E59EC0BF0DF
:1012480010C073F011C074F08AC010F08BC011F098
:101258000E0E136E100E126E4FEC0CF010C08EF0C6
:1012680011C08FF08EC010F08FC011F0000E136EF9
:101278003C0E126E59EC0BF010C086F011C087F0CE
:101288008EC010F08FC011F0000E136E3C0E126E5F
:101298004FEC0CF010C08EF011C08FF00C0E126ED7
:1012A800010EDBEC0CF086C010F087C011F0000EC8
:1012B800136E0A0E126E59EC0BF0750E1024D96ECF
:1012C800000E1120DA6EDF503FEC0DF086C010F0F2
:1012D80087C011F0000E136E0A0E126E4FEC0CF060
:1012E800750E1024D96E000E1120DA6EDF503FEC17
:1012F8000DF03A0E3FEC0DF08EC010F08FC011F0DB
:10130800000E136E0A0E126E59EC0BF0750E1024B7
:10131800D96E000E1120DA6EDF503FEC0DF08EC052
:1013280010F08FC011F0000E136E0A0E126E4FEC03
:101338000CF0750E1024D96E000E1120DA6EDF50F5
:101348003FEC0DF007EC0BF0230AD8A446D7AAEC23
:101358000DF0010E126E010EDBEC0CF0750E146E22
:101368007F0E156E16EC0CF0000E1E6EC80E1D6E6C
:10137800C0EC09F0839E1200010E126E020EDBEC27
:101388000CF0000E136E140E126E1DC01FF01EC05E
:1013980020F0040E216ED89020321F32212EFBD768
:1013A8001FC010F020C011F0B2EC0CF010C017F004
:1013B80011C018F0000E1A6E140E196E85EC0DF09F
:1013C80017C060F018C061F00001626B636B000E1B
:1013D8000001676F000E666F000167BF08D000014B
:1013E800675137E1100E0001665DD8B032D0FF0EAC
:1013F8003FEC0DF0000E0001656F000E646F0ED01B
:10140800680E1F6EE40EE82EFED71F2EFCD700F0E4
:1014180000F0140E00016427000E652364C01FF05D
:1014280065C020F0000E20BEFF0E216E226E000166
:1014380060511F5C00016151205800016251215820
:10144800000163512258D8A0DBD70001664B672BF7
:10145800C3D7010E126E020EDBEC0CF0870E146E71
:101468007E0E156E16EC0CF0000E0001696F000E72
:10147800686F000169BF08D00001695112E1050ECB
:101488000001685DD8B00DD0680E1F6EE40EE82E1E
:10149800FED71F2EFCD700F000F00001684B692B27
:1014A800E8D7010E126E020EDBEC0CF0000E000104
:1014B8006B6F000E6A6F00016BBF08D000016B51A3
:1014C8000CE1100E00016A5DD8B007D0FF0E3FECAA
:1014D8000DF000016A4B6B2BEED7000E00016D6F0B
:1014E800000E6C6F00016DBF08D000016D5112E154
:1014F800050E00016C5DD8B00DD0680E1F6EE40EAD
:10150800E82EFED71F2EFCD700F000F000016C4B30
:101518006D2BE8D7AAEC0DF01200000E216E000E1C
:10152800206E21BE06D0215015E1090E205CD8B0EE
:1015380011D0D30E2024D96E000E2120DA6E000EB1
:101548002024E16E010E2120E26EDFCFE7FF204A62
:10155800212AE7D7000E236E090E226E23BE06D07D
:10156800235021E1120E225CD8B01DD0F70E186E60
:10157800FF0E196E22C01AF023C01BF018501A264D
:1015880019501B22CA0E1A24D96E000E1B20DA6EBF
:10159800000E2224E16E010E2320E26EDFCFE7FF6A
:1015A800224A232ADBD7000E1D6E000E1C6E000E89
:1015B8001F6E000E1E6E1FBE06D01F5013E11F0EB9
:1015C8001E5CD8B00FD0000E1E24D96E010E1F204D
:1015D800DA6EDF50186E18501C26000E1D221E4AA7
:1015E8001F2AE9D71CC010F01DC011F0000E136EA1
:1015F800200E126E59EC0BF010C01CF011C01DF03B
:101608001CC01FF11200780E936E010E816E81AC22
:1016180004D0000E816E2A0E120081A604D0000E9E
:10162800816E310E120081A804D0000E816E340E36
:10163800120081AA04D0000E816E370E1200020E2D
:10164800816E81A604D0000E816E320E120081A830
:1016580004D0000E816E350E120081AA04D0000E4F
:10166800816E380E120081AC04D0000E816E300EEF
:101678001200040E816E81A604D0000E816E330E16
:10168800120081A804D0000E816E360E120081AAC5
:1016980004D0000E816E390E120081AC04D0000E09
:1016A800816E230E12005F0E1200000E156E13AE2F
:1016B80006D0126C131ED8B0132A010E156E11AE87
:1016C80006D0106C111ED8B0112A010E151A000E82
:1016D800176E000E166E12501310D8B41CD0010EDF
:1016E800146E04D0D89012361336142A13AEFAD7D3
:1016F800D890163617361250105C13501158D8A0CF
:1017080005D01250105E1350115A1680D89013321B
:101718001232142EEDD71550D8B404D0166C171EFB
:10172800D8B0172A16C010F017C011F0120000EE3A
:10173800BAF0240EEE6AE806FDE14F6A4E6A060E1C
:10174800F66E1A0EF76E000EF86E01EE00F010EE4F
:1017580040F00900F5CFEEFFE550E150FAE1E20E66
:10176800F66E1A0EF76E000EF86E00EE92F010EE9E
:1017780028F00900F5CFEEFFE550E150FAE1740ECC
:10178800F66E1B0EF76E000EF86E00EE2FF010EEE0
:101798001FF00900F5CFEEFFE550E150FAE1509057
:1017A8005092000EF86E000181EF00F0000E5BEC25
:1017B8000DF0680E126EE40EE82EFED7122EFCD73E
:1017C80000F000F0030ECAEC0DF01A0E126EF80EBF
:1017D800E82EFED7122EFCD700F000F0030ECAEC5C
:1017E8000DF03A0E126E230EE82EFED7122EFCD7FD
:1017F80000F0030ECAEC0DF0020ECAEC0DF0020E5A
:10180800CAEC0DF0080ECAEC0DF0000ECAEC0DF093
:101818000C0ECAEC0DF0000ECAEC0DF0060ECAEC68
:101828000DF01200000E196E000E186E1AD0185026
:101838001424166E19501520176E16C0F6FF17C01F
:10184800F7FFF86A050EF76403D00800F55005D0D5
:10185800F6CFE9FFF7CFEAFFEF503FEC0DF0184A5B
:10186800192A18501424166E19501520176E16C010
:10187800F6FF17C0F7FFF86A050EF76403D00800F3
:10188800F55005D0F6CFE9FFF7CFEAFFEF50000992
:10189800D8B41200CCD7000E156E11AE06D0106C5D
:1018A800111ED8B0112A010E156E13AE04D0126C99
:1018B800131ED8B0132A12501310D8B418D0010E22
:1018C800146E04D0D89012361336142A13AEFAD7F1
:1018D8001250105C13501158D8A004D01250105E4A
:1018E8001350115AD89013321232142EF1D71550C2
:1018F800D8B404D0106C111ED8B0112A10C010F042
:1019080011C011F012000001DC51D6EC0DF00001FD
:10191800DE6F0001DE51F10F0001DF6F600ED36E44
:101928009B9C000E926E010E936E180E946E000E24
:10193800956E000E836E180E8B6E0001DE51020D3F
:10194800F3CFC8FF360EC66E000EC76E010EC56E09
:101958009E969D86F28EF28CF2961200000E166EFE
:10196800000E156E12501310D8B41CD0010E146E50
:1019780004D0D89012361336142A13AEFAD7D8905A
:10198800153616361250105C13501158D8A005D0D1
:101998001250105E1350115A1580D890133212321B
:1019A800142EEDD715C010F016C011F01200136EEA
:1019B8001304D8A410D012507F0F166E16380F0BD0
:1019C800146E16500F0B156E1450CAEC0DF015500E
:1019D800CAEC0DF01200020E1318D8A4120012500F
:1019E800BF0F166E16380F0B146E16500F0B156EB0
:1019F8001450CAEC0DF01550CAEC0DF012002D2D44
:101A08002D2D2D2D2D2D2D2D2D2D2D2D2D2D2D2DFE
:101A18002D2D2D2D2D2D2D2D2D2D2D2D2D2D2D2DEE
:101A28002D2D2D2D2D2D2D2D2D2D2D2D2D2D2D2DDE
:101A38002D2D2D2D2D2D2D2D2D2D2D2D2D2D09D04F
:101A4800680E126EE40EE82EFED7122EFCD700F0B8
:101A580000F010C0D9FF11C0DAFF07EC0BF0136ECD
:101A6800DE501318D8B4ECD710C0D9FF11C0DAFF74
:101A78005F0EDF6E1200136E13500F0B116E1350B2
:101A8800F00B126E838A12380F0B5BEC0DF0838813
:101A9800350EE82EFED700F0839811505BEC0DF060
:101AA8008388350EE82EFED700F083981200106E5A
:101AB80010A002D0838001D0839010A202D083822C
:101AC80001D0839210A402D0838401D0839410A6FD
:101AD80002D08386120083961200303132333435B7
:101AE80036373839303132333435363738393031A2
:101AF800323334353637383930303A3030303030A8
:101B0800080717501902F3CF1BF0F4CF1CF0175039
:101B18001A02F3501C2618501902F3501C261BC039
:101B280017F01CC018F01200116E11C0A9FF10C0E8
:101B3800A8FFA69EA69CA684550EA76EAA0EA76E01
:101B4800A682A1A8FED7A198A6941200000ECAECFE
:101B58000DF0010ECAEC0DF01A0E126EF80EE82EFA
:101B6800FED7122EFCD700F000F0120030313233CD
:101B780034353637383941424344454630313233BB
:0B1B880034353637383930303A303011
:101B9400116E839A11505BEC0DF08388C80E00F02F
:101BA400E82EFDD783981200106E10C0A9FFA69EE0
:0C1BB400A69CA680A6B0FED7A850120088
:107E8600002020202020202020202020202020200C
:107E960020005B205D202020202020202020202084
:107EA600202000526573706F6E73652E2E2E202073
:107EB600202020002020205B2041646974756D20FD
:107EC6005D20202000202020205B205265747279DE
:107ED600205D202020004F7574206F6620626F752C
:107EE6006E647321202000456E74657220796F756B
:107EF600722049443A20200020205B2020416469FA
:107F060074756D20205D2020002020205B205765A1
:107F16006C636F6D65205D20200057616974696E22
:107F2600672053797374656D2020004E6577204D68
:107F3600616368696E652049443A2000456E746540
:107F46007220796F75722050494E3A20004D617942
:107F5600206E6F74206265207A65726F21004C6F07
:107F66006164204932432073657475702E2E004C6F
:107F76006F6767696E6720796F75206F75742E005D
:107F86004932435F414444523E3E454550524F4D6F
:107F9600005B2053797374656D204572726F722091
:107FA6005D00202020202020205B3030312D313014
:107FB600305D005B416363657373202044656E69C1
:107FC60065645D005B416363657373204772616E30
:107FD6007465645D004465766963652049442000E4
:107FE600312E302E300030303A3030005265762057
:097FF600005B4F4B5D00780000B8
:020000040020DA
:08000000FFFFFFFFFFFFFFFF00
:020000040030CA
:0E000000FF08071EFF8981FF0FC00FE00F40B1
:0200000400F00A
:080000001000000000000000E8
:00000001FF
