:040000007FEF00F09E
:100008005082FACF01F0FBCF02F0E9CF03F0EACF3C
:1000180004F0E1CF05F0E2CF06F0D9CF07F0DACF50
:1000280008F0F3CF09F0F4CF0AF0F6CF0BF0F7CFD2
:100038000CF0F8CF0DF0F5CF0EF09EA63ED0C7BA63
:1000480013D0000E4D6EC7B0C9CF0FF0C7A431D082
:10005800C69E4E50010D600EF324D96E000EF4209A
:10006800DA6EDF50C96E24D04D2AC7B0C9CF0FF061
:10007800C7A40ED0C69E4E50010D600EF324D96E53
:10008800000EF420DA6EDF50C96E4E2A8C8C11D027
:100098004D04D8A403D00FC04EF00BD04E50010D24
:1000A800000EF324D96E010EF420DA6E0FC0DFFFC4
:1000B8004E2A1F0E4E169E96C6880EC0F5FF0DC01E
:1000C800F8FF0CC0F7FF0BC0F6FF0AC0F4FF09C029
:1000D800F3FF08C0DAFF07C0D9FF06C0E2FF05C07A
:1000E800E1FF04C0EAFF03C0E9FF02C0FBFF01C053
:1000F800FAFF50921100CEEF0BF0000E0101576F7E
:10010800000E0101566F5F0E0101586F53EC0DF0A0
:1001180055EC0CF0F2EC04F0000E01014F6F000EEC
:100128004E6F01014FBF0CD001014F5107E1200E66
:1001380001014E5DD8B0EBEF04F002D0EBEF04F014
:10014800000E01014E25D96E010E01014F21DA6E14
:100158002D0EDF6E600E01014E25D96E000E0101D5
:100168004F21DA6E2D0EDF6E01014E4B4F2B010130
:100178004FBFE6D701014F5101E1D9D7EBEF04F0AA
:10018800000E0101556F000E546F010155BF08D0D4
:100198000101555127E1090E0101545DD8B022D063
:1001A800D70E01015425D96E000E01015521DA6ED2
:1001B800300EDF6ECE0E01015425D96E000E0101FE
:1001C8005521DA6E300EDF6E3A0E01015425D96ED4
:1001D800010E01015521DA6E300EDF6E0101544B1C
:1001E800552BD3D7000E0101576F010E126E010E69
:1001F8002BEC0DF0FE0E146E7E0E156E91EC0CF0CD
:10020800010E126E020E2BEC0DF0BA0E146E7E0E5D
:10021800156E91EC0CF0010E126E020E2BEC0DF027
:10022800D0D0090E01015719D8B4CFD0020E126EE2
:10023800020E2BEC0DF0010157510001C66FC76B80
:100248000001C61FC71FC64BC72B090E0001C627D2
:10025800000EC723800E0001C625D96E000E0001CE
:10026800C721DA6EDF50B6EC0DF07CEC0BF0010123
:10027800586F5F0E01015819D8B4A3D0DD0E0001E4
:10028800C66FFF0E0001C76F010158510001C86F0A
:10029800C96B0001C6510001C8270001C751000100
:1002A800C9230001C8510001C911D8A434D00101E3
:1002B80057510101D8B42FD001015751010D3A0E01
:1002C800F324D96E010EF420DA6E3F0EDF6E0101C1
:1002D8005751070F126E020E2BEC0DF05F0EB6ECA5
:1002E8000DF0580E106E010E116E9AEC0DF0010112
:1002F8005751080F126E020E2BEC0DF0200EB6ECC3
:100308000DF001015751070F126E020E2BEC0DF084
:100318000101570756D0DD0E0001C66FFF0E000120
:10032800C76F010158510001C86FC96B0001C65160
:100338000001C8270001C7510001C9230001C851A5
:100348000001C911D8B43DD02A0E01015819D8B4FA
:100358003CD0090E01015719D8B437D00101572BE9
:10036800FF0E0001C66FFF0E0001C76F0101575154
:100378000001C86FC96B0001C6510001C827000100
:10038800C7510001C9233A0E0001C825D96E010ED4
:100398000001C921DA6E58C1DFFF01015751070F6B
:1003A800126E020E2BEC0DF001015851B6EC0DF057
:1003B8005F0EB6EC0DF0580E106E010E116E9AEC31
:1003C8000DF0090E010157652CD7000E0101516F80
:1003D800000E506F75D0FF0E0001C66FFF0E0001B2
:1003E800C76F50C1C8F051C1C9F00001C81FC91F6B
:1003F800C84BC92B010157510001CA6FCB6B0001D3
:10040800C8510001CA270001C9510001CB230001CE
:10041800C6510001CA270001C7510001CB233A0E7B
:100428000001CA25D96E010E0001CB21DA6E50C138
:10043800CCF051C1CDF00001CC1FCD1FCC4BCD2B42
:10044800080E0001CC27000ECD23D70E0001CC25C5
:10045800E16E000E0001CD21E26EDFCFE7FFFF0E57
:100468000001C66FFF0E0001C76F50C1C8F051C12F
:10047800C9F00001C81FC91FC84BC92B010157513A
:100488000001CA6FCB6B0001C8510001CA270001E7
:10049800C9510001CB230001C6510001CA27000140
:1004A800C7510001CB233A0E0001CA25D96E010EAF
:1004B8000001CB21DA6E300EDF6E0101504B512B5B
:1004C800010157510001C66FC76B0001C6510101F8
:1004D800505D01015151800A0001C86F0001C751E8
:1004E800800A0001C859D8A076D7000E1E6E190ED2
:1004F8001D6E50EC0AF0000E0101566F010E126ECF
:10050800010E2BEC0DF0420E146E7F0E156E91EC61
:100518000CF0010E126E020E2BEC0DF0BA0E146EDA
:100528007E0E156E91EC0CF0010E126E020E2BEC85
:100538000DF0D8D0090E01015619D8B4D7D020EE45
:100548008AF011EE30F0090EDBCFE3FFE806FCE29B
:10055800020E126E020E2BEC0DF001015651000135
:10056800C66FC76B0001C61FC71FC64BC72B090E36
:100578000001C627000EC723300E0001C625D96E1C
:10058800010E0001C721DA6EDF50B6EC0DF07CECED
:100598000BF00101586F5F0E01015819D8B4A2D0B1
:1005A800DD0E0001C66FFF0E0001C76F0101585133
:1005B8000001C86FC96B0001C6510001C8270001BE
:1005C800C7510001C9230001C8510001C911D8A4AD
:1005D80034D0010156510101D8B42FD00101565130
:1005E800010D3A0EF324D96E010EF420DA6E3F0E97
:1005F800DF6E01015651070F126E020E2BEC0DF043
:100608005F0EB6EC0DF0580E106E010E116E9AECDE
:100618000DF001015651080F126E020E2BEC0DF071
:10062800200EB6EC0DF001015651070F126E020EA6
:100638002BEC0DF00101560755D0DD0E0001C66FF9
:10064800FF0E0001C76F010158510001C86FC96B47
:100658000001C6510001C8270001C7510001C92384
:100668000001C8510001C911D8B43CD02A0E0101BB
:100678005819D8B43BD0090E01015619D8B436D050
:100688000101562BFF0E0001C66FFF0E0001C76F58
:10069800010156510001C86FC96B0001C651000124
:1006A800C8270001C7510001C9233A0E0001C82517
:1006B800D96E010E0001C921DA6E58C1DFFF0101B0
:1006C8005651070F126E020E2BEC0DF02A0EB6ECE7
:1006D8000DF05F0EB6EC0DF0580E106E010E116E97
:1006E8009AEC0DF0090E0101566524D7000E0101A0
:1006F8004B6F000E4A6F47D0FF0E0001C66FFF0E0A
:100708000001C76F4AC1C8F04BC1C9F00001C81F3A
:10071800C91FC84BC92B010156510001CA6FCB6BC9
:100728000001C8510001CA270001C9510001CB23AB
:100738000001C6510001CA270001C7510001CB239F
:100748003A0E0001CA25D96E010E0001CB21DA6EDE
:100758004AC1CCF04BC1CDF00001CC1FCD1FCC4B12
:10076800CD2B080E0001CC27000ECD23CE0E0001A4
:10077800CC25E16E000E0001CD21E26EDFCFE7FF50
:1007880001014A4B4B2B010156510001C66FC76B43
:100798000001C65101014A5D01014B51800A000167
:1007A800C86F0001C751800A0001C859D8A0A4D752
:1007B800000E1E6E190E1D6E50EC0AF006EC0BF0C2
:1007C8002D0E0101006F2D0E01010019D8B4FBD7C1
:1007D800000E01014D6F000E4C6F01014DBF08D096
:1007E80001014D5119E1200E01014C5DD8B014D022
:1007F800600E01014C25D96E000E01014D21DA6E03
:100808002D0EDF6E01014C4B4D2B01014DBFF0D772
:1008180001014D5101E1E7D700C143F1A10E0101EA
:100828004319D8A46BD0000E0101536F000E526F0C
:10083800010153BF08D00101535125E1100E0101F8
:10084800525DD8B020D0010E010152250001C66FBB
:10085800000E010153210001C76F000E0001C625DB
:10086800D96E010E0001C721DA6E590E0101522519
:10087800E16E010E01015321E26EDFCFE7FF0101B6
:10088800524B532BD5D7010E126E010E2BEC0DF0E7
:10089800CA0E146E7F0E156E91EC0CF0000E1E6ED3
:1008A800640E1D6E50EC0AF0010E126E020E2BEC57
:1008B8000DF0200E146E7F0E156E91EC0CF0000EEC
:1008C8000101456F000E446F010145BF08D00101C9
:1008D800455111E11E0E0101445DD8B00CD0340E13
:1008E8000001C66FF20EE82EFED7C62FFCD7010115
:1008F800444B452BE9D7D1EC08F069D0A00E010193
:100908004319D8A432D0010E126E010E2BEC0DF053
:10091800B90E146E7F0E156E91EC0CF0010E126E6E
:10092800020E2BEC0DF0DC0E146E7E0E156E91ECA3
:100938000CF0000E0101476F000E466F010147BF22
:1009480008D00101475143E1640E0101465DD8B06A
:100958003ED0340E0001C66FF20EE82EFED7C62F29
:10096800FCD70101464B472BE9D7010E126E010E49
:100978002BEC0DF0970E146E7F0E156E91EC0CF0AB
:10098800010E126E020E2BEC0DF0DC0E146E7E0EB4
:10099800156E91EC0CF0000E0101496F000E486FC6
:1009A800010149BF08D00101495111E1640E01015B
:1009B800485DD8B00CD0340E0001C66FF20EE82E98
:1009C800FED7C62FFCD70101484B492BE9D70001B8
:1009D800E151D8A490EF00F0C4EF00F025EC0EF040
:1009E800010E126E010E2BEC0DF0CB0E146E7E0E66
:1009F800156E91EC0CF0000E0001A96F000EA86FA7
:100A08000001A9BF08D00001A95113E1140E00018B
:100A1800A85DD8B00ED0680E00019E6FE40EE82ED7
:100A2800FED79E2FFCD700F000F00001A84BA92BA1
:100A3800E7D7010E126E020E2BEC0DF0F20E146EBB
:100A48007F0E156E91EC0CF0E60E146E7F0E156E8F
:100A580091EC0CF0000E0001AB6F000EAA6F0001C4
:100A6800ABBF08D00001AB5113E1320E0001AA5D03
:100A7800D8B00ED0680E00019E6FE40EE82EFED7A7
:100A88009E2FFCD700F000F00001AA4BAB2BE7D754
:100A9800010E126E020E2BEC0DF0DB0E146E7F0EA3
:100AA800156E91EC0CF00001E251D8B404D00001AD
:100AB800E251F10F01D0000E0001BE6FBEC010F070
:100AC800116A000E136E640E126E13EC0CF01050C7
:100AD8000001C26F0001C251640DF31EF41EF34AF7
:100AE800F42A0001BE51F324106E000EF420116E9A
:100AF800000E136E0A0E126E13EC0CF0105000016B
:100B0800BF6F0001BF510A0DF3CF9EF00001C25123
:100B1800640DF35000019E2500080001BE25000168
:100B2800A66F0001C251010D800EF324D96E000E8C
:100B3800F420DA6EDF50B6EC0DF00001BF51010D64
:100B4800800EF324D96E000EF420DA6EDF50B6EC76
:100B58000DF00001A651010D800EF324D96E000E90
:100B6800F420DA6EDF50B6EC0DF07C0EB6EC0DF02A
:100B7800E2C010F0116A000E136E100E126E13EC24
:100B88000CF0200E1024D96E010E1120DA6EDF5001
:100B9800B6EC0DF0E2C010F0116A000E136E100EE4
:100BA800126E13EC0CF0103A113AF00E11161050A8
:100BB8000F0B1112F00E1016101E111E104A112ADA
:100BC8000001E25100019E6F9F6B105000019E27AB
:100BD800115000019F23200E00019E25D96E010EA1
:100BE80000019F21DA6EDF50B6EC0DF0000E000117
:100BF800AD6F000EAC6F0001ADBF08D00001AD5164
:100C080013E1280E0001AC5DD8B00ED0680E0001CB
:100C18009E6FE40EE82EFED79E2FFCD700F000F062
:100C28000001AC4BAD2BE7D725EC0EF0010E126E90
:100C3800010E2BEC0DF00F0E146E7F0E156E91EC5D
:100C48000CF0020E1E6EBC0E1D6E50EC0AF0000E6B
:100C58000001C46F0001E251D8A49BD2000E00012C
:100C6800A76F010E126E010E2BEC0DF0640E146EC0
:100C78007F0E156E91EC0CF0010E1E6E2C0E1D6E83
:100C880050EC0AF099C0BBF09AC0BCF09BC0BDF014
:100C98007BD2010E126E010E2BEC0DF0310E146E8C
:100CA8007F0E156E91EC0CF0010E126E020E2BECFD
:100CB8000DF0A80E146E7F0E156E91EC0CF0010E5F
:100CC800126E020E2BEC0DF05F0EB6EC0DF093D009
:100CD8007CEC0BF00001C36F5F0E0001C319D8B4A0
:100CE8008AD0DD0E00019E6FFF0E00019F6F00018C
:100CF800C3510001A06FA16B00019E510001A02704
:100D080000019F510001A1230001A0510001A11180
:100D1800D8A42FD00001C4510001D8B42AD00001B2
:100D2800C451010DBB0EF324D96E000EF420DA6E07
:100D3800000EDF6EC4C012F0020E2BEC0DF05F0E39
:100D4800B6EC0DF0C30E106E000E116E9AEC0DF09D
:100D58000001C429126E020E2BEC0DF0200EB6EC29
:100D68000DF0C4C012F0020E2BEC0DF00001C40708
:100D780042D0DD0E00019E6FFF0E00019F6F000143
:100D8800C3510001A06FA16B00019E510001A02773
:100D980000019F510001A1230001A0510001A111F0
:100DA800D8B429D02A0E0001C319D8B428D0030E0C
:100DB8000001C419D8B423D00001C451010DBB0EE1
:100DC800F324D96E000EF420DA6EC3C0DFFF0001F1
:100DD800C42BC4C012F0020E2BEC0DF00001C3515D
:100DE800B6EC0DF05F0EB6EC0DF0C30E106E000EF3
:100DF800116E9AEC0DF0020E0001C46569D7000E61
:100E08000001C56F000E0001C16F000EC06F000128
:100E1800C1BF08D00001C1511CE1030E0001C05D33
:100E2800D8B017D0B40E0001C025D96E000E00014D
:100E3800C121DA6EBB0E0001C025E16E000E000173
:100E4800C121E26EE750D00FDF6E0001C04BC12B0D
:100E5800DED70001BB51D00F640DF3500001C52748
:100E68000001BC51D00F0A0DF3500001C527000145
:100E7800BD51D00F0001C527C5C04FF00F0E0001AE
:100E8800C5270001B4510001D8A408D00001B5510C
:100E9800D8A410D00001B651D8A40CD00001B405D4
:100EA800D8A415D10001B551D8A411D10001B6516B
:100EB800D8A40DD1C5C010F0116A000E136E640ECF
:100EC800126E13EC0CF010500001C26F0001C251F9
:100ED800640DF31EF41EF34AF42A0001C551F324ED
:100EE800106E000EF420116E000E136E0A0E126EB4
:100EF80013EC0CF010500001BF6F0001BF510A0D38
:100F0800F3CF9EF00001C251640DF35000019E25FD
:100F180000080001C5250001A66FC5C010F0116AC0
:100F2800000E136E100E126E13EC0CF01050000130
:100F3800A26FC5C010F0116A000E136E100E126E6B
:100F480013EC0CF01038F00B00080001C525000167
:100F5800A36F25EC0EF0010E126E010E2BEC0DF0B6
:100F6800310E146E7F0E156E91EC0CF0010E126EA0
:100F7800020E2BEC0DF0000E0001B86F000EB76FDB
:100F88000001B8BF08D00001B85114E1030E0001F8
:100F9800B75DD8B00FD0BB0E0001B725D96E000ED3
:100FA8000001B821DA6EDF50B6EC0DF00001B74B46
:100FB800B82BE6D7070E126E020E2BEC0DF0F70ECB
:100FC800146E7F0E156E91EC0CF00E0E126E020E62
:100FD8002BEC0DF0FC0E146E7F0E156E91EC0CF0E0
:100FE8000001A251010D200EF324D96E010EF42048
:100FF800DA6EDF50B6EC0DF00001A351010D200EA2
:10100800F324D96E010EF420DA6EDF50B6EC0DF041
:10101800000E0001AF6F000EAE6F0001AFBF08D029
:101028000001AF5119E1320E0001AE5DD8B014D005
:10103800680E00019E6FE40EE82EFED79E2FFCD7A7
:1010480000F000F00001AE4BAF2B0001AFBFF0D7AE
:101058000001AF5101E1E7D7C5C0E2F0E2C010F0EE
:101068000001E05113EC0EF025EC0EF0010E126EAB
:10107800010E2BEC0DF0860E146E7F0E156E91ECA2
:101088000CF0000E0001B16F000EB06F0001B1BF8F
:1010980008D00001B15113E10A0E0001B05DD8B0CB
:1010A8000ED0680E00019E6FE40EE82EFED79E2F2C
:1010B800FCD700F000F00001B04BB12BE7D7010ED0
:1010C8001E6EF40E1D6E50EC0AF0FF005DD000019C
:1010D800C5510001D8A405D0530E0001A46F7F0E9E
:1010E80004D0ED0E0001A46F7E0E0001A56F010E65
:1010F800126E020E2BEC0DF0A4C014F0A5C015F072
:1011080091EC0CF0000E0001B36F000EB26F0001FD
:10111800B3BF08D00001B35113E1320E0001B25D34
:10112800D8B00ED0680E00019E6FE40EE82EFED7F0
:101138009E2FFCD700F000F00001B24BB32BE7D78D
:10114800000E0001BA6F000EB96F0001BABF08D0D7
:101158000001BA5113E1030E0001B95DD8B00ED0F9
:10116800BB0E0001B925D96E000E0001BA21DA6E56
:10117800300EDF6E0001B94BBA2BE7D7000E000125
:10118800A76F000E0001C46F0001A705D8B41200B4
:1011980080D5010E0001A76F1200000E0001AF6F8D
:1011A80025EC0EF0010E126E010E2BEC0DF0010E67
:1011B8000001B26F000E0001B36F000E0001BD6F99
:1011C800000EBC6F0001BDBF08D00001BD512AE16F
:1011D800090E0001BC5DD8B025D0D70E0001BC2592
:1011E800D96E000E0001BD21DA6E300EDE18D8A4CB
:1011F80005D00001B2510001D8A410D0000E0001A2
:10120800B26F0001B32BD70E0001BC25D96E000EBA
:101218000001BD21DA6EDF50B6EC0DF00001BC4BC9
:10122800BD2BD0D7000E0001B16F000EB06F06D0F5
:10123800200EB6EC0DF00001B04BB12B0001B351FC
:10124800316E326A311E321E314A322A0D0E312673
:10125800000E322231500001B05D0001B151800A08
:10126800336E3250800A3358D8A0E2D7010E126E7E
:10127800020E2BEC0DF0000E0001B96F000EB86FD6
:101288000001B9BF08D00001B95114E1100E0001E6
:10129800B85DD8B00FD0590E0001B825D96E010E2F
:1012A8000001B921DA6EDF50B6EC0DF00001B84B41
:1012B800B92BE6D70C0E126E010E2BEC0DF0EC0ECE
:1012C800146E7F0E156E91EC0CF09CC0BAF09DC0A8
:1012D800BBF0000E0001B56F000EB46F20EE94F065
:1012E80010EE9EF0040EDBCFE3FFE806FCE2BBD075
:1012F8000001BA510001BB11D8B4BAD0FC0E00F0FD
:1013080000F000F000F0E82EFAD700F000F000F04E
:1013180000F00001B44BB52BE80E0001B41904E14C
:10132800030E0001B519D8A49ED00001BA07D8A0B1
:10133800BB07000E0001B56F000EB46F20EE3EF043
:1013480010EEA5F0090EDBCFE3FFE806FCE2BAC019
:1013580010F0BBC011F00E0E136E100E126E13ECCF
:101368000CF010C0A3F011C0A4F0BAC010F0BBC0BC
:1013780011F00E0E136E100E126ECAEC0CF010C0A7
:10138800BEF011C0BFF0BEC010F0BFC011F0000E1B
:10139800136E3C0E126E13EC0CF010C0B6F011C0B8
:1013A800B7F0BEC010F0BFC011F0000E136E3C0EB7
:1013B800126ECAEC0CF010C0BEF011C0BFF00C0EDB
:1013C800126E010E2BEC0DF0B6C010F0B7C011F084
:1013D800000E136E0A0E126E13EC0CF0A50E1024FC
:1013E800D96E000E1120DA6EDF50B6EC0DF0B6C0E3
:1013F80010F0B7C011F0000E136E0A0E126ECAEC90
:101408000CF0A50E1024D96E000E1120DA6EDF50F4
:10141800B6EC0DF03A0EB6EC0DF0BEC010F0BFC041
:1014280011F0000E136E0A0E126E13EC0CF0A50EDE
:101438001024D96E000E1120DA6EDF50B6EC0DF0D4
:10144800BEC010F0BFC011F0000E136E0A0E126E6F
:10145800CAEC0CF0A50E1024D96E000E1120DA6E1D
:10146800DF50B6EC0DF07CEC0BF0230AD8A440D783
:1014780025EC0EF0010E126E010E2BEC0DF0750E20
:10148800146E7F0E156E91EC0CF0000E1E6EC80ED9
:101498001D6E50EC0AF01200010E126E020E2BECBB
:1014A8000DF0000E136E140E126E1DC01FF01EC03C
:1014B80020F0040E216ED89020321F32212EFBD747
:1014C8001FC010F020C011F002EC0DF010C017F092
:1014D80011C018F0000E1A6E140E196E00EC0EF002
:1014E80017C023F018C024F0256A266A000E2A6E59
:1014F800000E296E2ABE06D02A502FE1100E295C54
:10150800D8B02BD0FF0EB6EC0DF0000E286E000EF2
:10151800276E0DD0680E1F6EE40EE82EFED71F2E24
:10152800FCD700F000F0140E2726000E282227C052
:101538001FF028C020F0000E20BEFF0E216E226E84
:1015480023501F5C245020582550215826502258DB
:10155800D8A0E0D7294A2A2ACDD7010E126E020E4A
:101568002BEC0DF0A90E146E7E0E156E91EC0CF09E
:10157800000E2C6E000E2B6E2CBE06D02C5010E1E7
:10158800050E2B5CD8B00CD0680E1F6EE40EE82E4A
:10159800FED71F2EFCD700F000F02B4A2C2AECD7E0
:1015A800010E126E020E2BEC0DF0000E2E6E000EC8
:1015B8002D6E2EBE06D02E500AE1100E2D5CD8B02E
:1015C80006D0FF0EB6EC0DF02D4A2E2AF2D7000EEB
:1015D800306E000E2F6E30BE06D0305010E1050E72
:1015E8002F5CD8B00CD0680E1F6EE40EE82EFED724
:1015F8001F2EFCD700F000F02F4A302AECD725EC3C
:101608000EF01200000E216E000E206E21BE06D0D4
:10161800215015E1090E205CD8B011D0D70E202436
:10162800D96E000E2120DA6E600E2024E16E000EC5
:101638002120E26EDFCFE7FF204A212AE7D7000EFC
:10164800236E090E226E23BE06D0235021E1120E0E
:10165800225CD8B01DD0F70E186EFF0E196E22C08E
:101668001AF023C01BF018501A2619501B22CE0E50
:101678001A24D96E000E1B20DA6E600E2224E16E49
:10168800000E2320E26EDFCFE7FF224A232ADBD7B2
:10169800000E1D6E000E1C6E000E1F6E000E1E6EDC
:1016A8001FBE06D01F5013E11F0E1E5CD8B00FD00E
:1016B800600E1E24D96E000E1F20DA6EDF50186EE1
:1016C80018501C26000E1D221E4A1F2AE9D71CC0CE
:1016D80010F01DC011F0000E136E200E126E13ECE8
:1016E8000CF010C01CF011C01DF01CC07FF01200DF
:1016F800780E936E010E816E81AC04D0000E816E5F
:101708002A0E120081A604D0000E816E310E12003E
:1017180081A804D0000E816E340E120081AA04D074
:10172800000E816E370E1200020E816E81A604D063
:10173800000E816E320E120081A804D0000E816E58
:10174800350E120081AA04D0000E816E380E1200E8
:1017580081AC04D0000E816E300E1200040E816E32
:1017680081A604D0000E816E330E120081A804D029
:10177800000E816E360E120081AA04D0000E816E12
:10178800390E120081AC04D0000E816E230E1200B7
:101798005F0E120001EE59F0100EEE6AE806FDE148
:1017A80000EECEF0140EEE6AE806FDE14E6A4D6AD0
:1017B800A40EF66E1B0EF76E000EF86E01EE00F02A
:1017C80010EE30F00900F5CFEEFFE550E150FAE1F8
:1017D800F60EF66E1A0EF76E000EF86E00EE60F05A
:1017E80010EE3EF00900F5CFEEFFE550E150FAE1CA
:1017F8006A0EF66E1C0EF76E000EF86E00EE34F0F0
:1018080010EE19F00900F5CFEEFFE550E150FAE1CE
:1018180050905092000EF86E000181EF00F0000E1B
:10182800156E13AE06D0126C131ED8B0132A010E13
:10183800156E11AE06D0106C111ED8B0112A010E0B
:10184800151A000E176E000E166E12501310D8B42B
:101858001CD0010E146E04D0D89012361336142AF8
:1018680013AEFAD7D890163617361250105C1350AC
:101878001158D8A005D01250105E1350115A168076
:10188800D89013321232142EEDD71550D8B404D094
:10189800166C171ED8B0172A16C010F017C011F012
:1018A8001200000EEAEC0DF0680E126EE40EE82E3F
:1018B800FED7122EFCD700F000F0030E42EC0EF01B
:1018C8001A0E126EF80EE82EFED7122EFCD700F074
:1018D80000F0030E42EC0EF03A0E126E230EE82EC4
:1018E800FED7122EFCD700F0030E42EC0EF0020ECB
:1018F80042EC0EF0020E42EC0EF0080E42EC0EF036
:10190800000E42EC0EF00C0E42EC0EF0000E42EC13
:101918000EF0060E42EC0EF01200000E196E000ECC
:10192800186E1AD018501424166E19501520176EF8
:1019380016C0F6FF17C0F7FFF86A050EF76403D064
:101948000800F55005D0F6CFE9FFF7CFEAFFEF50D2
:10195800B6EC0DF0184A192A18501424166E1950AE
:101968001520176E16C0F6FF17C0F7FFF86A050EA8
:10197800F76403D00800F55005D0F6CFE9FFF7CF9C
:10198800EAFFEF500009D8B41200CCD7000E156E4C
:1019980011AE06D0106C111ED8B0112A010E156EAA
:1019A80013AE04D0126C131ED8B0132A12501310A1
:1019B800D8B418D0010E146E04D0D890123613364D
:1019C800142A13AEFAD71250105C13501158D8A02D
:1019D80004D01250105E1350115AD890133212329C
:1019E800142EF1D71550D8B404D0106C111ED8B0ED
:1019F800112A10C010F011C011F01200000E166E5E
:101A0800000E156E12501310D8B41CD0010E146EAF
:101A180004D0D89012361336142A13AEFAD7D890B9
:101A2800153616361250105C13501158D8A005D030
:101A38001250105E1350115A1580D890133212327A
:101A4800142EEDD715C010F016C011F01200136E49
:101A58001304D8A410D012507F0F166E16380F0B2F
:101A6800146E16500F0B156E145042EC0EF01550F4
:101A780042EC0EF01200020E1318D8A412001250F5
:101A8800BF0F166E16380F0B146E16500F0B156E0F
:101A9800145042EC0EF0155042EC0EF0120000010A
:101AA800E0514EEC0EF00001E26F0001E251F10F3F
:101AB8004F6E600ED36E9B9C000E926E010E936E5D
:101AC800180E946E000E956E180E8B6E0001E25182
:101AD800020DF3CFC8FF360EC66E000EC76E010E9C
:101AE800C56E9E969D86F28EF28CF29612002D2D72
:101AF8002D2D2D2D2D2D2D2D2D2D2D2D2D2D2D2D0E
:101B08002D2D2D2D2D2D2D2D2D2D2D2D2D2D3031F6
:101B18003233343536373839303132333435363775
:101B2800383930303A3030303030080709D0680E54
:101B3800126EE40EE82EFED7122EFCD700F000F04D
:101B480010C0D9FF11C0DAFF7CEC0BF0136EDE5029
:101B58001318D8B4ECD710C0D9FF11C0DAFF5F0E44
:101B6800DF6E1200136E13500F0B116E1350F00B33
:101B7800126E838A12380F0BEAEC0DF08388350E4B
:101B8800E82EFED700F083981150EAEC0DF0838818
:101B9800350EE82EFED700F0839812002D2D2D2D3E
:101BA8002D2D2D2D2D2D2D2D2D2D2D2D2D2D2D2D5D
:101BB8002D2D2D2D2D2D2D2D2D2D2D2D303132333B
:101BC800343536373839414243444546106E10A003
:101BD80002D0838001D0839010A202D0838201D0EA
:101BE800839210A402D0838401D0839410A602D0DB
:101BF800838612008396120017501902F3CF1BF048
:101C0800F4CF1CF017501A02F3501C261850190272
:101C1800F3501C261BC017F01CC018F01200116EE0
:101C280011C0A9FF10C0A8FFA69EA69CA684550EA9
:101C3800A76EAA0EA76EA682A1A8FED7A198A69401
:101C48001200000E42EC0EF0010E42EC0EF01A0EDD
:101C5800126EF80EE82EFED7122EFCD700F000F018
:101C68001200303132333435363738393031323387
:0B1C780034353637383930303A303020
:101C8400116E839A1150EAEC0DF08388C80E00F0AF
:101C9400E82EFDD783981200106E10C0A9FFA69EEF
:0C1CA400A69CA680A6B0FED7A850120097
:107EA80000202020202020202020202020202020EA
:107EB80020005B205D202020202020202020202062
:107EC8002020002020205B2041646974756D205DAE
:107ED80020202000202020205B2052657472792009
:107EE8005D202020004F7574206F6620626F756ECC
:107EF800647321202000456E74657220796F757255
:107F08002049443A20200020205B202041646974E5
:107F1800756D20205D2020002020205B2057656C97
:107F2800636F6D65205D2020004E6577204D61638D
:107F380068696E652049443A2000456E7465722070
:107F4800796F75722050494E3A20004D6179206E44
:107F58006F74206265207A65726F21004C6F6164CE
:107F6800204932432073657475702E2E004C6F675C
:107F780067696E6720796F75206F75742E004932B6
:107F8800435F414444523E3E454550524F4D005B8D
:107F98002053797374656D204572726F72205D008D
:107FA800202020202020205B3030312D3130305DE2
:107FB800005B416363657373202044656E69656483
:107FC8005D005B416363657373204772616E74651E
:107FD800645D004465766963652049442000312E5C
:107FE800302E300030303A30300052657620005B59
:077FF8004F4B5D0078000013
:020000040020DA
:08000000FFFFFFFFFFFFFFFF00
:020000040030CA
:0E000000FF08071EFF8981FF0FC00FE00F40B1
:0200000400F00A
:080000001000000000000000E8
:00000001FF
