:040000007FEF00F09E
:100008005082FACF01F0FBCF02F0E9CF03F0EACF3C
:1000180004F0E1CF05F0E2CF06F0D9CF07F0DACF50
:1000280008F0F3CF09F0F4CF0AF0F6CF0BF0F7CFD2
:100038000CF0F8CF0DF0F5CF0EF09EA63ED0C7BA63
:1000480013D0000E4E6EC7B0C9CF0FF0C7A431D081
:10005800C69E4F50010D600EF324D96E000EF42099
:10006800DA6EDF50C96E24D04E2AC7B0C9CF0FF060
:10007800C7A40ED0C69E4F50010D600EF324D96E52
:10008800000EF420DA6EDF50C96E4F2A8C8C11D026
:100098004E04D8A403D00FC04FF00BD04F50010D21
:1000A800000EF324D96E010EF420DA6E0FC0DFFFC4
:1000B8004F2A1F0E4F169E96C6880EC0F5FF0DC01C
:1000C800F8FF0CC0F7FF0BC0F6FF0AC0F4FF09C029
:1000D800F3FF08C0DAFF07C0D9FF06C0E2FF05C07A
:1000E800E1FF04C0EAFF03C0E9FF02C0FBFF01C053
:1000F800FAFF50921100C6EF0BF0000E0101636F7A
:10010800000E0101626F5F0E0101646F23EC0DF0B8
:100118004DEC0CF00FEC05F0000E01015B6F000ECA
:100128005A6F01015BBF0CD001015B5107E1200E42
:1001380001015A5DD8B008EF05F002D008EF05F0CC
:10014800000E01015A25D96E010E01015B21DA6EFC
:100158002D0EDF6E600E01015A25D96E000E0101C9
:100168005B21DA6E2D0EDF6E01015A4B5B2B01010C
:100178005BBFE6D701015B5101E1D9D708EF05F074
:10018800000E0101616F000E606F010161BF08D0B0
:100198000101615127E1090E0101605DD8B022D04B
:1001A800C90E01016025D96E000E01016121DA6EC8
:1001B800300EDF6EC00E01016025D96E000E010100
:1001C8006121DA6E300EDF6E440E01016025D96EB2
:1001D800010E01016121DA6E300EDF6E0101604B04
:1001E800612BD3D7000E0101636F010E126E010E51
:1001F8004CEC0DF0FE0E146E7E0E156E89EC0CF0B4
:10020800010E126E020E4CEC0DF0BA0E146E7E0E3C
:10021800156E89EC0CF0010E126E020E4CEC0DF00E
:10022800D0D0090E01016319D8B4CFD0020E126ED6
:10023800020E4CEC0DF0010163510001B86FB96B6F
:100248000001B81FB91FB84BB92B090E0001B82718
:10025800000EB923800E0001B825D96E000E0001EA
:10026800B921DA6EDF50ADEC0DF074EC0BF0010142
:10027800646F5F0E01016419D8B4A3D0DD0E0001CC
:10028800B86FFF0E0001B96F010164510001BA6F28
:10029800BB6B0001B8510001BA270001B951000138
:1002A800BB230001BA510001BB11D8A434D001010D
:1002B80063510101D8B42FD001016351010D440EDF
:1002C800F324D96E010EF420DA6E3F0EDF6E0101C1
:1002D8006351070F126E020E4CEC0DF05F0EADEC81
:1002E8000DF0640E106E010E116E91EC0DF001010F
:1002F8006351080F126E020E4CEC0DF0200EADEC9F
:100308000DF001016351070F126E020E4CEC0DF057
:100318000101630756D0DD0E0001B86FFF0E000122
:10032800B96F010164510001BA6FBB6B0001B8518C
:100338000001BA270001B9510001BB230001BA51DD
:100348000001BB11D8B43DD02A0E01016419D8B4FC
:100358003CD0090E01016319D8B437D00101632BD1
:10036800FF0E0001B86FFF0E0001B96F0101635164
:100378000001BA6FBB6B0001B8510001BA27000138
:10038800B9510001BB23440E0001BA25D96E010EF4
:100398000001BB21DA6E64C1DFFF01016351070F61
:1003A800126E020E4CEC0DF001016451ADEC0DF033
:1003B8005F0EADEC0DF0640E106E010E116E91EC37
:1003C8000DF0090E010163652CD7000E01015D6F68
:1003D800000E5C6F75D0FF0E0001B86FFF0E0001B4
:1003E800B96F5CC1BAF05DC1BBF00001BA1FBB1F99
:1003F800BA4BBB2B010163510001BC6FBD6B0001FF
:10040800BA510001BC270001BB510001BD23000106
:10041800B8510001BC270001B9510001BD23440EA9
:100428000001BC25D96E010E0001BD21DA6E5CC148
:10043800BEF05DC1BFF00001BE1FBF1FBE4BBF2B8A
:10044800080E0001BE27000EBF23C90E0001BE25FD
:10045800E16E000E0001BF21E26EDFCFE7FFFF0E65
:100468000001B86FFF0E0001B96F5CC1BAF05DC141
:10047800BBF00001BA1FBB1FBA4BBB2B0101635174
:100488000001BC6FBD6B0001BA510001BC2700011F
:10049800BB510001BD230001B8510001BC27000178
:1004A800B9510001BD23440E0001BC25D96E010ECF
:1004B8000001BD21DA6E300EDF6E01015C4B5D2B51
:1004C800010163510001B86FB96B0001B851010116
:1004D8005C5D01015D51800A0001BA6F0001B951EC
:1004E800800A0001BA59D8A076D7000E1E6E190EE0
:1004F8001D6E48EC0AF0000E0101626F010E126ECB
:10050800010E4CEC0DF0420E146E7F0E156E89EC48
:100518000CF0010E126E020E4CEC0DF0BA0E146EB9
:100528007E0E156E89EC0CF0010E126E020E4CEC6C
:100538000DF0D8D0090E01016219D8B4D7D020EE39
:1005480035F011EE3AF0090EDBCFE3FFE806FCE2E6
:10055800020E126E020E4CEC0DF001016251000108
:10056800B86FB96B0001B81FB91FB84BB92B090E8A
:100578000001B827000EB9233A0E0001B825D96E3C
:10058800010E0001B921DA6EDF50ADEC0DF074EC0C
:100598000BF00101646F5F0E01016419D8B4A2D099
:1005A800DD0E0001B86FFF0E0001B96F0101645143
:1005B8000001BA6FBB6B0001B8510001BA270001F6
:1005C800B9510001BB230001BA510001BB11D8A4E5
:1005D80034D0010162510101D8B42FD00101625118
:1005E800010D440EF324D96E010EF420DA6E3F0E8D
:1005F800DF6E01016251070F126E020E4CEC0DF016
:100608005F0EADEC0DF0640E106E010E116E91ECE4
:100618000DF001016251080F126E020E4CEC0DF044
:10062800200EADEC0DF001016251070F126E020EA3
:100638004CEC0DF00101620755D0DD0E0001B86FDA
:10064800FF0E0001B96F010164510001BA6FBB6B65
:100658000001B8510001BA270001B9510001BB23BC
:100668000001BA510001BB11D8B43CD02A0E0101D7
:100678006419D8B43BD0090E01016219D8B436D038
:100688000101622BFF0E0001B86FFF0E0001B96F68
:10069800010162510001BA6FBB6B0001B851000142
:1006A800BA270001B9510001BB23440E0001BA2545
:1006B800D96E010E0001BB21DA6E64C1DFFF0101B2
:1006C8006251070F126E020E4CEC0DF02A0EADECC3
:1006D8000DF05F0EADEC0DF0640E106E010E116E94
:1006E80091EC0DF0090E0101626524D7000E01019D
:1006F800556F000E546F47D0FF0E0001B86FFF0E04
:100708000001B96F54C1BAF055C1BBF00001BA1F5E
:10071800BB1FBA4BBB2B010162510001BC6FBD6B03
:100728000001BA510001BC270001BB510001BD23E3
:100738000001B8510001BC270001B9510001BD23D7
:10074800440E0001BC25D96E010E0001BD21DA6EF0
:1007580054C1BEF055C1BFF00001BE1FBF1FBE4B44
:10076800BF2B080E0001BE27000EBF23C00E0001DC
:10077800BE25E16E000E0001BF21E26EDFCFE7FF6C
:100788000101544B552B010162510001B86FB96B3F
:100798000001B8510101545D01015551800A000161
:1007A800BA6F0001B951800A0001BA59D8A0A4D77C
:1007B800000E1E6E190E1D6E48EC0AF0FEEC0AF0D3
:1007C800000E0101536F000E0101576F000E566FA6
:1007D800010157BF08D00101575145E1200E010121
:1007E800565DD8B040D0000E01015625D96E010ED5
:1007F80001015721DA6E2D0EDF6E0101564B572B82
:10080800E7D700C153F1000E01015F6F000E5E6F64
:1008180001015FBF08D001015F5125E1100E010100
:100828005E5DD8B020D0010E01015E250001B86FD1
:10083800000E01015F210001B96F000E0001B8250B
:10084800D96E010E0001B921DA6E650E01015E252F
:10085800E16E010E01015F21E26EDFCFE7FF0101CA
:100868005E4B5F2BD5D72D0E01010019D8B4C9D71F
:100878002D0E01011F19D8B4C4D7000E0101596FFC
:10088800000E586F010159BF08D00101595113E1F9
:10089800200E0101585DD8B00ED0600E0101582518
:1008A800D96E000E01015921DA6E2D0EDF6E01019D
:1008B800584B592BE7D7A10E01015319D8A43BD0A7
:1008C800010E126E010E4CEC0DF0CA0E146E7F0E66
:1008D800156E89EC0CF0000E1E6E640E1D6E48EC51
:1008E8000AF0010E126E010E4CEC0DF0200E146E83
:1008F8007F0E156E89EC0CF0000E01014E6F000E94
:100908004D6F01014EBF08D001014E5111E11E0E7D
:1009180001014D5DD8B00CD0340E0001B86FF20E55
:10092800E82EFED7B82FFCD701014D4B4E2BE9D747
:10093800CFEC08F069D0A00E01015319D8A432D029
:10094800010E126E010E4CEC0DF0B90E146E7F0EF6
:10095800156E89EC0CF0010E126E020E4CEC0DF0C7
:10096800DC0E146E7E0E156E89EC0CF0000E010183
:10097800506F000E4F6F010150BF08D00101505158
:1009880043E1640E01014F5DD8B03ED0340E000142
:10099800B86FF20EE82EFED7B82FFCD701014F4BE7
:1009A800502BE9D7010E126E010E4CEC0DF0970E8C
:1009B800146E7F0E156E89EC0CF0010E126E020E8D
:1009C8004CEC0DF0DC0E146E7E0E156E89EC0CF0FE
:1009D800000E0101526F000E516F010152BF08D085
:1009E8000101525111E1640E0101515DD8B00CD0E2
:1009F800340E0001B86FF20EE82EFED7B82FFCD7E0
:100A08000101514B522BE9D70001D351D8A490EFE3
:100A180000F0C4EF00F01EEC0EF0010E126E010E95
:100A28004CEC0DF0CB0E146E7E0E156E89EC0CF0AE
:100A3800000E00019B6F000E9A6F00019BBF08D04B
:100A480000019B5112E1140E00019A5DD8B00DD03F
:100A5800680E316EE40EE82EFED7312EFCD700F07A
:100A680000F000019A4B9B2BE8D7010E126E020E84
:100A78004CEC0DF0F20E146E7F0E156E89EC0CF036
:100A8800E60E146E7F0E156E89EC0CF0000E000158
:100A98009D6F000E9C6F00019DBF08D000019D5105
:100AA80012E1320E00019C5DD8B00DD0680E316E97
:100AB800E40EE82EFED7312EFCD700F000F000013E
:100AC8009C4B9D2BE8D7010E126E020E4CEC0DF0DC
:100AD800DB0E146E7F0E156E89EC0CF00001D451FC
:100AE800D8B404D00001D451F10F01D0000E000198
:100AF800B06FB0C010F0116A000E136E640E126E63
:100B08000BEC0CF010500001B46F0001B451640DEF
:100B1800F31EF41EF34AF42A0001B051F324106EB8
:100B2800000EF420116E000E136E0A0E126E0BECFE
:100B38000CF010500001B16F0001B1510A0DF3CF54
:100B480031F00001B451640DF35031240008000164
:100B5800B0250001986F0001B451010D800EF324F7
:100B6800D96E000EF420DA6EDF50ADEC0DF0000106
:100B7800B151010D800EF324D96E000EF420DA6E07
:100B8800DF50ADEC0DF000019851010D800EF324FB
:100B9800D96E000EF420DA6EDF50ADEC0DF07C0E4D
:100BA800ADEC0DF0D4C010F0116A000E136E100EEB
:100BB800126E0BEC0CF0200E1024D96E010E1120D1
:100BC800DA6EDF50ADEC0DF0D4C010F0116A000EF3
:100BD800136E100E126E0BEC0CF0103A113AF00E68
:100BE800111610500F0B1112F00E1016101E111EB8
:100BF800104A112A0001D451316E326A1050312640
:100C080011503222200E3124D96E010E3220DA6EB4
:100C1800DF50ADEC0DF0000E00019F6F000E9E6FCF
:100C280000019FBF08D000019F5112E1280E00016A
:100C38009E5DD8B00DD0680E316EE40EE82EFED75A
:100C4800312EFCD700F000F000019E4B9F2BE8D717
:100C58001EEC0EF0010E126E010E4CEC0DF00F0E94
:100C6800146E7F0E156E89EC0CF0020E1E6EBC0E13
:100C78001D6E48EC0AF0000E0001B66F0001D45159
:100C8800D8A485D2000E0001996F010E126E010ED4
:100C98004CEC0DF0640E146E7F0E156E89EC0CF0A2
:100CA800010E1E6E2C0E1D6E48EC0AF08FC0ADF0C2
:100CB80090C0AEF091C0AFF065D2010E126E010E79
:100CC8004CEC0DF0310E146E7F0E156E89EC0CF0A5
:100CD800010E126E020E4CEC0DF0A80E146E7F0E73
:100CE800156E89EC0CF0010E126E020E4CEC0DF034
:100CF8005F0EADEC0DF081D074EC0BF00001B56F18
:100D08005F0E0001B519D8B478D0DD0E316EFF0E34
:100D1800326E0001B551336E346A31503326325089
:100D2800342233503410D8A42FD00001B65100011A
:100D3800D8B42AD00001B651010DAD0EF324D96EF6
:100D4800000EF420DA6E000EDF6EB6C012F0020E4E
:100D58004CEC0DF05F0EADEC0DF0B50E106E000E04
:100D6800116E91EC0DF00001B629126E020E4CECDA
:100D78000DF0200EADEC0DF0B6C012F0020E4CECEA
:100D88000DF00001B60739D0DD0E316EFF0E326E60
:100D98000001B551336E346A315033263250342253
:100DA80033503410D8B429D02A0E0001B519D8B45C
:100DB80028D0030E0001B619D8B423D00001B651CB
:100DC800010DAD0EF324D96E000EF420DA6EB5C015
:100DD800DFFF0001B62BB6C012F0020E4CEC0DF08E
:100DE8000001B551ADEC0DF05F0EADEC0DF0B50E98
:100DF800106E000E116E91EC0DF0020E0001B6653A
:100E08007BD7000E0001B76F000E0001B36F000E14
:100E1800B26F0001B3BF08D00001B3511CE1030E4B
:100E28000001B25DD8B017D0A60E0001B225D96E68
:100E3800000E0001B321DA6EAD0E0001B225E16E9D
:100E4800000E0001B321E26EE750D00FDF6E000103
:100E5800B24BB32BDED70001AD51D00F640DF35068
:100E68000001B7270001AE51D00F0A0DF350000161
:100E7800B7270001AF51D00F0001B727B7C0D5F091
:100E88000F0E0001B7270001A6510001D8A408D011
:100E98000001A751D8A410D00001A851D8A40CD0A3
:100EA8000001A605D8A412D10001A751D8A40ED1DB
:100EB8000001A851D8A40AD1B7C010F0116A000ED9
:100EC800136E640E126E0BEC0CF010500001B46F30
:100ED8000001B451640DF31EF41EF34AF42A000114
:100EE800B751F324106E000EF420116E000E136E2D
:100EF8000A0E126E0BEC0CF010500001B16F0001DD
:100F0800B1510A0DF3CF31F00001B451640DF35023
:100F1800312400080001B7250001986FB7C010F010
:100F2800116A000E136E100E126E0BEC0CF01050BE
:100F38000001946FB7C010F0116A000E136E100E06
:100F4800126E0BEC0CF01038F00B00080001B725FE
:100F58000001956F1EEC0EF0010E126E010E4CECA6
:100F68000DF0310E146E7F0E156E89EC0CF0010E2B
:100F7800126E020E4CEC0DF0000E0001AA6F000E6E
:100F8800A96F0001AABF08D00001AA5114E1030EFD
:100F98000001A95DD8B00FD0AD0E0001A925D96E0A
:100FA800000E0001AA21DA6EDF50ADEC0DF0000151
:100FB800A94BAA2BE6D7070E126E020E4CEC0DF0C9
:100FC800F70E146E7F0E156E89EC0CF00E0E126E75
:100FD800020E4CEC0DF0FC0E146E7F0E156E89ECB3
:100FE8000CF000019451010D200EF324D96E010E6E
:100FF800F420DA6EDF50ADEC0DF000019551010DD3
:10100800200EF324D96E010EF420DA6EDF50ADEC19
:101018000DF0000E0001A16F000EA06F0001A1BF2E
:1010280008D00001A15118E1320E0001A05DD8B02E
:1010380013D0680E316EE40EE82EFED7312EFCD7A1
:1010480000F000F00001A04BA12B0001A1BFF1D7D7
:101058000001A15101E1E8D7B7C0D4F0D4C010F025
:101068000001D2510CEC0EF01EEC0EF0010E126EC7
:10107800010E4CEC0DF0860E146E7F0E156E89EC89
:101088000CF0000E0001A36F000EA26F0001A3BFB9
:1010980008D00001A35112E10A0E0001A25DD8B0E8
:1010A8000DD0680E316EE40EE82EFED7312EFCD737
:1010B80000F000F00001A24BA32BE8D7010E1E6E32
:1010C800F40E1D6E48EC0AF0FF005CD00001B75129
:1010D8000001D8A405D0530E0001966F7F0E04D0EE
:1010E800ED0E0001966F7E0E0001976F010E126ED5
:1010F800020E4CEC0DF096C014F097C015F089EC78
:101108000CF0000E0001A56F000EA46F0001A5BF32
:1011180008D00001A55112E1320E0001A45DD8B03B
:101128000DD0680E316EE40EE82EFED7312EFCD7B6
:1011380000F000F00001A44BA52BE8D7000E000139
:10114800AC6F000EAB6F0001ACBF08D00001AC5112
:1011580013E1030E0001AB5DD8B00ED0AD0E000157
:10116800AB25D96E000E0001AC21DA6E300EDF6EB1
:101178000001AB4BAC2BE7D7000E0001996F000EB6
:101188000001B66F00019905D8B4120096D5010E7A
:101198000001996F1200000E0001A56F1EEC0EF001
:1011A800010E126E010E4CEC0DF0010E0001A86F3D
:1011B800000E0001A96F000E0001B36F000EB26FA0
:1011C8000001B3BF08D00001B3512AE1090E0001A4
:1011D800B25DD8B025D0C90E0001B225D96E000E77
:1011E8000001B321DA6E300EDE18D8A405D0000154
:1011F800A8510001D8A410D0000E0001A86F00016A
:10120800A92BC90E0001B225D96E000E0001B32129
:10121800DA6EDF50ADEC0DF00001B24BB32BD0D736
:10122800000E0001A76F000EA66F06D0200EADECD1
:101238000DF00001A64BA72B0001A951316E326AAF
:10124800311E321E314A322A0D0E3126000E32224C
:1012580031500001A65D0001A751800A336E32505B
:10126800800A3358D8A0E2D7010E126E020E4CEC59
:101278000DF0000E0001AF6F000EAE6F0001AFBFA2
:1012880008D00001AF5114E1100E0001AE5DD8B0D6
:101298000FD0650E0001AE25D96E010E0001AF21F9
:1012A800DA6EDF50ADEC0DF00001AE4BAF2BE6D798
:1012B8000C0E126E010E4CEC0DF0EC0E146E7F0E3F
:1012C800156E89EC0CF092C0B0F093C0B1F0000E2E
:1012D8000001AB6F000EAA6F20EE8AF010EE94F0BA
:1012E800040EDBCFE3FFE806FCE2B5D00001B05105
:1012F8000001B111D8B4B4D0D40E00F000F0E82E3B
:10130800FCD70001AA4BAB2BE80E0001AA1904E197
:10131800030E0001AB19D8A49ED00001B007D8A0D5
:10132800B107000E0001AB6F000EAA6F21EE30F07E
:1013380010EE9BF0090EDBCFE3FFE806FCE2B0C03D
:1013480010F0B1C011F00E0E136E100E126E0BECF1
:101358000CF010C099F011C09AF0B0C010F0B1C0F4
:1013680011F00E0E136E100E126EC2EC0CF010C0BF
:10137800B4F011C0B5F0B4C010F0B5C011F0000E53
:10138800136E3C0E126E0BEC0CF010C0ACF011C0DA
:10139800ADF0B4C010F0B5C011F0000E136E3C0EE5
:1013A800126EC2EC0CF010C0B4F011C0B5F00C0E07
:1013B800126E010E4CEC0DF0ACC010F0ADC011F087
:1013C800000E136E0A0E126E0BEC0CF09B0E10241E
:1013D800D96E000E1120DA6EDF50ADEC0DF0ACC006
:1013E80010F0ADC011F0000E136E0A0E126EC2ECB2
:1013F8000CF09B0E1024D96E000E1120DA6EDF500F
:10140800ADEC0DF03A0EADEC0DF0B4C010F0B5C077
:1014180011F0000E136E0A0E126E0BEC0CF09B0E00
:101428001024D96E000E1120DA6EDF50ADEC0DF0ED
:10143800B4C010F0B5C011F0000E136E0A0E126E93
:10144800C2EC0CF09B0E1024D96E000E1120DA6E3F
:10145800DF50ADEC0DF074EC0BF0230AD8A446D79E
:101468001EEC0EF0010E126E010E4CEC0DF0750E16
:10147800146E7F0E156E89EC0CF0000E1E6EC80EF1
:101488001D6E48EC0AF01200010E126E020E4CECB2
:101498000DF0000E136E140E126E1DC01FF01EC04C
:1014A80020F0040E216ED89020321F32212EFBD757
:1014B8001FC010F020C011F0FAEC0CF010C017F0AB
:1014C80011C018F0000E1A6E140E196EF9EC0DF01A
:1014D80017C023F018C024F0256A266A000E2A6E69
:1014E800000E296E2ABE06D02A502FE1100E295C64
:1014F800D8B02BD0FF0EADEC0DF0000E286E000E0C
:10150800276E0DD0680E1F6EE40EE82EFED71F2E34
:10151800FCD700F000F0140E2726000E282227C062
:101528001FF028C020F0000E20BEFF0E216E226E94
:1015380023501F5C245020582550215826502258EB
:10154800D8A0E0D7294A2A2ACDD7010E126E020E5A
:101558004CEC0DF0A90E146E7E0E156E89EC0CF095
:10156800000E2C6E000E2B6E2CBE06D02C5010E1F7
:10157800050E2B5CD8B00CD0680E1F6EE40EE82E5A
:10158800FED71F2EFCD700F000F02B4A2C2AECD7F0
:10159800010E126E020E4CEC0DF0000E2E6E000EB7
:1015A8002D6E2EBE06D02E500AE1100E2D5CD8B03E
:1015B80006D0FF0EADEC0DF02D4A2E2AF2D7000E04
:1015C800306E000E2F6E30BE06D0305010E1050E82
:1015D8002F5CD8B00CD0680E1F6EE40EE82EFED734
:1015E8001F2EFCD700F000F02F4A302AECD71EEC53
:1015F8000EF01200000E216E000E206E21BE06D0E5
:10160800215015E1090E205CD8B011D0C90E202454
:10161800D96E000E2120DA6E600E2024E16E000ED5
:101628002120E26EDFCFE7FF204A212AE7D7000E0C
:10163800236E090E226E23BE06D0235021E1120E1E
:10164800225CD8B01DD0F70E186EFF0E196E22C09E
:101658001AF023C01BF018501A2619501B22C00E6E
:101668001A24D96E000E1B20DA6E600E2224E16E59
:10167800000E2320E26EDFCFE7FF224A232ADBD7C2
:10168800000E1D6E000E1C6E000E1F6E000E1E6EEC
:101698001FBE06D01F5013E11F0E1E5CD8B00FD01E
:1016A800600E1E24D96E000E1F20DA6EDF50186EF1
:1016B80018501C26000E1D221E4A1F2AE9D71CC0DE
:1016C80010F01DC011F0000E136E200E126E0BEC00
:1016D8000CF010C01CF011C01DF01CC07FF01200EF
:1016E800780E936E010E816E81AC04D0000E816E6F
:1016F8002A0E120081A604D0000E816E310E12004F
:1017080081A804D0000E816E340E120081AA04D084
:10171800000E816E370E1200020E816E81A604D073
:10172800000E816E320E120081A804D0000E816E68
:10173800350E120081AA04D0000E816E380E1200F8
:1017480081AC04D0000E816E300E1200040E816E42
:1017580081A604D0000E816E330E120081A804D039
:10176800000E816E360E120081AA04D0000E816E22
:10177800390E120081AC04D0000E816E230E1200C7
:101788005F0E120001EE65F0100EEE6AE806FDE14C
:1017980000EEC0F0140EEE6AE806FDE14F6A4E6AEC
:1017A800E80EF66E1A0EF76E000EF86E01EE00F0F7
:1017B80010EE3AF00900F5CFEEFFE550E150FAE1FE
:1017C800920EF66E1B0EF76E000EF86E00EE60F0CD
:1017D80010EE34F00900F5CFEEFFE550E150FAE1E4
:1017E8005C0EF66E1C0EF76E000EF86E00EE35F00D
:1017F80010EE19F00900F5CFEEFFE550E150FAE1DF
:1018080050905092000EF86E000181EF00F0000E2B
:10181800156E13AE06D0126C131ED8B0132A010E23
:10182800156E11AE06D0106C111ED8B0112A010E1B
:10183800151A000E176E000E166E12501310D8B43B
:101848001CD0010E146E04D0D89012361336142A08
:1018580013AEFAD7D890163617361250105C1350BC
:101868001158D8A005D01250105E1350115A168086
:10187800D89013321232142EEDD71550D8B404D0A4
:10188800166C171ED8B0172A16C010F017C011F022
:101898001200000EE3EC0DF0680E126EE40EE82E56
:1018A800FED7122EFCD700F000F0030E3BEC0EF032
:1018B8001A0E126EF80EE82EFED7122EFCD700F084
:1018C80000F0030E3BEC0EF03A0E126E230EE82EDB
:1018D800FED7122EFCD700F0030E3BEC0EF0020EE2
:1018E8003BEC0EF0020E3BEC0EF0080E3BEC0EF05B
:1018F800000E3BEC0EF00C0E3BEC0EF0000E3BEC39
:101908000EF0060E3BEC0EF01200000E196E000EE3
:10191800186E1AD018501424166E19501520176E08
:1019280016C0F6FF17C0F7FFF86A050EF76403D074
:101938000800F55005D0F6CFE9FFF7CFEAFFEF50E2
:10194800ADEC0DF0184A192A18501424166E1950C7
:101958001520176E16C0F6FF17C0F7FFF86A050EB8
:10196800F76403D00800F55005D0F6CFE9FFF7CFAC
:10197800EAFFEF500009D8B41200CCD7000E156E5C
:1019880011AE06D0106C111ED8B0112A010E156EBA
:1019980013AE04D0126C131ED8B0132A12501310B1
:1019A800D8B418D0010E146E04D0D890123613365D
:1019B800142A13AEFAD71250105C13501158D8A03D
:1019C80004D01250105E1350115AD89013321232AC
:1019D800142EF1D71550D8B404D0106C111ED8B0FD
:1019E800112A10C010F011C011F01200000E166E6E
:1019F800000E156E12501310D8B41CD0010E146EC0
:101A080004D0D89012361336142A13AEFAD7D890C9
:101A1800153616361250105C13501158D8A005D040
:101A28001250105E1350115A1580D890133212328A
:101A3800142EEDD715C010F016C011F012000001D9
:101A4800D25147EC0EF00001D46F0001D451F10FD0
:101A58000001D56F600ED36E9B9C000E926E010E36
:101A6800936E180E946E000E956E180E8B6E000114
:101A7800D451020DF3CFC8FF360EC66E000EC76EE6
:101A8800010EC56E9E969D86F28EF28CF29612001D
:101A9800136E1304D8A410D012507F0F166E163888
:101AA8000F0B146E16500F0B156E14503BEC0EF006
:101AB80015503BEC0EF01200020E1318D8A41200B9
:101AC8001250BF0F166E16380F0B146E16500F0BF0
:101AD800156E14503BEC0EF015503BEC0EF0120056
:101AE8002D2D2D2D2D2D2D2D2D2D2D2D2D2D2D2D1E
:101AF8002D2D2D2D2D2D2D2D2D2D2D2D2D2D2D2D0E
:101B0800303132333435363738394142434445462B
:101B18003031323334353637383909D0680E126EE1
:101B2800E40EE82EFED7122EFCD700F000F010C00D
:101B3800D9FF11C0DAFF74EC0BF0136EDE501318E6
:101B4800D8B4ECD710C0D9FF11C0DAFF5F0EDF6E32
:101B58001200136E13500F0B116E1350F00B126E10
:101B6800838A12380F0BE3EC0DF08388350EE82ECC
:101B7800FED700F083981150E3EC0DF08388350E02
:101B8800E82EFED700F0839812002D2D2D2D2D2D37
:101B98002D2D2D2D2D2D2D2D2D2D2D2D2D2D2D2D6D
:101BA8002D2D2D2D2D2D2D2D2D2D3031323334353C
:101BB8003637383930303A30303030300807106E28
:101BC80010A002D0838001D0839010A202D083821B
:101BD80001D0839210A402D0838401D0839410A6EC
:101BE80002D0838612008396120017501902F3CF91
:101BF8001BF0F4CF1CF017501A02F3501C26185093
:101C08001902F3501C261BC017F01CC018F0120054
:101C1800116E11C0A9FF10C0A8FFA69EA69CA6849D
:101C2800550EA76EAA0EA76EA682A1A8FED7A198E8
:101C3800A6941200000E3BEC0EF0010E3BEC0EF0E9
:101C48001A0E126EF80EE82EFED7122EFCD700F0F0
:101C580000F012003031323334353637383930310C
:0D1C6800323334353637383930303A3030C9
:101C7600116E839A1150E3EC0DF08388C80E00F0C4
:101C8600E82EFDD783981200106E10C0A9FFA69EFD
:0C1C9600A69CA680A6B0FED7A8501200A5
:107EA80000202020202020202020202020202020EA
:107EB80020005B205D202020202020202020202062
:107EC8002020002020205B2041646974756D205DAE
:107ED80020202000202020205B2052657472792009
:107EE8005D202020004F7574206F6620626F756ECC
:107EF800647321202000456E74657220796F757255
:107F08002049443A20200020205B202041646974E5
:107F1800756D20205D2020002020205B2057656C97
:107F2800636F6D65205D2020004E6577204D61638D
:107F380068696E652049443A2000456E7465722070
:107F4800796F75722050494E3A20004D6179206E44
:107F58006F74206265207A65726F21004C6F6164CE
:107F6800204932432073657475702E2E004C6F675C
:107F780067696E6720796F75206F75742E004932B6
:107F8800435F414444523E3E454550524F4D005B8D
:107F98002053797374656D204572726F72205D008D
:107FA800202020202020205B3030312D3130305DE2
:107FB800005B416363657373202044656E69656483
:107FC8005D005B416363657373204772616E74651E
:107FD800645D004465766963652049442000312E5C
:107FE800302E300030303A30300052657620005B59
:077FF8004F4B5D0078000013
:020000040020DA
:08000000FFFFFFFFFFFFFFFF00
:020000040030CA
:0E000000FF08071EFF8981FF0FC00FE00F40B1
:0200000400F00A
:080000001000000000000000E8
:00000001FF
