:040000007FEF00F09E
:100008005082FACF01F0FBCF02F0E9CF03F0EACF3C
:1000180004F0E1CF05F0E2CF06F0D9CF07F0DACF50
:1000280008F0F3CF09F0F4CF0AF0F6CF0BF0F7CFD2
:100038000CF0F8CF0DF0F5CF0EF09EA63ED0C7BA63
:1000480013D0000E4E6EC7B0C9CF0FF0C7A431D081
:10005800C69E4F50010D600EF324D96E000EF42099
:10006800DA6EDF50C96E24D04E2AC7B0C9CF0FF060
:10007800C7A40ED0C69E4F50010D600EF324D96E52
:10008800000EF420DA6EDF50C96E4F2A8C8C11D026
:100098004E04D8A403D00FC04FF00BD04F50010D21
:1000A800330EF324D96E010EF420DA6E0FC0DFFF91
:1000B8004F2A1F0E4F169E96C6880EC0F5FF0DC01C
:1000C800F8FF0CC0F7FF0BC0F6FF0AC0F4FF09C029
:1000D800F3FF08C0DAFF07C0D9FF06C0E2FF05C07A
:1000E800E1FF04C0EAFF03C0E9FF02C0FBFF01C053
:1000F800FAFF509211007AEF0BF0000E0101316FF8
:10010800000E0101306F5F0E0101326F57EC0CF0E9
:10011800B9EC0BF0FAEC05F0000E0101266F000EA9
:10012800256F010126BF0CD00101265107E1200EE1
:100138000101255DD8B0E6EF04F002D0E6EF04F047
:10014800330E01012525D96E010E01012621DA6E33
:100158002D0EDF6E600E01012525D96E000E0101FE
:100168002621DA6E2D0EDF6E0101254B262B0101AB
:1001780026BFE6D70101265101E1D9D7E6EF04F001
:10018800000E01012C6F000E2B6F01012CBF08D04F
:1001980001012C5127E1090E01012B5DD8B022D0B5
:1001A800C30E01012B25D96E000E01012C21DA6E38
:1001B800300EDF6EBA0E01012B25D96E000E01013B
:1001C8002C21DA6E300EDF6E0A0E01012B25D96E56
:1001D800010E01012C21DA6E300EDF6E01012B4B6E
:1001E8002C2BD3D7000E0101316F010E126E010EB8
:1001F80080EC0CF0290E146E7F0E156EF5EC0BF0EA
:10020800010E126E020E80EC0CF0D40E146E7E0EEF
:10021800156EF5EC0BF0010E126E020E80EC0CF070
:10022800D0D0090E01013119D8B4CFD0020E126E08
:10023800020E80EC0CF0010131510001B26FB36B7A
:100248000001B21FB31FB24BB32B090E0001B22736
:10025800000EB323800E0001B225D96E000E0001F6
:10026800B321DA6EDF50A8EC0CF0E6EC0AF00101DD
:10027800326F5F0E01013219D8B4A3D0DD0E000130
:10028800B26FFF0E0001B36F010132510001B46F6C
:10029800B56B0001B2510001B4270001B351000150
:1002A800B5230001B4510001B511D8A434D001011F
:1002B80031510101D8B42FD001013151010D0A0E7D
:1002C800F324D96E010EF420DA6E3F0EDF6E0101C1
:1002D8003151070F126E020E80EC0CF05F0EA8EC85
:1002E8000CF0320E106E010E116EC4EC0CF0010110
:1002F8003151080F126E020E80EC0CF0200EA8ECA3
:100308000CF001013151070F126E020E80EC0CF057
:100318000101310756D0DD0E0001B26FFF0E00015A
:10032800B36F010132510001B46FB56B0001B251D6
:100338000001B4270001B3510001B5230001B451F5
:100348000001B511D8B43DD02A0E01013219D8B434
:100358003CD0090E01013119D8B437D00101312B35
:10036800FF0E0001B26FFF0E0001B36F01013151A2
:100378000001B46FB56B0001B2510001B427000150
:10038800B3510001B5230A0E0001B425D96E010E40
:100398000001B521DA6E32C1DFFF01013151070FCB
:1003A800126E020E80EC0CF001013251A8EC0CF038
:1003B8005F0EA8EC0CF0320E106E010E116EC4EC3C
:1003C8000CF0090E010131652CD7000E0101176FE1
:1003D800000E166F010117BF08D00101175111E176
:1003E8000A0E0101165DD8B00CD0340E0001B26FB0
:1003F800F20EE82EFED7B22FFCD70101164B172BB1
:10040800E9D7000E0101286F000E276F75D0FF0E87
:100418000001B26FFF0E0001B36F27C1B4F028C10D
:10042800B5F00001B41FB51FB44BB52B0101315114
:100438000001B66FB76B0001B4510001B627000187
:10044800B5510001B7230001B2510001B6270001E0
:10045800B3510001B7230A0E0001B625D96E010E6B
:100468000001B721DA6E27C1B8F028C1B9F0000140
:10047800B81FB91FB84BB92B080E0001B827000EDA
:10048800B923C30E0001B825E16E000E0001B921A1
:10049800E26EDFCFE7FFFF0E0001B26FFF0E000133
:1004A800B36F27C1B4F028C1B5F00001B41FB51F60
:1004B800B44BB52B010131510001B66FB76B000188
:1004C800B4510001B6270001B5510001B72300015E
:1004D800B2510001B6270001B3510001B7230A0E3B
:1004E8000001B625D96E010E0001B721DA6E300E73
:1004F800DF6E0101274B282B010131510001B26F3A
:10050800B36B0001B2510101275D01012851800A36
:100518000001B46F0001B351800A0001B459D8A09A
:1005280076D74AEC0DF0000E1E6E640E1D6EBAEC06
:1005380009F0000E0101306F010E126E010E80EC01
:100548000CF05C0E146E7F0E156EF5EC0BF0010EC0
:10055800126E020E80EC0CF0D40E146E7E0E156E28
:10056800F5EC0BF0010E126E020E80EC0CF0D8D0F8
:10057800090E01013019D8B4D7D020EE35F011EEAC
:1005880000F0090EDBCFE3FFE806FCE2020E126E74
:10059800020E80EC0CF0010130510001B26FB36B18
:1005A8000001B21FB31FB24BB32B090E0001B227D3
:1005B800000EB323000E0001B225D96E010E000112
:1005C800B321DA6EDF50A8EC0CF0E6EC0AF001017A
:1005D800326F5F0E01013219D8B4A2D0DD0E0001CE
:1005E800B26FFF0E0001B36F010132510001B46F09
:1005F800B56B0001B2510001B4270001B3510001ED
:10060800B5230001B4510001B511D8A434D00101BB
:1006180030510101D8B42FD001013051010D0A0E1B
:10062800F324D96E010EF420DA6E3F0EDF6E01015D
:100638003051070F126E020E80EC0CF05F0EA8EC22
:100648000CF0320E106E010E116EC4EC0CF00101AC
:100658003051080F126E020E80EC0CF0200EA8EC40
:100668000CF001013051070F126E020E80EC0CF0F5
:100678000101300755D0DD0E0001B26FFF0E0001F9
:10068800B36F010132510001B46FB56B0001B25173
:100698000001B4270001B3510001B5230001B45192
:1006A8000001B511D8B43CD02A0E01013219D8B4D2
:1006B8003BD0090E01013019D8B436D00101302BD6
:1006C800FF0E0001B26FFF0E0001B36F0101305140
:1006D8000001B46FB56B0001B2510001B4270001ED
:1006E800B3510001B5230A0E0001B425D96E010EDD
:1006F8000001B521DA6E32C1DFFF01013051070F69
:10070800126E020E80EC0CF02A0EA8EC0CF05F0EB4
:10071800A8EC0CF0320E106E010E116EC4EC0CF049
:10072800090E0101306524D7000E0101226F000E69
:10073800216F47D0FF0E0001B26FFF0E0001B36FAB
:1007480021C1B4F022C1B5F00001B41FB51FB44BEC
:10075800B52B010130510001B66FB76B0001B451E0
:100768000001B6270001B5510001B7230001B251BD
:100778000001B6270001B3510001B7230A0E00019A
:10078800B625D96E010E0001B721DA6E21C1B8F085
:1007980022C1B9F00001B81FB91FB84BB92B080E18
:1007A8000001B827000EB923BA0E0001B825E16E82
:1007B800000E0001B921E26EDFCFE7FF0101214BF6
:1007C800222B010130510001B26FB36B0001B2510D
:1007D8000101215D01012251800A0001B46F00016D
:1007E800B351800A0001B459D8A0A4D74AEC0DF03F
:1007F800000E1E6E640E1D6EBAEC09F070EC0AF065
:100808002D0E0101336F2D0E01013319D8B4FBD71A
:10081800F29E000E0101246F000E236F010124BF18
:1008280008D00101245119E1200E0101235DD8B03F
:1008380014D0600E01012325D96E000E0101242178
:10084800DA6E2D0EDF6E0101234B242B010124BF2C
:10085800F0D70101245101E1E7D733C11FF1A10EFF
:1008680001011F19D8A43AD0010E126E010E80ECB6
:100878000CF0C20E146E7F0E156EF5EC0BF0010E27
:10088800126E020E80EC0CF0070E146E7F0E156EC1
:10089800F5EC0BF0000E0101196F000E186F010145
:1008A80019BF0AD00101195106E1640E0101185D52
:1008B800D8B087D001D085D0340E0001B26FF20EC7
:1008C800E82EFED7B22FFCD70101184B192B0101D6
:1008D80019BFF2D70101195174E1E7D7A00E010140
:1008E8001F19D8A432D0010E126E010E80EC0CF044
:1008F800B10E146E7F0E156EF5EC0BF0010E126E34
:10090800020E80EC0CF0F60E146E7E0E156EF5ECF1
:100918000BF0000E01011B6F000E1A6F01011BBFC7
:1009280008D001011B514DE1640E01011A5DD8B0D8
:1009380048D0340E0001B26FF20EE82EFED7B22F67
:10094800FCD701011A4B1B2BE9D7010E126E010EC1
:1009580080EC0CF0D30E146E7F0E156EF5EC0BF0D8
:1009680001011F51A8EC0CF0AF0E146E7F0E156E2E
:10097800F5EC0BF0010E126E020E80EC0CF0F60E88
:10098800146E7E0E156EF5EC0BF0000E01011D6F56
:10099800000E1C6F01011DBF08D001011D5111E19E
:1009A800640E01011C5DD8B00CD0340E0001B26F8A
:1009B800F20EE82EFED7B22FFCD701011C4B1D2BDF
:1009C800E9D7F28E0001CD51D8B4C4EF00F0010E82
:1009D800126E010E80EC0CF0010E01011E6F000E6C
:1009E8000101156F000E01012A6F000E296F010128
:1009F8002ABF08D001012A512AE1090E0101295D07
:100A0800D8B025D0C30E01012925D96E000E0101E9
:100A18002A21DA6E300EDE18D8A405D001011E5145
:100A28000101D8A410D0000E01011E6F0101152B81
:100A3800C30E01012925D96E000E01012A21DA6EA3
:100A4800DF50A8EC0CF00101294B2A2BD0D7000E5F
:100A58000101146F000E136F06D0200EA8EC0CF0E5
:100A68000101134B142B010115510001B26FB36B37
:100A78000001B21FB31FB24BB32B0D0E0001B227FA
:100A8800000EB3230001B2510101135D010114519D
:100A9800800A0001B46F0001B351800A0001B45903
:100AA800D8A0DBD70E0E126E010E80EC0CF08DC0B4
:100AB8002FF10001CE51F10F0101206F20C110F07C
:100AC800116A000E136E640E126E38EC0BF01050A3
:100AD80001012F6F01012F51640DF31EF41EF34A1B
:100AE800F42A01012051F324106E000EF420116E37
:100AF800000E136E0A0E126E38EC0BF01050010146
:100B0800306F010130510A0DF3CFB2F001012F51BE
:100B1800640DF3500001B2250008010120250101F0
:100B2800316F010E01011E6F000E01012E6F000EC4
:100B38002D6F01012EBF08D001012E514AE1030E8D
:100B480001012D5DD8B045D02F0E01012D25D96E9C
:100B5800010E01012E21DA6EDF500001B26F000193
:100B6800B251010D800EF324D96E000EF420DA6E16
:100B78002F0E01012D25E16E010E01012E21E26EDD
:100B8800DFCFE7FF2F0E01012D25D96E010E0101E0
:100B98002E21DA6E300EDE18D8A409D001011E51BC
:100BA8000101D8B404D0200EA8EC0CF00ED0000E31
:100BB80001011E6F2F0E01012D25D96E010E0101B5
:100BC8002E21DA6EDF50A8EC0CF001012D4B2E2BF4
:100BD800B0D7010E126E020E80EC0CF0C30E146E2C
:100BE8007E0E156EF5EC0BF090EF00F04AEC0DF070
:100BF800010E126E010E80EC0CF0E50E146E7E0EE6
:100C0800156EF5EC0BF0000E0001956F000E946F59
:100C1800000195BF08D00001955112E1140E0001A2
:100C2800945DD8B00DD0680E316EE40EE82EFED774
:100C3800312EFCD700F000F00001944B952BE8D73B
:100C4800010E126E020E80EC0CF0F30E146E7F0E85
:100C5800156EF5EC0BF0ED0E146E7F0E156EF5ECBF
:100C68000BF0000E0001976F000E966F000197BF02
:100C780008D00001975112E1320E0001965DD8B0FC
:100C88000DD0680E316EE40EE82EFED7312EFCD75B
:100C980000F000F00001964B972BE8D7010E126E7A
:100CA800020E80EC0CF0E20E146E7F0E156EF5EC61
:100CB8000BF00001CE51D8B404D00001CE51F10F91
:100CC80001D0000E0001AA6FAAC010F0116A000E30
:100CD800136E640E126E38EC0BF010500001AE6FFC
:100CE8000001AE51640DF31EF41EF34AF42A00010C
:100CF800AA51F324106E000EF420116E000E136E2C
:100D08000A0E126E38EC0BF010500001AB6F0001A8
:100D1800AB510A0DF3CF31F00001AE51640DF35021
:100D2800312400080001AA250001926F0001AE518C
:100D3800010D800EF324D96E000EF420DA6EDF5018
:100D4800A8EC0CF00001AB51010D800EF324D96E14
:100D5800000EF420DA6EDF50A8EC0CF0000192517E
:100D6800010D800EF324D96E000EF420DA6EDF50E8
:100D7800A8EC0CF07C0EA8EC0CF0CEC010F0116AB8
:100D8800000E136E100E126E38EC0BF0530E10247A
:100D9800D96E010E1120DA6EDF50A8EC0CF0CEC02F
:100DA80010F0116A000E136E100E126E38EC0BF074
:100DB800103A113AF00E111610500F0B1112F00ED6
:100DC8001016101E111E104A112A0001CE51316E44
:100DD800326A1050312611503222530E3124D96E06
:100DE800010E3220DA6EDF50A8EC0CF0000E000184
:100DF800996F000E986F000199BF08D000019951B2
:100E080012E1280E0001985DD8B00DD0680E316E41
:100E1800E40EE82EFED7312EFCD700F000F00001DA
:100E2800984B992BE8D74AEC0DF0010E126E010E83
:100E380080EC0CF03A0E146E7F0E156EF5EC0BF08C
:100E4800020E1E6EBC0E1D6EBAEC09F0000E0001FB
:100E5800B06F0001CE51D8A485D2000E0001936F67
:100E6800010E126E010E80EC0CF07E0E146E7F0ED9
:100E7800156EF5EC0BF0010E1E6E2C0E1D6EBAEC05
:100E880009F08AC0A7F08BC0A8F08CC0A9F065D281
:100E9800010E126E010E80EC0CF04B0E146E7F0EDC
:100EA800156EF5EC0BF0010E126E020E80EC0CF0D4
:100EB800A00E146E7F0E156EF5EC0BF0010E126E7F
:100EC800020E80EC0CF05F0EA8EC0CF081D0E6EC82
:100ED8000AF00001AF6F5F0E0001AF19D8B478D0E7
:100EE800DD0E316EFF0E326E0001AF51336E346A83
:100EF800315033263250342233503410D8A42FD0F6
:100F08000001B0510001D8B42AD00001B051010D40
:100F1800A70EF324D96E000EF420DA6E000EDF6EF1
:100F2800B0C012F0020E80EC0CF05F0EA8EC0CF0D2
:100F3800AF0E106E000E116EC4EC0CF00001B0295B
:100F4800126E020E80EC0CF0200EA8EC0CF0B0C073
:100F580012F0020E80EC0CF00001B00739D0DD0E63
:100F6800316EFF0E326E0001AF51336E346A31506C
:100F780033263250342233503410D8B429D02A0EB4
:100F88000001AF19D8B428D0030E0001B019D8B4A5
:100F980023D00001B051010DA70EF324D96E000E25
:100FA800F420DA6EAFC0DFFF0001B02BB0C012F042
:100FB800020E80EC0CF00001AF51A8EC0CF05F0EB3
:100FC800A8EC0CF0AF0E106E000E116EC4EC0CF015
:100FD800020E0001B0657BD7000E0001B16F000E54
:100FE8000001AD6F000EAC6F0001ADBF08D000016D
:100FF800AD511CE1030E0001AC5DD8B017D0A00EB6
:101008000001AC25D96E000E0001AD21DA6EA70EE5
:101018000001AC25E16E000E0001AD21E26EE75043
:10102800D00FDF6E0001AC4BAD2BDED70001A7510E
:10103800D00F640DF3500001B1270001A851D00F63
:101048000A0DF3500001B1270001A951D00F00018A
:10105800B127B1C0CFF00F0E0001B1270001A05198
:101068000001D8A408D00001A151D8A410D00001D3
:10107800A251D8A40CD00001A005D8A412D1000117
:10108800A151D8A40ED10001A251D8A40AD1B1C04F
:1010980010F0116A000E136E640E126E38EC0BF02D
:1010A80010500001AE6F0001AE51640DF31EF41E26
:1010B800F34AF42A0001B151F324106E000EF42013
:1010C800116E000E136E0A0E126E38EC0BF01050F3
:1010D8000001AB6F0001AB510A0DF3CF31F00001F5
:1010E800AE51640DF350312400080001B125000110
:1010F800926FB1C010F0116A000E136E100E126ECE
:1011080038EC0BF0105000018E6FB1C010F0116A6E
:10111800000E136E100E126E38EC0BF01038F00B38
:1011280000080001B12500018F6F4AEC0DF0010E97
:10113800126E010E80EC0CF04B0E146E7F0E156EC5
:10114800F5EC0BF0010E126E020E80EC0CF0000EA6
:101158000001A46F000EA36F0001A4BF08D0000116
:10116800A45114E1030E0001A35DD8B00FD0A70E5F
:101178000001A325D96E000E0001A421DA6EDF500C
:10118800A8EC0CF00001A34BA42BE6D7070E126EB7
:10119800020E80EC0CF0F80E146E7F0E156EF5EC56
:1011A8000BF00E0E126E020E80EC0CF0FD0E146E9B
:1011B8007F0E156EF5EC0BF000018E51010D530EEC
:1011C800F324D96E010EF420DA6EDF50A8EC0CF08F
:1011D80000018F51010D530EF324D96E010EF42036
:1011E800DA6EDF50A8EC0CF0000E00019B6F000EC9
:1011F8009A6F00019BBF08D000019B5118E1320E85
:1012080000019A5DD8B013D0680E316EE40EE82E56
:10121800FED7312EFCD700F000F000019A4B9B2B33
:1012280000019BBFF1D700019B5101E1E8D7B1C094
:10123800CEF0CEC010F00001CC5138EC0DF04AECE5
:101248000DF0010E126E010E80EC0CF08F0E146E74
:101258007F0E156EF5EC0BF0000E00019D6F000E71
:101268009C6F00019DBF08D000019D5112E10A0E3C
:1012780000019C5DD8B00DD0680E316EE40EE82EEA
:10128800FED7312EFCD700F000F000019C4B9D2BBF
:10129800E8D7010E1E6EF40E1D6EBAEC09F0FF00C1
:1012A8005CD00001B1510001D8A405D06D0E000139
:1012B800906F7F0E04D0180E0001906F7F0E000112
:1012C800916F010E126E020E80EC0CF090C014F0BB
:1012D80091C015F0F5EC0BF0000E00019F6F000EA9
:1012E8009E6F00019FBF08D000019F5112E1320E8E
:1012F80000019E5DD8B00DD0680E316EE40EE82E68
:10130800FED7312EFCD700F000F000019E4B9F2B3A
:10131800E8D7000E0001A66F000EA56F0001A6BF5A
:1013280008D00001A65113E1030E0001A55DD8B055
:101338000ED0A70E0001A525D96E000E0001A6212A
:10134800DA6E300EDF6E0001A54BA62BE7D7000E34
:101358000001936F000E0001B06F00019305D8B42F
:10136800120096D5010E0001936F1200010E126E45
:10137800020E80EC0CF0000E136E140E126E1DC0DF
:101388001FF01EC020F0040E216ED89020321F32AC
:10139800212EFBD71FC010F020C011F02EEC0CF04E
:1013A80010C017F011C018F0000E1A6E140E196E46
:1013B80025EC0DF017C023F018C024F0256A266A22
:1013C800000E2A6E000E296E2ABE06D02A502FE182
:1013D800100E295CD8B02BD0FF0EA8EC0CF0000E34
:1013E800286E000E276E0DD0680E1F6EE40EE82ED4
:1013F800FED71F2EFCD700F000F0140E2726000E93
:10140800282227C01FF028C020F0000E20BEFF0EA3
:10141800216E226E23501F5C2450205825502158DD
:1014280026502258D8A0E0D7294A2A2ACDD7010E1B
:10143800126E020E80EC0CF0C30E146E7E0E156E4A
:10144800F5EC0BF0000E2C6E000E2B6E2CBE06D0A9
:101458002C5010E1050E2B5CD8B00CD0680E1F6E16
:10146800E40EE82EFED71F2EFCD700F000F02B4A22
:101478002C2AECD7010E126E020E80EC0CF0000E36
:101488002E6E000E2D6E2EBE06D02E500AE1100EC6
:101498002D5CD8B006D0FF0EA8EC0CF02D4A2E2AF1
:1014A800F2D7000E306E000E2F6E30BE06D03050D0
:1014B80010E1050E2F5CD8B00CD0680E1F6EE40E3C
:1014C800E82EFED71F2EFCD700F000F02F4A302A56
:1014D800ECD74AEC0DF01200000E216E000E206EC3
:1014E80021BE06D0215015E1090E205CD8B011D0DC
:1014F800C30E2024D96E000E2120DA6E600E20243F
:10150800E16E000E2120E26EDFCFE7FF204A212A9C
:10151800E7D7000E236E090E226E23BE06D0235095
:1015280021E1120E225CD8B01DD0F70E186EFF0E06
:10153800196E22C01AF023C01BF018501A26195031
:101548001B22BA0E1A24D96E000E1B20DA6E600E0A
:101558002224E16E000E2320E26EDFCFE7FF224A4D
:10156800232ADBD7000E1D6E000E1C6E000E1F6EA8
:10157800000E1E6E1FBE06D01F5013E11F0E1E5C0C
:10158800D8B00FD0600E1E24D96E000E1F20DA6E60
:10159800DF50186E18501C26000E1D221E4A1F2AE6
:1015A800E9D71CC010F01DC011F0000E136E200EFC
:1015B800126E38EC0BF010C01CF011C01DF01CC0EE
:1015C8007FF01200780E936E010E816E81AC04D00C
:1015D800000E816E2A0E120081A604D0000E816EC4
:1015E800310E120081A804D0000E816E340E120054
:1015F80081AA04D0000E816E370E1200020E816E91
:1016080081A604D0000E816E320E120081A804D08B
:10161800000E816E350E120081AA04D0000E816E74
:10162800380E120081AC04D0000E816E300E12000C
:10163800040E816E81A604D0000E816E330E120056
:1016480081A804D0000E816E360E120081AA04D043
:10165800000E816E390E120081AC04D0000E816E2E
:10166800230E12005F0E1200000E156E13AE06D088
:10167800126C131ED8B0132A010E156E11AE06D0C7
:10168800106C111ED8B0112A010E151A000E176E13
:10169800000E166E12501310D8B41CD0010E146E22
:1016A80004D0D89012361336142A13AEFAD7D8902D
:1016B800163617361250105C13501158D8A005D0A2
:1016C8001250105E1350115A1680D89013321232ED
:1016D800142EEDD71550D8B404D0166C171ED8B0F8
:1016E800172A16C010F017C011F0120000EEBAF059
:1016F800140EEE6AE806FDE14F6A4E6AC00EF66EF9
:10170800190EF76E000EF86E01EE33F010EE30F0A1
:101718000900F5CFEEFFE550E150FAE1F00EF66E64
:10172800190EF76E000EF86E00EE60F010EE2EF057
:101738000900F5CFEEFFE550E150FAE1B40EF66E80
:101748001A0EF76E000EF86E00EE35F010EE19F076
:101758000900F5CFEEFFE550E150FAE150905092C4
:10176800000EF86E000181EF00F0000E0FEC0DF096
:10177800680E126EE40EE82EFED7122EFCD700F08B
:1017880000F0030E67EC0DF01A0E126EF80EE82E3C
:10179800FED7122EFCD700F000F0030E67EC0DF018
:1017A8003A0E126E230EE82EFED7122EFCD700F04A
:1017B800030E67EC0DF0020E67EC0DF0020E67ECFD
:1017C8000DF0080E67EC0DF0000E67EC0DF00C0E36
:1017D80067EC0DF0000E67EC0DF0060E67EC0DF0EF
:1017E8001200000E196E000E186E1AD0185014242C
:1017F800166E19501520176E16C0F6FF17C0F7FFA2
:10180800F86A050EF76403D00800F55005D0F6CF46
:10181800E9FFF7CFEAFFEF50A8EC0CF0184A192AB5
:1018280018501424166E19501520176E16C0F6FF9E
:1018380017C0F7FFF86A050EF76403D00800F550E3
:1018480005D0F6CFE9FFF7CFEAFFEF500009D8B48B
:101858001200CCD7000E166E000E156E1250131023
:10186800D8B41CD0010E146E04D0D890123613369A
:10187800142A13AEFAD7D890153616361250105CC3
:1018880013501158D8A005D01250105E1350115A99
:101898001580D89013321232142EEDD715C010F0DF
:1018A80016C011F012000001CC5173EC0DF00001CC
:1018B800CE6F0001CE51F10F0001CF6F600ED36ED5
:1018C8009B9C000E926E010E936E180E946E000E85
:1018D800956E180E8B6E0001CE51020DF3CFC8FF26
:1018E800360EC66E000EC76E010EC56E9E969D869C
:1018F800F28EF28CF2961200136E1304D8A410D054
:1019080012507F0F166E16380F0B146E16500F0BF1
:10191800156E145067EC0DF0155067EC0DF01200C1
:10192800020E1318D8A412001250BF0F166E1638E4
:101938000F0B146E16500F0B156E145067EC0DF04C
:10194800155067EC0DF01200136E13500F0B116E4B
:101958001350F00B126E838A12380F0B0FEC0DF038
:101968008388350EE82EFED700F0839811500FECCF
:101978000DF08388350EE82EFED700F0839812000C
:1019880009D0680E126EE40EE82EFED7122EFCD790
:1019980000F000F010C0D9FF11C0DAFFE6EC0AF041
:1019A800136EDE501318D8B4ECD710C0D9FF11C08D
:1019B800DAFF5F0EDF6E12002D2D2D2D2D2D2D2D12
:1019C8002D2D2D2D2D2D2D2D2D2D2D2D2D2D2D2D3F
:1019D8002D2D2D2D2D2D2D2D3031323334353637FB
:1019E80038394142434445462D2D2D2D2D2D2D2D81
:1019F8002D2D2D2D2D2D2D2D2D2D2D2D2D2D2D2D0F
:101A08002D2D2D2D2D2D2D2D3031323334353637CA
:101A1800383930303020106E10A002D0838001D0C9
:101A2800839010A202D0838201D0839210A402D0A6
:101A3800838401D0839410A602D0838612008396F3
:101A4800120017501902F3CF1BF0F4CF1CF01750F7
:101A58001A02F3501C2618501902F3501C261BC0FA
:101A680017F01CC018F01200116E11C0A9FF10C0A9
:101A7800A8FFA69EA69CA684550EA76EAA0EA76EC2
:101A8800A682A1A8FED7A198A6941200000E67EC22
:101A98000DF0010E67EC0DF01A0E126EF80EE82E1E
:101AA800FED7122EFCD700F000F01200303132338E
:101AB80034353637383930313233343536373839CA
:051AC80030303A30301F
:101ACE00116E839A11500FEC0DF08388C80E00F042
:101ADE00E82EFDD783981200106E10C0A9FFA69EA7
:0C1AEE00A69CA680A6B0FED7A85012004F
:107EC20000202020202020202020202020202020D0
:107ED20020005B205D202020202020202020202048
:107EE2002020002020205B2041646974756D205D94
:107EF20020202000202020205B20526574727920EF
:107F02005D20202000202020205B57656C636F6D70
:107F1200655D202020004F7574206F6620626F75AA
:107F22006E647321202000456E74657220796F752E
:107F3200722049443A20200020205B2020416469BD
:107F420074756D20205D2020004E6577204D6163A1
:107F520068696E652049443A2000456E7465722056
:107F6200796F75722050494E3A20004D6179206E2A
:107F72006F74206265207A65726F21004C6F6164B4
:107F8200204932432073657475702E2E00493243A6
:107F92005F414444523E3E454550524F4D002020E1
:107FA20020202020205B3030312D3130305D005BCD
:107FB200416363657373202044656E6965645D0087
:107FC2005B416363657373204772616E7465645DC0
:107FD200005B53797374656D204572726F72200075
:107FE2004465766963652049442000312E302E3085
:0E7FF2000052657620005B4F4B5D007800006A
:020000040020DA
:08000000FFFFFFFFFFFFFFFF00
:020000040030CA
:0E000000FF08071EFF8981FF0FC00FE00F40B1
:0200000400F00A
:080000000000000000000000F8
:00000001FF
