:0400000081EF00F09C
:100008004882FACF09F0FBCF0AF0E9CF0BF0EACF2C
:100018000CF0E1CF0DF0E2CF0EF0D9CF0FF0DACF30
:1000280010F0F3CF11F0F4CF12F0F6CF13F0F7CFB2
:1000380014F0F8CF15F0F5CF16F07DEC0AF09EA677
:100048003ED0C7BA13D0000E466EC7B0C9CF17F05E
:10005800C7A431D0C69E4750010D000EF324D96EB7
:10006800010EF420DA6EDF50C96E24D0462AC7B0DC
:10007800C9CF17F0C7A40ED0C69E4750010D000E79
:10008800F324D96E010EF420DA6EDF50C96E472AC8
:100098008C8C11D04604D8A403D017C047F00BD0DD
:1000A8004750010D200EF324D96E010EF420DA6EAC
:1000B80017C0DFFF472A1F0E47169E96C68816C030
:1000C800F5FF15C0F8FF14C0F7FF13C0F6FF12C004
:1000D800F4FF11C0F3FF10C0DAFF0FC0D9FF0EC044
:1000E800E2FF0DC0E1FF0CC0EAFF0BC0E9FF0AC048
:1000F800FBFF09C0FAFF4892110006EF0BF0000E53
:100108000101716F000E0101706F5F0E0101726FC6
:100118000BEC0CF045EC0BF04FEC05F0000E010178
:10012800626F000E616F010162BF0AD00101625166
:1001380006E1200E0101615DD8B0A4D301D0A2D39D
:10014800200E01016125D96E010E01016221DA6ECE
:10015800300EDF6E0101614B622B010162BFF0D7E7
:100168000101625101E1E5D78DD3000E01016C6FE9
:10017800000E6B6F01016CBF08D001016C5127E1C3
:10018800090E01016B5DD8B022D0C30E01016B25A9
:10019800D96E000E01016C21DA6E300EDF6EBA0ED8
:1001A80001016B25D96E000E01016C21DA6E300E4B
:1001B800DF6E4A0E01016B25D96E010E01016C211B
:1001C800DA6E300EDF6E01016B4B6C2BD3D7000E4D
:1001D8000101716F010E1A6E010EE3EC0BF0270E90
:1001E8001C6E7F0E1D6E81EC0BF0010E1A6E020E56
:1001F800E3EC0BF0D20E1C6E7E0E1D6E81EC0BF044
:10020800010E1A6E020EE3EC0BF0B0D0090E0101DC
:100218007119D8B4AFD0020E1A6E020EE3EC0BF0CF
:10022800010171512F6E306A2F1E301E2F4A302A5D
:10023800090E2F26000E3022A20E2F24D96E000E92
:100248003020DA6EDF5053EC0CF0E0EC09F00101DD
:10025800726F5F0E01017219D8B488D0DD0E2F6E4F
:10026800FF0E306E01017251316E326A2F50312605
:100278003050322231503210D8A434D0010171519B
:100288000101D8B42FD001017151010D4A0EF32498
:10029800D96E010EF420DA6E3F0EDF6E0101715146
:1002A800070F1A6E020EE3EC0BF05F0E53EC0CF026
:1002B800720E186E010E196E6FEC0CF0010171517F
:1002C800080F1A6E020EE3EC0BF0200E53EC0CF044
:1002D80001017151070F1A6E020EE3EC0BF00101D8
:1002E800710744D0DD0E2F6EFF0E306E0101725182
:1002F800316E326A2F50312630503222315032104E
:10030800D8B434D02A0E01017219D8B433D0090EEA
:1003180001017119D8B42ED00101712BFF0E2F6E77
:10032800FF0E306E01017151316E326A2F50312645
:10033800305032224A0E3124D96E010E3220DA6E44
:1003480072C1DFFF01017151070F1A6E020EE3EC53
:100358000BF00101725153EC0CF05F0E53EC0CF0F2
:10036800720E186E010E196E6FEC0CF0090E010179
:1003780071654CD7000E0101586F000E576F0101CF
:1003880058BF08D00101585110E10A0E0101575D0C
:10039800D8B00BD0340E2F6EF20EE82EFED72F2ECB
:1003A800FCD70101574B582BEAD7000E0101686FA3
:1003B800000E676F55D0FF0E2F6EFF0E306E67C1AF
:1003C80031F068C132F0311E321E314A322A010141
:1003D8007151336E346A31503326325034222F50E3
:1003E8003326305034224A0E3324D96E010E34207D
:1003F800DA6E67C135F068C136F0351E361E354AEB
:10040800362A080E3526000E3622C30E3524E16E34
:10041800000E3620E26EDFCFE7FFFF0E2F6EFF0ED5
:10042800306E67C131F068C132F0311E321E314A78
:10043800322A01017151336E346A315033263250F9
:1004480034222F503326305034224A0E3324D96EAA
:10045800010E3420DA6E300EDF6E0101674B682B17
:10046800010171512F6E306A2F500101675D010142
:100478006851800A316E3050800A3158D8A09BD715
:10048800DAEC0CF0000E266E640E256E0FEC09F007
:10049800000E0101706F010E1A6E010EE3EC0BF0F5
:1004A8005A0E1C6E7F0E1D6E81EC0BF0010E1A6E3B
:1004B800020EE3EC0BF0D20E1C6E7E0E1D6E81EC6C
:1004C8000BF0010E1A6E020EE3EC0BF0B8D0090E19
:1004D80001017019D8B4B7D020EEACF011EE40F09D
:1004E800090EDBCFE3FFE806FCE2020E1A6E020EED
:1004F800E3EC0BF0010170512F6E306A2F1E301E95
:100508002F4A302A090E2F26000E3022400E2F24A3
:10051800D96E010E3020DA6EDF5053EC0CF0E0ECAF
:1005280009F00101726F5F0E01017219D8B487D00A
:10053800DD0E2F6EFF0E306E01017251316E326A80
:100548002F5031263050322231503210D8A434D0B6
:10055800010170510101D8B42FD001017051010D72
:100568004A0EF324D96E010EF420DA6E3F0EDF6EC8
:1005780001017051070F1A6E020EE3EC0BF05F0ECB
:1005880053EC0CF0720E186E010E196E6FEC0CF035
:1005980001017051080F1A6E020EE3EC0BF0200EE9
:1005A80053EC0CF001017051070F1A6E020EE3ECC8
:1005B8000BF00101700743D0DD0E2F6EFF0E306E79
:1005C80001017251316E326A2F5031263050322279
:1005D80031503210D8B433D02A0E01017219D8B470
:1005E80032D0090E01017019D8B42DD00101702B39
:1005F800FF0E2F6EFF0E306E01017051316E326AA0
:100608002F503126305032224A0E3124D96E010E35
:100618003220DA6E72C1DFFF01017051070F1A6EC6
:10062800020EE3EC0BF02A0E53EC0CF05F0E53ECC9
:100638000CF0720E186E010E196E6FEC0CF0090EAC
:100648000101706544D7000E0101646F000E636FED
:1006580035D0FF0E2F6EFF0E306E63C131F064C1CE
:1006680032F0311E321E314A322A01017051336E86
:10067800346A31503326325034222F5033263050CA
:1006880034224A0E3324D96E010E3420DA6E63C147
:1006980035F064C136F0351E361E354A362A080E46
:1006A8003526000E3622BA0E3524E16E000E3620AD
:1006B800E26EDFCFE7FF0101634B642B010170514C
:1006C8002F6E306A2F500101635D01016451800A69
:1006D800316E3050800A3158D8A0BBD7DAEC0CF014
:1006E800000E266E640E256E0FEC09F036EC0AF04B
:1006F800300E01012019D8B4FBD7F29E000E01017B
:10070800666F000E656F010166BF08D00101665172
:1007180019E1200E0101655DD8B014D0000E010169
:100728006525D96E010E01016621DA6E300EDF6E85
:100738000101654B662B010166BFF0D701016651C7
:1007480001E1E7D720C156F1A10E01015619D8A43D
:1007580031D0010E1A6E010EE3EC0BF0D10E1C6EB7
:100768007F0E1D6E81EC0BF0010E1A6E020EE3EC8B
:100778000BF0050E1C6E7F0E1D6E81EC0BF0000E4B
:1007880001015A6F000E596F01015ABF08D00101CB
:100798005A5177E1640E0101595DD8B072D0340E18
:1007A8002F6EF20EE82EFED72F2EFCD70101594BE3
:1007B8005A2BEAD7A00E01015619D8A431D0010E40
:1007C8001A6E010EE3EC0BF0C00E1C6E7F0E1D6E50
:1007D80081EC0BF0010E1A6E020EE3EC0BF0F40E36
:1007E8001C6E7E0E1D6E81EC0BF0000E01015C6F1D
:1007F800000E5B6F01015CBF08D001015C5141E153
:10080800640E01015B5DD8B03CD0340E2F6EF20E41
:10081800E82EFED72F2EFCD701015B4B5C2BEAD7C5
:10082800010E1A6E010EE3EC0BF09E0E1C6E7F0E8D
:100838001D6E81EC0BF0010E1A6E020EE3EC0BF04C
:10084800F40E1C6E7E0E1D6E81EC0BF0000E010185
:100858005E6F000E5D6F01015EBF08D001015E5141
:1008680010E1640E01015D5DD8B00BD0340E2F6E1F
:10087800F20EE82EFED72F2EFCD701015D4B5E2B22
:10088800EAD7F28E0001CD51D8B46FD4010E1A6E9A
:10089800010EE3EC0BF0010E01015F6F000E010188
:1008A800556F000E01016A6F000E696F01016ABF82
:1008B80008D001016A512AE1090E0101695DD8B029
:1008C80025D0C30E01016925D96E000E01016A21E8
:1008D800DA6E300EDE18D8A405D001015F5101018F
:1008E800D8A410D0000E01015F6F0101552BC30E73
:1008F80001016925D96E000E01016A21DA6EDF5007
:1009080053EC0CF00101694B6A2BD0D7000E0101A2
:10091800546F000E536F06D0200E53EC0CF00101FB
:10092800534B542B010155512F6E306A2F1E301E28
:100938002F4A302A0D0E2F26000E30222F5001018B
:10094800535D01015451800A316E3050800A31588C
:10095800D8A0E2D70E0E1A6E010EE3EC0BF0B9C068
:100968006FF10001CE51F10F0101606F60C118F005
:10097800196A000E1B6E640E1A6EC4EC0AF0185049
:1009880001016F6F01016F51640DF31EF41EF34AEC
:10099800F42A01016051F324186E000EF420196E38
:1009A800000E1B6E0A0E1A6EC4EC0AF018500101F4
:1009B800706F010170510A0DF3CF2FF001016F51D3
:1009C800640DF3502F240008010160250101716FA7
:1009D800010E01015F6F000E01016E6F000E6D6F59
:1009E80001016EBF08D001016E5148E1030E0101FB
:1009F8006D5DD8B043D06F0E01016D25D96E010E23
:100A080001016E21DA6EDF502F6E2F50010DA20EFC
:100A1800F324D96E000EF420DA6E6F0E01016D25F5
:100A2800E16E010E01016E21E26EDFCFE7FF6F0E6E
:100A380001016D25D96E010E01016E21DA6E300EAD
:100A4800DE18D8A409D001015F510101D8B404D03F
:100A5800200E53EC0CF00ED0000E01015F6F6F0EEC
:100A680001016D25D96E010E01016E21DA6EDF508C
:100A780053EC0CF001016D4B6E2BB2D7010E1A6EC0
:100A8800020EE3EC0BF0C10E1C6E7E0E1D6E81ECA7
:100A98000BF092EF00F0DAEC0CF0010E1A6E010E7A
:100AA800E3EC0BF0E30E1C6E7E0E1D6E81EC0BF07A
:100AB800000E0001756F000E746F000175BF08D03D
:100AC8000001755112E1140E0001745DD8B00DD00B
:100AD800680E2B6EE40EE82EFED72B2EFCD700F006
:100AE80000F00001744B752BE8D7010E1A6E020E48
:100AF800E3EC0BF0F30E1C6E7F0E1D6E81EC0BF019
:100B0800ED0E1C6E7F0E1D6E81EC0BF0000E0001C9
:100B1800776F000E766F000177BF08D0000177511C
:100B280012E1320E0001765DD8B00DD0680E2B6E42
:100B3800E40EE82EFED72B2EFCD700F000F00001C3
:100B4800764B772BE8D7010E1A6E020EE3EC0BF00A
:100B5800E20E1C6E7F0E1D6E81EC0BF00001CE5173
:100B6800D8B404D00001CE51F10F01D0000E00011D
:100B78008A6F8AC018F0196A000E1B6E640E1A6E0E
:100B8800C4EC0AF0185000018E6F00018E51640DFC
:100B9800F31EF41EF34AF42A00018A51F324186E56
:100BA800000EF420196E000E1B6E0A0E1A6EC4ECAD
:100BB8000AF0185000018B6F00018B510A0DF3CF1A
:100BC8002BF000018E51640DF3502B240008000116
:100BD8008A250001726F00018E51010DA20EF324C7
:100BE800D96E000EF420DA6EDF5053EC0CF00001E1
:100BF8008B51010DA20EF324D96E000EF420DA6E8B
:100C0800DF5053EC0CF000017251010DA20EF324D9
:100C1800D96E000EF420DA6EDF5053EC0CF07C0E27
:100C280053EC0CF0CEC018F0196A000E1B6E100EB3
:100C38001A6EC4EC0AF0920E1824D96E000E192010
:100C4800DA6EDF5053EC0CF0CEC018F0196A000EC3
:100C58001B6E100E1A6EC4EC0AF0183A193AF00E10
:100C6800191618500F0B1912F00E1816181E191E07
:100C7800184A192A0001CE512B6E2C6A18502B26BF
:100C880019502C22920E2B24D96E000E2C20DA6ECD
:100C9800DF5053EC0CF0000E0001796F000E786FF6
:100CA800000179BF08D00001795112E1280E000136
:100CB800785DD8B00DD0680E2B6EE40EE82EFED706
:100CC8002B2EFCD700F000F00001784B792BE8D7E9
:100CD800DAEC0CF0010E1A6E010EE3EC0BF0380E94
:100CE8001C6E7F0E1D6E81EC0BF0020E266EBC0E84
:100CF800256E0FEC09F0000E0001906F0001CE5137
:100D0800D8A485D2000E0001736F010E1A6E010E71
:100D1800E3EC0BF07C0E1C6E7F0E1D6E81EC0BF06D
:100D2800010E266E2C0E256E0FEC09F0B6C087F06A
:100D3800B7C088F0B8C089F065D2010E1A6E010EEE
:100D4800E3EC0BF0490E1C6E7F0E1D6E81EC0BF070
:100D5800010E1A6E020EE3EC0BF0AF0E1C6E7F0E46
:100D68001D6E81EC0BF0010E1A6E020EE3EC0BF017
:100D78005F0E53EC0CF081D0E0EC09F000018F6FAE
:100D88005F0E00018F19D8B478D0DD0E2B6EFF0EE0
:100D98002C6E00018F512D6E2E6A2B502D262C5053
:100DA8002E222D502E10D8A42FD0000190510001D2
:100DB800D8B42AD000019051010D870EF324D96EC2
:100DC800000EF420DA6E000EDF6E90C01AF0020EEC
:100DD800E3EC0BF05F0E53EC0CF08F0E186E000E68
:100DE800196E6FEC0CF0000190291A6E020EE3ECFC
:100DF8000BF0200E53EC0CF090C01AF0020EE3EC4E
:100E08000BF00001900739D0DD0E2B6EFF0E2C6E13
:100E180000018F512D6E2E6A2B502D262C502E221C
:100E28002D502E10D8B429D02A0E00018F19D8B40D
:100E380028D0030E00019019D8B423D00001905196
:100E4800010D870EF324D96E000EF420DA6E8FC0E0
:100E5800DFFF0001902B90C01AF0020EE3EC0BF0BC
:100E680000018F5153EC0CF05F0E53EC0CF08F0E19
:100E7800186E000E196E6FEC0CF0020E00019065F2
:100E88007BD7000E0001916F000E00018D6F000EE0
:100E98008C6F00018DBF08D000018D511CE1030E3D
:100EA80000018C5DD8B017D0800E00018C25D96E5A
:100EB800000E00018D21DA6E870E00018C25E16E8F
:100EC800000E00018D21E26EE750D00FDF6E0001A9
:100ED8008C4B8D2BDED700018751D00F640DF3505A
:100EE8000001912700018851D00F0A0DF35000012D
:100EF800912700018951D00F0001912791C0CFF0AF
:100F08000F0E00019127000180510001D8A408D0DC
:100F180000018151D8A410D000018251D8A40CD06E
:100F280000018005D8A412D100018151D8A40ED1A6
:100F380000018251D8A40AD191C018F0196A000E94
:100F48001B6E640E1A6EC4EC0AF0185000018E6F06
:100F580000018E51640DF31EF41EF34AF42A0001B9
:100F68009151F324186E000EF420196E000E1B6EBA
:100F78000A0E1A6EC4EC0AF0185000018B6F0001BB
:100F88008B510A0DF3CF2BF000018E51640DF350F5
:100F98002B240008000191250001726F91C018F000
:100FA800196A000E1B6E100E1A6EC4EC0AF0185067
:100FB80000016E6F91C018F0196A000E1B6E100EBA
:100FC8001A6EC4EC0AF01838F00B000800019125DD
:100FD80000016F6FDAEC0CF0010E1A6E010EE3ECF3
:100FE8000BF0490E1C6E7F0E1D6E81EC0BF0010E8E
:100FF8001A6E020EE3EC0BF0000E0001846F000E77
:10100800836F000184BF08D00001845114E1030EEE
:101018000001835DD8B00FD0870E00018325D96EFB
:10102800000E00018421DA6EDF5053EC0CF0000151
:10103800834B842BE6D7070E1A6E020EE3EC0BF0F7
:10104800F80E1C6E7F0E1D6E81EC0BF00E0E1A6EE4
:10105800020EE3EC0BF0FD0E1C6E7F0E1D6E81EC94
:101068000BF000016E51010D920EF324D96E000EA3
:10107800F420DA6EDF5053EC0CF000016F51010DD3
:10108800920EF324D96E000EF420DA6EDF5053EC82
:101098000CF0000E00017B6F000E7A6F00017BBF21
:1010A80008D000017B5118E1320E00017A5DD8B0FA
:1010B80013D0680E2B6EE40EE82EFED72B2EFCD72D
:1010C80000F000F000017A4B7B2B00017BBFF1D7C9
:1010D80000017B5101E1E8D791C0CEF0CEC018F0F5
:1010E8000001CC51C8EC0CF0DAEC0CF0010E1A6ED1
:1010F800010EE3EC0BF08D0E1C6E7F0E1D6E81EC65
:101108000BF0000E00017D6F000E7C6F00017DBFAB
:1011180008D000017D5112E10A0E00017C5DD8B0B3
:101128000DD0680E2B6EE40EE82EFED72B2EFCD7C2
:1011380000F000F000017C4B7D2BE8D7010E266EF5
:10114800F40E256E0FEC09F0FF005CD00001915100
:101158000001D8A405D06B0E0001706F7F0E04D07B
:10116800160E0001706F7F0E0001716F010E1A6E6E
:10117800020EE3EC0BF070C01CF071C01DF081ECA6
:101188000BF0000E00017F6F000E7E6F00017FBF25
:1011980008D000017F5112E1320E00017E5DD8B007
:1011A8000DD0680E2B6EE40EE82EFED72B2EFCD742
:1011B80000F000F000017E4B7F2BE8D7000E000105
:1011C800866F000E856F000186BF08D0000186512A
:1011D80013E1030E0001855DD8B00ED0870E000123
:1011E8008525D96E000E00018621DA6E300EDF6E7D
:1011F8000001854B862BE7D7000E0001736F000EA8
:101208000001906F00017305D8B4120096D5010E45
:101218000001736F1200010E1A6E020EE3EC0BF060
:10122800000E1B6E140E1A6E25C027F026C028F07B
:10123800040E296ED89028322732292EFBD727C0D2
:1012480018F028C019F0BAEC0BF018C01FF019C03C
:1012580020F0000E226E140E216EB5EC0CF01FC0AB
:1012680060F020C061F00001626B636B000E00014A
:10127800676F000E666F000167BF08D000016751F5
:1012880037E1100E0001665DD8B032D0FF0E53EC86
:101298000CF0000E0001656F000E646F0ED0680E32
:1012A800276EE40EE82EFED7272EFCD700F000F0BC
:1012B800140E00016427000E652364C027F065C082
:1012C80028F0000E28BEFF0E296E2A6E000160511C
:1012D800275C00016151285800016251295800011A
:1012E80063512A58D8A0DBD70001664B672BC3D7B8
:1012F800010E1A6E020EE3EC0BF0C10E1C6E7E0E90
:101308001D6E81EC0BF0000E0001696F000E686F16
:10131800000169BF08D00001695112E1050E000102
:10132800685DD8B00DD0680E276EE40EE82EFED7A3
:10133800272EFCD700F000F00001684B692BE8D796
:10134800010E1A6E020EE3EC0BF0000E00016B6F3B
:10135800000E6A6F00016BBF08D000016B510CE1F1
:10136800100E00016A5DD8B007D0FF0E53EC0CF0E8
:1013780000016A4B6B2BEED7000E00016D6F000E5B
:101388006C6F00016DBF08D000016D5112E1050EB0
:1013980000016C5DD8B00DD0680E276EE40EE82E03
:1013A800FED7272EFCD700F000F000016C4B6D2B08
:1013B800E8D7DAEC0CF012001F0E936E180E946E3C
:1013C800000E956E010E836E81A804D0000E826E09
:1013D8002A0E120081A204D0000E826E310E120075
:1013E80081A404D0000E826E340E120081A604D0AF
:1013F800000E826E370E1200020E836E81A204D098
:10140800000E826E320E120081A404D0000E826E8D
:10141800350E120081A604D0000E826E380E12001E
:1014280081A804D0000E826E300E1200040E836E66
:1014380081A204D0000E826E330E120081A404D063
:10144800000E826E360E120081A604D0000E826E47
:10145800390E120081A804D0000E826E230E1200ED
:101468005F0E1200000E1D6E000E1C6E1DBE06D013
:101478001D5015E1090E1C5CD8B011D0C30E1C24F8
:10148800D96E000E1D20DA6E000E1C24E16E010ECE
:101498001D20E26EDFCFE7FF1C4A1D2AE7D7000EAA
:1014A8001F6E090E1E6E1FBE06D01F5021E1120EC0
:1014B8001E5CD8B01200F70E186EFF0E196E1EC013
:1014C8001AF01FC01BF018501A2619501B22BA0E0A
:1014D8001A24D96E000E1B20DA6E000E1E24E16E4F
:1014E800010E1F20E26EDFCFE7FF1E4A1F2ADBD75F
:1014F8001200000E066E000E056E06BE06D00650DF
:1015080015E1090E055CD8B011D0C30E0524D96EBB
:10151800000E0620DA6E000E0524E16E010E06208C
:10152800E26EDFCFE7FF054A062AE7D7000E086E0E
:10153800090E076E08BE06D0085021E1120E075C9E
:10154800D8B01200F70E016EFF0E026E07C003F04E
:1015580008C004F00150032602500422BA0E0324E6
:10156800D96E000E0420DA6E000E0724E16E010E1B
:101578000820E26EDFCFE7FF074A082ADBD7120010
:10158800000E1D6E1BAE06D01A6C1B1ED8B01B2A8F
:10159800010E1D6E19AE06D0186C191ED8B0192A86
:1015A800010E1D1A000E1F6E000E1E6E1A501B1023
:1015B800D8B41CD0010E1C6E04D0D8901A361B3635
:1015C8001C2A1BAEFAD7D8901E361F361A50185C44
:1015D8001B501958D8A005D01A50185E1B50195A1C
:1015E8001E80D8901B321A321C2EEDD71D50D8B44D
:1015F80004D01E6C1F1ED8B01F2A1EC018F01FC0B2
:1016080019F0120000EEBAF0140EEE6AE806FDE1D9
:10161800476A466A660EF66E180EF76E000EF86E8A
:1016280001EE00F010EE40F00900F5CFEEFFE550B6
:10163800E150FAE1420EF66E190EF76E000EF86EE2
:1016480000EE92F010EE28F00900F5CFEEFFE5501D
:10165800E150FAE1000EF66E1A0EF76E000EF86E03
:1016680000EE37F010EE0FF00900F5CFEEFFE55071
:10167800E150FAE148904892000EF86E000183EFBD
:1016880000F0000E8BEC0CF0680E1A6EE40EE82EDB
:10169800FED71A2EFCD700F000F0030EEAEC0CF08F
:1016A8001A0E1A6EF80EE82EFED71A2EFCD700F086
:1016B80000F0030EEAEC0CF03A0E1A6E230EE82E38
:1016C800FED71A2EFCD700F0030EEAEC0CF0020E3F
:1016D800EAEC0CF0020EEAEC0CF0080EEAEC0CF066
:1016E800000EEAEC0CF00C0EEAEC0CF0000EEAEC42
:1016F8000CF0060EEAEC0CF01200000E216E000E43
:10170800206E1AD020501C241E6E21501D201F6EE2
:101718001EC0F6FF1FC0F7FFF86A050EF76403D076
:101728000800F55005D0F6CFE9FFF7CFEAFFEF50F4
:1017380053EC0CF0204A212A20501C241E6E215004
:101748001D201F6E1EC0F6FF1FC0F7FFF86A050EAA
:10175800F76403D00800F55005D0F6CFE9FFF7CFBE
:10176800EAFFEF500009D8B41200CCD7000E1E6E65
:10177800000E1D6E1A501B10D8B41CD0010E1C6E22
:1017880004D0D8901A361B361C2A1BAEFAD7D8902C
:101798001D361E361A50185C1B501958D8A005D093
:1017A8001A50185E1B50195A1D80D8901B321A32D5
:1017B8001C2EEDD71DC018F01EC019F012001B6EAC
:1017C8001B04D8A410D01A507F0F1E6E1E380F0BA2
:1017D8001C6E1E500F0B1D6E1C50EAEC0CF01D50B9
:1017E800EAEC0CF01200020E1B18D8A412001A50D2
:1017F800BF0F1E6E1E380F0B1C6E1E500F0B1D6E7A
:101808001C50EAEC0CF01D50EAEC0CF01200000140
:10181800CC51F6EC0CF00001CE6F0001CE51F10F67
:101828000001CF6F600ED36E9B9C000E926E010E6E
:10183800936E180E946E000E956E180E8B6E000146
:10184800CE51020DF3CFC8FF360EC66E000EC76E1E
:10185800010EC56E9E969D86F28EF28C12003000A7
:101868000000000000000000000000000000000070
:101878000000000000000000000000000000300030
:101888000000000000000000000000000000000050
:1018980000000000000000000000000000001B6EB7
:1018A8001B500F0B196E1B50F00B1A6E838A1A38D7
:1018B8000F0B8BEC0CF08388350EE82EFED700F06A
:1018C800839819508BEC0CF08388350EE82EFED7E0
:1018D80000F08398120009D0680E1A6EE40EE82E04
:1018E800FED71A2EFCD700F000F018C0D9FF19C097
:1018F800DAFFE0EC09F01B6EDE501B18D8B4ECD709
:1019080018C0D9FF19C0DAFF5F0EDF6E1200186E1B
:1019180018A002D0838001D0839018A202D08382BD
:1019280001D0839218A402D0838401D0839418A68E
:1019380002D0838612008396120030313233343558
:1019480036373839414243444546303132333435ED
:101958003637383930313233343536373839303034
:1019680030201F502102F3CF23F0F4CF24F01F5072
:101978002202F350242620502102F350242623C0AB
:101988001FF024C020F01200196E19C0A9FF18C05A
:10199800A8FFA69EA69CA684550EA76EAA0EA76EA3
:1019A800A682A1A8FED7A198A6941200000EEAEC80
:1019B8000CF0010EEAEC0CF01A0E1A6EF80EE82E76
:1019C800FED71A2EFCD700F000F01200196E839A89
:1019D80019508BEC0CF08388C80E00F0E82EFDD768
:1019E80083981200186E18C0A9FFA69EA69CA68010
:1019F800A6B0FED7A850120030313233343536370E
:071A0800383930303A30306C
:107EC00000202020202020202020202020202020D2
:107ED00020005B205D20202020202020202020204A
:107EE0002020002020205B2041646974756D205D96
:107EF00020202000202020205B20526574727920F1
:107F00005D20202000202020205B57656C636F6D72
:107F1000655D202020004F7574206F6620626F75AC
:107F20006E647321202000456E74657220796F7530
:107F3000722049443A20200020205B2020416469BF
:107F400074756D20205D2020004E6577204D6163A3
:107F500068696E652049443A2000456E7465722058
:107F6000796F75722050494E3A20004D6179206E2C
:107F70006F74206265207A65726F21004C6F6164B6
:107F8000204932432073657475702E2E00493243A8
:107F90005F414444523E3E454550524F4D005B20A8
:107FA00053797374656D204572726F72205D002085
:107FB0002020202020205B3030312D3130305D00FA
:107FC0005B416363657373202044656E6965645D1E
:107FD000005B416363657373204772616E7465640F
:107FE0005D004465766963652049442000312E3088
:107FF0002E300052657620005B4F4B5D007800000C
:020000040020DA
:08000000FFFFFFFFFFFFFFFF00
:020000040030CA
:0E000000FF08071EFF8985FF0FC00FE00F40AD
:0200000400F00A
:080000000000000000000000F8
:00000001FF
