:0400000081EF00F09C
:100008004082FACF09F0FBCF0AF0E9CF0BF0EACF34
:100018000CF0E1CF0DF0E2CF0EF0D9CF0FF0DACF30
:1000280010F0F3CF11F0F4CF12F0F6CF13F0F7CFB2
:1000380014F0F8CF15F0F5CF16F0F8EC0BF09EA6FB
:100048003ED0C7BA13D0000E3E6EC7B0C9CF17F066
:10005800C7A431D0C69E3F50010D000EF324D96EBF
:10006800010EF420DA6EDF50C96E24D03E2AC7B0E4
:10007800C9CF17F0C7A40ED0C69E3F50010D000E81
:10008800F324D96E010EF420DA6EDF50C96E3F2AD0
:100098008C8C11D03E04D8A403D017C03FF00BD0ED
:1000A8003F50010D000EF324D96E010EF420DA6ED4
:1000B80017C0DFFF3F2A1F0E3F169E96C68816C040
:1000C800F5FF15C0F8FF14C0F7FF13C0F6FF12C004
:1000D800F4FF11C0F3FF10C0DAFF0FC0D9FF0EC044
:1000E800E2FF0DC0E1FF0CC0EAFF0BC0E9FF0AC048
:1000F800FBFF09C0FAFF409211008DEF0CF0000ED3
:1001080001017C6F000E01017B6F5F0E01017D6FA5
:10011800BAEC0DF0CCEC0CF0CBEC05F0B8EF04F039
:10012800000E0101736F000E726F010173BF08D0DA
:100138000101735127E1090E0101725DD8B022D087
:10014800D30E01017225D96E000E01017321DA6EFA
:10015800300EDF6ECA0E01017225D96E000E010144
:100168007321DA6E300EDF6E5A0E01017225D96ED8
:10017800010E01017321DA6E300EDF6E0101724B40
:10018800732BD3D7000E01017C6F010E1A6E010E7E
:1001980092EC0DF0F40E1C6E7E0E1D6E08EC0DF048
:1001A800010E1A6E020E92EC0DF08E0E1C6E7E0E73
:1001B8001D6E08EC0DF0010E1A6E020E92EC0DF099
:1001C800D0D0090E01017C19D8B4CFD0020E1A6E16
:1001D800020E92EC0DF001017C510001A06FA16BA1
:1001E8000001A01FA11FA04BA12B090E0001A027F1
:1001F800000EA123A90E0001A025D96E000E000152
:10020800A121DA6EDF50E2EC0DF0A2EC0BF0010157
:100218007D6F5F0E01017D19D8B4A3D0DD0E0001FA
:10022800A06FFF0E0001A16F01017D510001A26FB7
:10023800A36B0001A0510001A2270001A1510001F8
:10024800A3230001A2510001A311D8A434D00101B5
:100258007C510101D8B42FD001017C51010D5A0EF7
:10026800F324D96E010EF420DA6E3F0EDF6E010121
:100278007C51070F1A6E020E92EC0DF05F0EE2EC45
:100288000DF07D0E186E010E196EFEEC0DF00101D9
:100298007C51080F1A6E020E92EC0DF0200EE2EC63
:1002A8000DF001017C51070F1A6E020E92EC0DF051
:1002B80001017C0756D0DD0E0001A06FFF0E000182
:1002C800A16F01017D510001A26FA36B0001A05134
:1002D8000001A2270001A1510001A3230001A2519E
:1002E8000001A311D8B43DD02A0E01017D19D8B45C
:1002F8003CD0090E01017C19D8B437D001017C2B00
:10030800FF0E0001A06FFF0E0001A16F01017C51DB
:100318000001A26FA36B0001A0510001A2270001F8
:10032800A1510001A3235A0E0001A225D96E010E86
:100338000001A321DA6E7DC1DFFF01017C51070FA7
:100348001A6E020E92EC0DF001017D51E2EC0DF0F7
:100358005F0EE2EC0DF07D0E186E010E196EFEECCC
:100368000DF0090E01017C652CD7000E0101676FA5
:10037800000E666F010167BF08D00101675111E1E6
:100388000A0E0101665DD8B00CD0340E0001A06FD2
:10039800F20EE82EFED7A02FFCD70101664B672B83
:1003A800E9D7000E01016F6F000E6E6F75D0FF0E5A
:1003B8000001A06FFF0E0001A16F6EC1A2F06FC116
:1003C800A3F00001A21FA31FA24BA32B01017C5184
:1003D8000001A46FA56B0001A2510001A427000130
:1003E800A3510001A5230001A0510001A427000189
:1003F800A1510001A5235A0E0001A425D96E010EB2
:100408000001A521DA6E6EC1A6F06FC1A7F0000148
:10041800A61FA71FA64BA72B080E0001A627000E94
:10042800A723D30E0001A625E16E000E0001A72127
:10043800E26EDFCFE7FFFF0E0001A06FFF0E0001A5
:10044800A16F6EC1A2F06FC1A3F00001A21FA31F8C
:10045800A24BA32B01017C510001A46FA56B0001E5
:10046800A2510001A4270001A3510001A523000106
:10047800A0510001A4270001A1510001A5235A0E93
:100488000001A425D96E010E0001A521DA6E300EF7
:10049800DF6E01016E4B6F2B01017C510001A06FD3
:1004A800A16B0001A05101016E5D01016F51800A2D
:1004B8000001A26F0001A151800A0001A259D8A031
:1004C80076D766EC0EF0000E266E640E256ED1EC23
:1004D8000AF0000E01017B6F010E1A6E010E92ECFC
:1004E8000DF0270E1C6E7F0E1D6E08EC0DF0010E30
:1004F8001A6E020E92EC0DF08E0E1C6E7E0E1D6EA4
:1005080008EC0DF0010E1A6E020E92EC0DF0D8D028
:10051800090E01017B19D8B4D7D020EEB3F011EE43
:1005280050F0090EDBCFE3FFE806FCE2020E1A6E7C
:10053800020E92EC0DF001017B510001A06FA16B3E
:100548000001A01FA11FA04BA12B090E0001A0278D
:10055800000EA123500E0001A025D96E010E000146
:10056800A121DA6EDF50E2EC0DF0A2EC0BF00101F4
:100578007D6F5F0E01017D19D8B4A2D0DD0E000198
:10058800A06FFF0E0001A16F01017D510001A26F54
:10059800A36B0001A0510001A2270001A151000195
:1005A800A3230001A2510001A311D8A434D0010152
:1005B8007B510101D8B42FD001017B51010D5A0E96
:1005C800F324D96E010EF420DA6E3F0EDF6E0101BE
:1005D8007B51070F1A6E020E92EC0DF05F0EE2ECE3
:1005E8000DF07D0E186E010E196EFEEC0DF0010176
:1005F8007B51080F1A6E020E92EC0DF0200EE2EC01
:100608000DF001017B51070F1A6E020E92EC0DF0EE
:1006180001017B0755D0DD0E0001A06FFF0E000120
:10062800A16F01017D510001A26FA36B0001A051D0
:100638000001A2270001A1510001A3230001A2513A
:100648000001A311D8B43CD02A0E01017D19D8B4F9
:100658003BD0090E01017B19D8B436D001017B2BA0
:10066800FF0E0001A06FFF0E0001A16F01017B5179
:100678000001A26FA36B0001A0510001A227000195
:10068800A1510001A3235A0E0001A225D96E010E23
:100698000001A321DA6E7DC1DFFF01017B51070F45
:1006A8001A6E020E92EC0DF02A0EE2EC0DF05F0EBF
:1006B800E2EC0DF07D0E186E010E196EFEEC0DF0D9
:1006C800090E01017B6524D7000E01016D6F000E34
:1006D8006C6F47D0FF0E0001A06FFF0E0001A16FE5
:1006E8006CC1A2F06DC1A3F00001A21FA31FA24B11
:1006F800A32B01017B510001A46FA56B0001A2513E
:100708000001A4270001A3510001A5230001A05165
:100718000001A4270001A1510001A5235A0E0001E0
:10072800A425D96E010E0001A521DA6E6CC1A6F0D0
:100738006DC1A7F00001A61FA71FA64BA72B080E87
:100748000001A627000EA723CA0E0001A625E16E08
:10075800000E0001A721E26EDFCFE7FF01016C4B1D
:100768006D2B01017B510001A06FA16B0001A0510D
:1007780001016C5D01016D51800A0001A26F000149
:10078800A151800A0001A259D8A0A4D766EC0EF0A6
:10079800000E266E640E256ED1EC0AF0000E0101E3
:1007A800756F000E746F010175BF08D00101755196
:1007B80041E1090E0101745DD8B03CD0D30E0101AE
:1007C8007425D96E000E01017521DA6E010E010142
:1007D80074250001A06F000E010175210001A16FB1
:1007E800000E0001A025E16E010E0001A121E26EBC
:1007F800DFCFE7FFCA0E01017425D96E000E010193
:100808007521DA6E0A0E010174250001A06F000E31
:10081800010175210001A16F000E0001A025E16E04
:10082800010E0001A121E26EDFCFE7FF0101744B49
:10083800752BB9D7010E0001DD6F000E0101776F2E
:10084800000E766F010177BF08D00101775154E19E
:10085800090E0101765DD8B04FD0CA0E0101762588
:10086800D96E000E01017721DA6E0A0E0101762594
:100878000001A16F000E010177210001A26F200E77
:100888000001A125E16E010E0001A221E26EDE50F9
:10089800E618D8B402D0010E01D0000E0001A46FF2
:1008A800D30E01017625D96E000E01017721DA6E8B
:1008B800010E010176250001A66F000E01017721C6
:1008C8000001A76F200E0001A625E16E010E0001B0
:1008D800A721E26EDE50E618D8B402D0010E01D08E
:1008E800000E0001A411E8A003D0000E0001DD6F86
:1008F8000101764B772BA6D70001DD51D8A434D05F
:10090800010E1A6E010E92EC0DF09E0E1C6E7F0EFB
:100918001D6E08EC0DF0010E1A6E020E92EC0DF031
:10092800D20E1C6E7E0E1D6E08EC0DF0000E01013D
:10093800696F000E686F010169BF08D00101695134
:1009480013E1C80E0101685DD8B00ED0680E000131
:10095800A06FE40EE82EFED7A02FFCD700F000F021
:100968000101684B692BE7D70001DD51D8B494EF3A
:1009780000F0010E1A6E010E92EC0DF0010E01014D
:100988006A6F000E0101656F000E0101716F000EA4
:10099800706F010171BF08D0010171512AE1090E80
:1009A8000101705DD8B025D0D30E01017025D96E34
:1009B800000E01017121DA6E300EDE18D8A405D0C0
:1009C80001016A510101D8A410D0000E01016A6F1B
:1009D8000101652BD30E01017025D96E000E0101AE
:1009E8007121DA6EDF50E2EC0DF00101704B712BD2
:1009F800D0D7000E0101646F000E636F06D0200E81
:100A0800E2EC0DF00101634B642B0101655100011B
:100A1800A06FA16B0001A01FA11FA04BA12B0D0E61
:100A28000001A027000EA1230001A0510101635D70
:100A380001016451800A0001A26F0001A151800ADE
:100A48000001A259D8A0DBD70E0E1A6E010E92EC47
:100A58000DF0C9C07AF10001DE51F10F01016B6F91
:100A68006BC118F0196A000E1B6E640E1A6E4BECFF
:100A78000CF0185001017A6F01017A51640DF31ED0
:100A8800F41EF34AF42A01016B51F324186E000E88
:100A9800F420196E000E1B6E0A0E1A6E4BEC0CF049
:100AA800185001017B6F01017B510A0DF3CFA0F0B3
:100AB80001017A51640DF3500001A02500080101DD
:100AC8006B2501017C6F010E01016A6F000E0101A7
:100AD800796F000E786F010179BF08D00101795153
:100AE8004AE1030E0101785DD8B045D07A0E0101C4
:100AF8007825D96E010E01017921DA6EDF500001E7
:100B0800A06F0001A051010DA90EF324D96E000EAB
:100B1800F420DA6E7A0E01017825E16E010E0101EA
:100B28007921E26EDFCFE7FF7A0E01017825D96ED1
:100B3800010E01017921DA6E300EDE18D8A409D031
:100B480001016A510101D8B404D0200EE2EC0DF085
:100B58000ED0000E01016A6F7A0E01017825D96E58
:100B6800010E01017921DA6EDF50E2EC0DF001018E
:100B7800784B792BB0D7010E1A6E020E92EC0DF05D
:100B88007D0E1C6E7E0E1D6E08EC0DF0EDD666EC2B
:100B98000EF0010E1A6E010E92EC0DF0C10E1C6ED5
:100BA8007E0E1D6E08EC0DF0000E00017F6F000E2A
:100BB8007E6F00017FBF08D000017F5112E1140E43
:100BC80000017E5DD8B00DD0680E2B6EE40EE82EC5
:100BD800FED72B2EFCD700F000F000017E4B7F2BB8
:100BE800E8D7010E1A6E020E92EC0DF0F20E1C6E92
:100BF8007F0E1D6E08EC0DF0EC0E1C6E7F0E1D6E48
:100C080008EC0DF0000E0001816F000E806F0001EE
:100C180081BF08D00001815112E1320E0001805DD0
:100C2800D8B00DD0680E2B6EE40EE82EFED72B2E12
:100C3800FCD700F000F00001804B812BE8D7010EB3
:100C48001A6E020E92EC0DF0E10E1C6E7F0E1D6EF8
:100C580008EC0DF00001DE51D8B404D00001DE51DB
:100C6800F10F01D0000E0001976F97C018F0196AB4
:100C7800000E1B6E640E1A6E4BEC0CF0185000013F
:100C88009B6F00019B51640DF31EF41EF34AF42A76
:100C980000019751F324186E000EF420196E000E0F
:100CA8001B6E0A0E1A6E4BEC0CF018500001986F70
:100CB800000198510A0DF3CF2BF000019B51640DF0
:100CC800F3502B2400080001972500017B6F0001D9
:100CD8009B51010DA90EF324D96E000EF420DA6E93
:100CE800DF50E2EC0DF000019851010DA90EF3243C
:100CF800D96E000EF420DA6EDF50E2EC0DF0000140
:100D08007B51010DA90EF324D96E000EF420DA6E82
:100D1800DF50E2EC0DF07C0EE2EC0DF0DEC018F0D6
:100D2800196A000E1B6E100E1A6E4BEC0CF0400E7A
:100D38001824D96E010E1920DA6EDF50E2EC0DF09E
:100D4800DEC018F0196A000E1B6E100E1A6E4BECFE
:100D58000CF0183A193AF00E191618500F0B191210
:100D6800F00E1816181E191E184A192A0001DE510D
:100D78002B6E2C6A18502B2619502C22400E2B242F
:100D8800D96E010E2C20DA6EDF50E2EC0DF0000E69
:100D98000001836F000E826F000183BF08D000013D
:100DA800835112E1280E0001825DD8B00DD0680E83
:100DB8002B6EE40EE82EFED72B2EFCD700F000F0A9
:100DC8000001824B832BE8D766EC0EF0010E1A6EF9
:100DD800010E92EC0DF0050E1C6E7F0E1D6E08ECD8
:100DE8000DF0020E266EBC0E256ED1EC0AF0000E38
:100DF80000019E6F0001DE51D8A485D2000E0001CB
:100E08007D6F010E1A6E010E92EC0DF05A0E1C6EDB
:100E18007F0E1D6E08EC0DF0010E266E2C0E256E51
:100E2800D1EC0AF0C6C094F0C7C095F0C8C096F0DF
:100E380065D2010E1A6E010E92EC0DF0160E1C6EA4
:100E48007F0E1D6E08EC0DF0010E1A6E020E92EC6C
:100E58000DF08D0E1C6E7F0E1D6E08EC0DF0010E50
:100E68001A6E020E92EC0DF05F0EE2EC0DF081D0DE
:100E7800A2EC0BF000019D6F5F0E00019D19D8B424
:100E880078D0DD0E2B6EFF0E2C6E00019D512D6E5D
:100E98002E6A2B502D262C502E222D502E10D8A4E1
:100EA8002FD000019E510001D8B42AD000019E51D4
:100EB800010D940EF324D96E000EF420DA6E000EA4
:100EC800DF6E9EC01AF0020E92EC0DF05F0EE2EC9F
:100ED8000DF09D0E186E000E196EFEEC0DF000015F
:100EE8009E291A6E020E92EC0DF0200EE2EC0DF027
:100EF8009EC01AF0020E92EC0DF000019E0739D048
:100F0800DD0E2B6EFF0E2C6E00019D512D6E2E6A8C
:100F18002B502D262C502E222D502E10D8B429D0EF
:100F28002A0E00019D19D8B428D0030E00019E197D
:100F3800D8B423D000019E51010D940EF324D96E2C
:100F4800000EF420DA6E9DC0DFFF00019E2B9EC0CC
:100F58001AF0020E92EC0DF000019D51E2EC0DF03A
:100F68005F0EE2EC0DF09D0E186E000E196EFEEC91
:100F78000DF0020E00019E657BD7000E00019F6FE9
:100F8800000E00019A6F000E996F00019ABF08D0F9
:100F980000019A511CE1030E0001995DD8B017D0E9
:100FA8008C0E00019925D96E000E00019A21DA6E87
:100FB800940E00019925E16E000E00019A21E26E5F
:100FC800E750D00FDF6E0001994B9A2BDED7000156
:100FD8009451D00F640DF35000019F2700019551E3
:100FE800D00F0A0DF35000019F2700019651D00F32
:100FF80000019F279FC0DFF00F0E00019F2700010F
:101008008C510001D8A408D000018D51D8A410D06B
:1010180000018E51D8A40CD000018C05D8A412D19F
:1010280000018D51D8A40ED100018E51D8A40AD147
:101038009FC018F0196A000E1B6E640E1A6E4BECF6
:101048000CF0185000019B6F00019B51640DF31EBA
:10105800F41EF34AF42A00019F51F324186E000E7F
:10106800F420196E000E1B6E0A0E1A6E4BEC0CF073
:1010780018500001986F000198510A0DF3CF2BF01A
:1010880000019B51640DF3502B24000800019F259B
:1010980000017B6F9FC018F0196A000E1B6E100EBE
:1010A8001A6E4BEC0CF018500001736F9FC018F0CB
:1010B800196A000E1B6E100E1A6E4BEC0CF01838E5
:1010C800F00B000800019F250001746F66EC0EF01C
:1010D800010E1A6E010E92EC0DF0160E1C6E7F0EAC
:1010E8001D6E08EC0DF0010E1A6E020E92EC0DF05A
:1010F800000E0001916F000E906F000191BF08D0A3
:101108000001915114E1030E0001905DD8B00FD099
:10111800940E00019025D96E000E00019121DA6E1F
:10112800DF50E2EC0DF00001904B912BE6D7070E53
:101138001A6E020E92EC0DF0F70E1C6E7F0E1D6EED
:1011480008EC0DF00E0E1A6E020E92EC0DF0FC0E6D
:101158001C6E7F0E1D6E08EC0DF000017351010D21
:10116800400EF324D96E010EF420DA6EDF50E2EC63
:101178000DF000017451010D400EF324D96E010EDB
:10118800F420DA6EDF50E2EC0DF0000E0001856FFE
:10119800000E846F000185BF08D00001855118E159
:1011A800320E0001845DD8B013D0680E2B6EE40EA9
:1011B800E82EFED72B2EFCD700F000F00001844B60
:1011C800852B000185BFF1D70001855101E1E8D7E2
:1011D8009FC0DEF0DEC018F00001DC5143EC0EF0D9
:1011E80066EC0EF0010E1A6E010E92EC0DF06B0E0D
:1011F8001C6E7F0E1D6E08EC0DF0000E0001876F4F
:10120800000E866F000187BF08D00001875112E1E8
:101218000A0E0001865DD8B00DD0680E2B6EE40E64
:10122800E82EFED72B2EFCD700F000F00001864BED
:10123800872BE8D7010E266EF40E256ED1EC0AF046
:10124800FF005CD000019F510001D8A405D0490ED1
:101258000001796F7F0E04D0E30E0001796F7E0ED6
:1012680000017A6F010E1A6E020E92EC0DF079C031
:101278001CF07AC01DF008EC0DF0000E0001896F1B
:10128800000E886F000189BF08D00001895112E162
:10129800320E0001885DD8B00DD0680E2B6EE40EBA
:1012A800E82EFED72B2EFCD700F000F00001884B6B
:1012B800892BE8D7000E0001936F000E926F000192
:1012C80093BF08D00001935113E1030E0001925D12
:1012D800D8B00ED0940E00019225D96E000E0001F0
:1012E8009321DA6E300EDF6E0001924B932BE7D715
:1012F800000E00017D6F000E00019E6F00017D054C
:10130800D8B4120096D5010E00017D6F41D1010EAF
:101318001A6E010E92EC0DF0AF0E1C6E7F0E1D6E54
:1013280008EC0DF0010E1A6E020E92EC0DF0C00ED4
:101338001C6E7F0E1D6E08EC0DF0010E1A6E010E6C
:1013480092EC0DF05F0E00019C6FA2EC0BF0000117
:101358009C6F5F0E00019C19D8B41AD1D60E2B6E63
:10136800FF0E2C6E00019C512D6E2E6A2B502D26DF
:101378002C502E222D502E10D8A401D120EEBDF0D5
:1013880010EE6EF0040EDBCFE3FFE806FCE2C2C00D
:1013980075F0C3C076F0C4C077F0C5C078F0000E11
:1013A80000018F6F000E00017C6F66EC0EF0010EDD
:1013B8001A6E010E92EC0DF0380E1C6E7F0E1D6E2B
:1013C80008EC0DF0010E1A6E020E92EC0DF05F0E95
:1013D800E2EC0DF0010E1A6E020E92EC0DF09C0E6E
:1013E800186E000E196EFEEC0DF01FD0A2EC0BF07B
:1013F80000019C6F5F0E00019C19D8B416D0000143
:101408008F51010D750EF324D96E000EF420DA6E9B
:101418009CC0DFFF2A0EE2EC0DF000018F2B9C0E22
:10142800186E000E196EFEEC0DF0040E00018F19F7
:10143800D8A4DCD7000E00018F6F00016E512B6E0F
:101448002C6A2B1E2C1E2B4A2C2A000175512D6E3E
:101458002E6A2B502D262C502E222D502E10D8A41B
:101468003FD000016F512B6E2C6A2B1E2C1E2B4A6D
:101478002C2A000176512D6E2E6A2B502D262C50C9
:101488002E222D502E10D8A42BD0000170512B6E77
:101498002C6A2B1E2C1E2B4A2C2A000177512D6EEC
:1014A8002E6A2B502D262C502E222D502E10D8A4CB
:1014B80017D0000171512B6E2C6A2B1E2C1E2B4A43
:1014C8002C2A000178512D6E2E6A2B502D262C5077
:1014D8002E222D502E10D8A403D0010E00017C6FAF
:1014E80066EC0EF0010E1A6E010E92EC0DF0000182
:1014F8007C510001D8B415D09F0E1C6E7E0E1D6E57
:1015080008EC0DF0010E1A6E020E92EC0DF0D10EE1
:101518001C6E7F0E1D6E08EC0DF0FF0EE2EC0DF058
:1015280011D0B00E1C6E7E0E1D6E08EC0DF0010E73
:101538001A6E020E92EC0DF07C0E1C6E7F0E1D6E64
:1015480008EC0DF0000E00018B6F000E8A6F000191
:101558008BBF08D000018B5112E1640E00018A5D37
:10156800D8B00DD0680E2B6EE40EE82EFED72B2EC9
:10157800FCD700F000F000018A4B8B2BE8D79C0EBB
:10158800186E000E196EFEEC0DF05F0E00019C6FD8
:1015980001010051D8A41200BAD6010E1A6E020E2B
:1015A80092EC0DF0000E1B6E140E1A6E25C027F07B
:1015B80026C028F0040E296ED89028322732292E0A
:1015C800FBD727C018F028C019F041EC0DF018C05F
:1015D8001FF019C020F0000E226E140E216E30ECA0
:1015E8000EF01FC060F020C061F00001626B636BF9
:1015F800000E0001676F000E666F000167BF08D01C
:101608000001675137E1100E0001665DD8B032D095
:10161800FF0EE2EC0DF0000E0001656F000E646F26
:101628000ED0680E276EE40EE82EFED7272EFCD7C4
:1016380000F000F0140E00016427000E652364C05A
:1016480027F065C028F0000E28BEFF0E296E2A6E0E
:1016580000016051275C0001615128580001625166
:101668002958000163512A58D8A0DBD70001664BDE
:10167800672BC3D7010E1A6E020E92EC0DF07D0E89
:101688001C6E7E0E1D6E08EC0DF0000E0001696FD9
:10169800000E686F000169BF08D00001695112E1AE
:1016A800050E0001685DD8B00DD0680E276EE40EF7
:1016B800E82EFED7272EFCD700F000F00001684B7B
:1016C800692BE8D7010E1A6E020E92EC0DF0000E8F
:1016D80000016B6F000E6A6F00016BBF08D000013C
:1016E8006B510CE1100E00016A5DD8B007D0FF0EF7
:1016F800E2EC0DF000016A4B6B2BEED7000E0001F7
:101708006D6F000E6C6F00016DBF08D000016D5148
:1017180012E1050E00016C5DD8B00DD0680E276E81
:10172800E40EE82EFED7272EFCD700F000F00001CB
:101738006C4B6D2BE8D766EC0EF012001F0E936E03
:10174800180E946E000E956E010E836E81A804D05B
:10175800000E826E2A0E120081A204D0000E826E44
:10176800310E120081A404D0000E826E340E1200D5
:1017780081A604D0000E826E370E1200020E836E10
:1017880081A204D0000E826E320E120081A404D011
:10179800000E826E350E120081A604D0000E826EF5
:1017A800380E120081A804D0000E826E300E12008E
:1017B800040E836E81A204D0000E826E330E1200D6
:1017C80081A404D0000E826E360E120081A604D0C9
:1017D800000E826E390E120081A804D0000E826EAF
:1017E800230E12005F0E1200000E066E010E056E2B
:1017F80006BE06D0065021E10A0E055CD8B01DD001
:10180800FF0E016EFF0E026E05C003F006C004F065
:101818000150032602500422D30E0324D96E000E71
:101828000420DA6E000E0524E16E010E0620E26E39
:10183800DFCFE7FF054A062ADBD7000E086E0A0E3F
:10184800076E08BE06D0085021E1130E075CD8B019
:101858001200F60E016EFF0E026E07C003F008C0FC
:1018680004F00150032602500422CA0E0324D96E44
:10187800000E0420DA6E000E0724E16E010E082027
:10188800E26EDFCFE7FF074A082ADBD71200000E17
:101898001D6E1BAE06D01A6C1B1ED8B01B2A010E7B
:1018A8001D6E19AE06D0186C191ED8B0192A010E73
:1018B8001D1A000E1F6E000E1E6E1A501B10D8B493
:1018C8001CD0010E1C6E04D0D8901A361B361C2A68
:1018D8001BAEFAD7D8901E361F361A50185C1B500C
:1018E8001958D8A005D01A50185E1B50195A1E80D6
:1018F800D8901B321A321C2EEDD71D50D8B404D004
:101908001E6C1F1ED8B01F2A1EC018F01FC019F069
:10191800120000EECAF0140EEE6AE806FDE13F6A16
:101928003E6AD40EF66E1A0EF76E000EF86E01EED1
:1019380000F010EE50F00900F5CFEEFFE550E15051
:10194800FAE1AA0EF66E1C0EF76E000EF86E00EEA7
:10195800A9F010EE21F00900F5CFEEFFE550E150B7
:10196800FAE1180EF66E1D0EF76E000EF86E00EE18
:101978002FF010EE0FF00900F5CFEEFFE550E15023
:10198800FAE140904092000EF86E000183EF00F0FB
:10199800000E1AEC0EF0680E1A6EE40EE82EFED752
:1019A8001A2EFCD700F000F0030E76EC0EF01A0E9B
:1019B8001A6EF80EE82EFED71A2EFCD700F000F0AB
:1019C800030E76EC0EF03A0E1A6E230EE82EFED7B2
:1019D8001A2EFCD700F0030E76EC0EF0020E76EC11
:1019E8000EF0020E76EC0EF0080E76EC0EF0000EFD
:1019F80076EC0EF00C0E76EC0EF0000E76EC0EF097
:101A0800060E76EC0EF01200000E216E000E206E0F
:101A18001AD020501C241E6E21501D201F6E1EC07F
:101A2800F6FF1FC0F7FFF86A050EF76403D0080039
:101A3800F55005D0F6CFE9FFF7CFEAFFEF50E2EC1B
:101A48000DF0204A212A20501C241E6E21501D20F2
:101A58001F6E1EC0F6FF1FC0F7FFF86A050EF76479
:101A680003D00800F55005D0F6CFE9FFF7CFEAFF1D
:101A7800EF500009D8B41200CCD7000E1E6E000E2D
:101A88001D6E1A501B10D8B41CD0010E1C6E04D049
:101A9800D8901A361B361C2A1BAEFAD7D8901D369A
:101AA8001E361A50185C1B501958D8A005D01A5069
:101AB800185E1B50195A1D80D8901B321A321C2EE2
:101AC800EDD71DC018F01EC019F01200300000003C
:101AD80000000000000000000000000000000000FE
:101AE80000000000000000000000000030000000BE
:101AF80000000000000000000000000000000000DE
:101B08000000000000000000000000003031323307
:101B18003435363738394142434445461B6E1B0439
:101B2800D8A410D01A507F0F1E6E1E380F0B1C6ED3
:101B38001E500F0B1D6E1C5076EC0EF01D5076ECEF
:101B48000EF01200020E1B18D8A412001A50BF0F74
:101B58001E6E1E380F0B1C6E1E500F0B1D6E1C5078
:101B680076EC0EF01D5076EC0EF012000001DC5100
:101B780082EC0EF00001DE6F0001DE51F10F000172
:101B8800DF6F600ED36E9B9C000E926E010E936EFB
:101B9800180E946E000E956E180E8B6E0001DE51B5
:101BA800020DF3CFC8FF360EC66E000EC76E010ECB
:101BB800C56E9E969D86F28EF28C12001B6E1B508F
:101BC8000F0B196E1B50F00B1A6E838A1A380F0B05
:101BD8001AEC0EF08388350EE82EFED700F08398B5
:101BE80019501AEC0EF08388350EE82EFED700F057
:101BF8008398120009D0680E1A6EE40EE82EFED7FC
:101C08001A2EFCD700F000F018C0D9FF19C0DAFF6F
:101C1800A2EC0BF01B6EDE501B18D8B4ECD718C022
:101C2800D9FF19C0DAFF5F0EDF6E1200186E18A018
:101C380002D0838001D0839018A202D0838201D081
:101C4800839218A402D0838401D0839418A602D06A
:101C580083861200839612001F502102F3CF23F0CF
:101C6800F4CF24F01F502202F350242620502102E2
:101C7800F350242623C01FF024C020F01200196E50
:101C880019C0A9FF18C0A8FFA69EA69CA684550E39
:101C9800A76EAA0EA76EA682A1A8FED7A198A694A1
:101CA8001200303132333435363738393031323347
:101CB800343536373839313233340023232323304F
:031CC80030302099
:101CCC00000E76EC0EF0010E76EC0EF01A0E1A6E7B
:101CDC00F80EE82EFED71A2EFCD700F000F01200FA
:101CEC00196E839A19501AEC0EF08388C80E00F006
:101CFC00E82EFDD783981200186E18C0A9FFA69E77
:101D0C00A69CA680A6B0FED7A85012003031323364
:0B1D1C0034353637383930303A30307B
:107E7C000020202020202020202020202020202016
:107E8C0020005B205D20202020202020202020208E
:107E9C00202000436F727265637420202020202004
:107EAC0020202000496E636F72726563742020205D
:107EBC0020202020002020205B2041646974756DF7
:107ECC00205D20202000202020205B205265747231
:107EDC0079205D202020004F7574206F6620626F22
:107EEC00756E647321202000456E74657220796F65
:107EFC0075722049443A20200020205B20204164E8
:107F0C006974756D20205D2020004E6577204D61D1
:107F1C006368696E652049443A2000456E74657249
:107F2C0020796F75722050494E3A2000456E746569
:107F3C00722070617373776F72643A20004D6179AF
:107F4C00206E6F74206265207A65726F21004C6F11
:107F5C006164204932432073657475702E2E00497C
:107F6C0032435F414444523E3E454550524F4D00D2
:107F7C004163636573732044656E696564202058A2
:107F8C0000202020202020205B3030312D3130305B
:107F9C005D005B416363657373202044656E6965A6
:107FAC00645D0049324320646973636F6E6E656370
:107FBC00746564005B202A205D2020746F20627938
:107FCC007061737300416363657373204772616EF4
:107FDC00746564200044657669636520494420001B
:107FEC00312E302E300052657620005B4F4B5D00F9
:037FFC007800000A
:020000040020DA
:08000000FFFFFFFFFFFFFFFF00
:020000040030CA
:0E000000FF08071EFF8985FF0FC00FE00F40AD
:0200000400F00A
:080000000000000000000000F8
:00000001FF
